{
  "_format": "hh-sol-artifact-1",
  "contractName": "Dutch_Auction",
  "sourceName": "contracts/Dutch_Auction.sol",
  "abi": [
    {
      "inputs": [
        {
          "internalType": "uint256",
          "name": "_reservePrice",
          "type": "uint256"
        },
        {
          "internalType": "uint256",
          "name": "_startPrice",
          "type": "uint256"
        }
      ],
      "stateMutability": "nonpayable",
      "type": "constructor"
    },
    {
      "inputs": [],
      "name": "Dutch_Auction__IsOwner",
      "type": "error"
    },
    {
      "inputs": [],
      "name": "Dutch_Auction__NotOpen",
      "type": "error"
    },
    {
      "inputs": [],
      "name": "Dutch_Auction__NotOwner",
      "type": "error"
    },
    {
      "inputs": [],
      "name": "Dutch_Auction__Open",
      "type": "error"
    },
    {
      "inputs": [],
      "name": "ReentrancyGuardReentrantCall",
      "type": "error"
    },
    {
      "anonymous": false,
      "inputs": [
        {
          "indexed": false,
          "internalType": "address",
          "name": "bidderAddress",
          "type": "address"
        },
        {
          "indexed": false,
          "internalType": "uint256",
          "name": "TokensPurchased",
          "type": "uint256"
        },
        {
          "indexed": false,
          "internalType": "uint256",
          "name": "refundValue",
          "type": "uint256"
        }
      ],
      "name": "RefundEvent",
      "type": "event"
    },
    {
      "anonymous": false,
      "inputs": [
        {
          "indexed": false,
          "internalType": "uint256",
          "name": "bidderID",
          "type": "uint256"
        },
        {
          "indexed": false,
          "internalType": "address",
          "name": "walletAddress",
          "type": "address"
        },
        {
          "indexed": false,
          "internalType": "uint256",
          "name": "bidvalue",
          "type": "uint256"
        }
      ],
      "name": "addBidderEvent",
      "type": "event"
    },
    {
      "anonymous": false,
      "inputs": [
        {
          "indexed": false,
          "internalType": "address",
          "name": "bidderAddress",
          "type": "address"
        },
        {
          "indexed": false,
          "internalType": "uint256",
          "name": "TokensPurchased",
          "type": "uint256"
        },
        {
          "indexed": false,
          "internalType": "uint256",
          "name": "refundValue",
          "type": "uint256"
        }
      ],
      "name": "calculateEvent",
      "type": "event"
    },
    {
      "anonymous": false,
      "inputs": [
        {
          "indexed": false,
          "internalType": "uint256",
          "name": "totalBidders",
          "type": "uint256"
        },
        {
          "indexed": false,
          "internalType": "uint256",
          "name": "burntERC20",
          "type": "uint256"
        },
        {
          "indexed": false,
          "internalType": "uint256",
          "name": "totalETHEarned",
          "type": "uint256"
        }
      ],
      "name": "endAuctionEvent",
      "type": "event"
    },
    {
      "anonymous": false,
      "inputs": [
        {
          "indexed": false,
          "internalType": "address",
          "name": "bidderAddress",
          "type": "address"
        },
        {
          "indexed": false,
          "internalType": "uint256",
          "name": "tokensSent",
          "type": "uint256"
        }
      ],
      "name": "sendTokenEvent",
      "type": "event"
    },
    {
      "anonymous": false,
      "inputs": [
        {
          "indexed": false,
          "internalType": "uint256",
          "name": "startTime",
          "type": "uint256"
        },
        {
          "indexed": false,
          "internalType": "address",
          "name": "ERC20Address",
          "type": "address"
        },
        {
          "indexed": false,
          "internalType": "uint256",
          "name": "totalAlgosAvailable",
          "type": "uint256"
        },
        {
          "indexed": false,
          "internalType": "uint256",
          "name": "changePerMin",
          "type": "uint256"
        }
      ],
      "name": "startAuctionEvent",
      "type": "event"
    },
    {
      "anonymous": false,
      "inputs": [
        {
          "indexed": false,
          "internalType": "uint256",
          "name": "timeElapsed",
          "type": "uint256"
        },
        {
          "indexed": false,
          "internalType": "uint256",
          "name": "currentprice",
          "type": "uint256"
        }
      ],
      "name": "updateCurrentPriceEvent",
      "type": "event"
    },
    {
      "stateMutability": "payable",
      "type": "fallback"
    },
    {
      "inputs": [],
      "name": "addBidder",
      "outputs": [],
      "stateMutability": "payable",
      "type": "function"
    },
    {
      "inputs": [
        {
          "internalType": "uint256",
          "name": "bidder",
          "type": "uint256"
        }
      ],
      "name": "balanceOfBidder",
      "outputs": [
        {
          "internalType": "uint256",
          "name": "",
          "type": "uint256"
        }
      ],
      "stateMutability": "view",
      "type": "function"
    },
    {
      "inputs": [
        {
          "internalType": "uint256",
          "name": "",
          "type": "uint256"
        }
      ],
      "name": "biddersList",
      "outputs": [
        {
          "internalType": "uint256",
          "name": "bidderID",
          "type": "uint256"
        },
        {
          "internalType": "address",
          "name": "walletAddress",
          "type": "address"
        },
        {
          "internalType": "uint256",
          "name": "bidValue",
          "type": "uint256"
        },
        {
          "internalType": "uint256",
          "name": "totalAlgosPurchased",
          "type": "uint256"
        },
        {
          "internalType": "uint256",
          "name": "refundEth",
          "type": "uint256"
        },
        {
          "internalType": "bool",
          "name": "isExist",
          "type": "bool"
        },
        {
          "internalType": "bool",
          "name": "tokenSent",
          "type": "bool"
        },
        {
          "internalType": "bool",
          "name": "ethRefunded",
          "type": "bool"
        }
      ],
      "stateMutability": "view",
      "type": "function"
    },
    {
      "inputs": [],
      "name": "calculate",
      "outputs": [],
      "stateMutability": "nonpayable",
      "type": "function"
    },
    {
      "inputs": [],
      "name": "endAuction",
      "outputs": [],
      "stateMutability": "nonpayable",
      "type": "function"
    },
    {
      "inputs": [],
      "name": "getAuctionState",
      "outputs": [
        {
          "internalType": "enum Dutch_Auction.AuctionState",
          "name": "",
          "type": "uint8"
        }
      ],
      "stateMutability": "view",
      "type": "function"
    },
    {
      "inputs": [
        {
          "internalType": "uint256",
          "name": "bidder",
          "type": "uint256"
        }
      ],
      "name": "getRefundState",
      "outputs": [
        {
          "internalType": "bool",
          "name": "",
          "type": "bool"
        }
      ],
      "stateMutability": "view",
      "type": "function"
    },
    {
      "inputs": [],
      "name": "getUnsoldAlgos",
      "outputs": [
        {
          "internalType": "uint256",
          "name": "",
          "type": "uint256"
        }
      ],
      "stateMutability": "view",
      "type": "function"
    },
    {
      "inputs": [],
      "name": "refundETH",
      "outputs": [],
      "stateMutability": "nonpayable",
      "type": "function"
    },
    {
      "inputs": [
        {
          "internalType": "uint256",
          "name": "bidder",
          "type": "uint256"
        }
      ],
      "name": "retrieveBidderAlgos",
      "outputs": [
        {
          "internalType": "uint256",
          "name": "",
          "type": "uint256"
        }
      ],
      "stateMutability": "view",
      "type": "function"
    },
    {
      "inputs": [
        {
          "internalType": "uint256",
          "name": "bidder",
          "type": "uint256"
        }
      ],
      "name": "retrieveBidderBidValue",
      "outputs": [
        {
          "internalType": "uint256",
          "name": "",
          "type": "uint256"
        }
      ],
      "stateMutability": "view",
      "type": "function"
    },
    {
      "inputs": [],
      "name": "retrieveContractBalance",
      "outputs": [
        {
          "internalType": "uint256",
          "name": "",
          "type": "uint256"
        }
      ],
      "stateMutability": "view",
      "type": "function"
    },
    {
      "inputs": [],
      "name": "retrieveContractOwner",
      "outputs": [
        {
          "internalType": "address",
          "name": "",
          "type": "address"
        }
      ],
      "stateMutability": "view",
      "type": "function"
    },
    {
      "inputs": [],
      "name": "retrieveCurrentPrice",
      "outputs": [
        {
          "internalType": "int256",
          "name": "",
          "type": "int256"
        }
      ],
      "stateMutability": "view",
      "type": "function"
    },
    {
      "inputs": [
        {
          "internalType": "uint256",
          "name": "bidder",
          "type": "uint256"
        }
      ],
      "name": "retrieveRefund",
      "outputs": [
        {
          "internalType": "uint256",
          "name": "",
          "type": "uint256"
        }
      ],
      "stateMutability": "view",
      "type": "function"
    },
    {
      "inputs": [],
      "name": "retrieveReservePrice",
      "outputs": [
        {
          "internalType": "uint256",
          "name": "",
          "type": "uint256"
        }
      ],
      "stateMutability": "view",
      "type": "function"
    },
    {
      "inputs": [],
      "name": "retrieveTotalAlgos",
      "outputs": [
        {
          "internalType": "uint256",
          "name": "",
          "type": "uint256"
        }
      ],
      "stateMutability": "view",
      "type": "function"
    },
    {
      "inputs": [],
      "name": "retrieveTotalBidder",
      "outputs": [
        {
          "internalType": "uint256",
          "name": "",
          "type": "uint256"
        }
      ],
      "stateMutability": "view",
      "type": "function"
    },
    {
      "inputs": [],
      "name": "sendTokens",
      "outputs": [],
      "stateMutability": "nonpayable",
      "type": "function"
    },
    {
      "inputs": [
        {
          "internalType": "uint256",
          "name": "_totalAlgosAvailable",
          "type": "uint256"
        },
        {
          "internalType": "uint256",
          "name": "_changePerMin",
          "type": "uint256"
        }
      ],
      "name": "startAuction",
      "outputs": [
        {
          "internalType": "address",
          "name": "",
          "type": "address"
        }
      ],
      "stateMutability": "nonpayable",
      "type": "function"
    },
    {
      "inputs": [],
      "name": "updateCurrentPrice",
      "outputs": [],
      "stateMutability": "nonpayable",
      "type": "function"
    },
    {
      "stateMutability": "payable",
      "type": "receive"
    }
  ],
  "bytecode": "0x60e060405260006002556000600760006101000a81548160ff0219169083151502179055506000600760016101000a81548160ff0219169083151502179055506000600760026101000a81548160ff0219169083151502179055503480156200006757600080fd5b5060405162004da538038062004da583398181016040528101906200008d91906200019b565b6001600081905550808210620000da576040517f08c379a0000000000000000000000000000000000000000000000000000000008152600401620000d19062000269565b60405180910390fd5b3373ffffffffffffffffffffffffffffffffffffffff1660c08173ffffffffffffffffffffffffffffffffffffffff16815250508160a081815250508060018190555080608081815250506001600a60006101000a81548160ff021916908360018111156200014e576200014d6200028b565b5b02179055505050620002ba565b600080fd5b6000819050919050565b620001758162000160565b81146200018157600080fd5b50565b60008151905062000195816200016a565b92915050565b60008060408385031215620001b557620001b46200015b565b5b6000620001c58582860162000184565b9250506020620001d88582860162000184565b9150509250929050565b600082825260208201905092915050565b7f7265736572766520707269636520697320686967686572207468616e2063757260008201527f72656e7420707269636500000000000000000000000000000000000000000000602082015250565b600062000251602a83620001e2565b91506200025e82620001f3565b604082019050919050565b60006020820190508181036000830152620002848162000242565b9050919050565b7f4e487b7100000000000000000000000000000000000000000000000000000000600052602160045260246000fd5b60805160a05160c051614a5262000353600039600081816105690152818161094d015281816109fb01528181610a9f015281816110d8015281816113bf0152818161144d015281816114fd015281816116ca015281816119a101528181611a3101528181611abf0152611ecf0152600081816109d301528181611624015261165101526000818161120e01526115e30152614a526000f3fe6080604052600436106200014b5760003560e01c806383634e1c11620000bb578063ca77ab651162000079578063ca77ab651462000454578063d5e7a54b146200046e578063df38530614620004b2578063e4655bca14620004e2578063e47112bd1462000512578063fe67a54b146200052c5762000153565b806383634e1c146200035257806388a38ce91462000396578063a45b4abb14620003c6578063aa9d9bd6146200040a578063ac5ece6d14620004245762000153565b80631f8cdb0411620001095780631f8cdb0414620002435780632d21a3ed146200024f5780633fa8578d14620002935780634fee13fc14620002de5780637ded653f14620003225762000153565b806308bfc30014620001555780630b324808146200018557806312210e8a14620001b557806314df33ac14620001cf5780631f73208814620001ff5762000153565b366200015357005b005b3480156200016257600080fd5b506200016d62000546565b6040516200017c919062002112565b60405180910390f35b3480156200019257600080fd5b506200019d6200055d565b604051620001ac91906200214a565b60405180910390f35b348015620001c257600080fd5b50620001cd62000567565b005b348015620001dc57600080fd5b50620001e762000949565b604051620001f6919062002182565b60405180910390f35b3480156200020c57600080fd5b506200022b6004803603810190620002259190620021d5565b620009f7565b6040516200023a919062002182565b60405180910390f35b6200024d62000a9d565b005b3480156200025c57600080fd5b506200027b6004803603810190620002759190620021d5565b62000f65565b6040516200028a919062002182565b60405180910390f35b348015620002a057600080fd5b50620002bf6004803603810190620002b99190620021d5565b62001045565b604051620002d598979695949392919062002269565b60405180910390f35b348015620002eb57600080fd5b506200030a6004803603810190620003049190620022f7565b620010d4565b6040516200031991906200233e565b60405180910390f35b3480156200032f57600080fd5b506200033a620013bb565b60405162000349919062002182565b60405180910390f35b3480156200035f57600080fd5b506200037e6004803603810190620003789190620021d5565b62001449565b6040516200038d919062002182565b60405180910390f35b348015620003a357600080fd5b50620003ae620014ef565b604051620003bd919062002182565b60405180910390f35b348015620003d357600080fd5b50620003f26004803603810190620003ec9190620021d5565b620014f9565b60405162000401919062002182565b60405180910390f35b3480156200041757600080fd5b50620004226200159f565b005b3480156200043157600080fd5b506200043c620016c6565b6040516200044b91906200233e565b60405180910390f35b3480156200046157600080fd5b506200046c620016ee565b005b3480156200047b57600080fd5b506200049a6004803603810190620004949190620021d5565b62001970565b604051620004a991906200235b565b60405180910390f35b348015620004bf57600080fd5b50620004ca6200199d565b604051620004d9919062002182565b60405180910390f35b348015620004ef57600080fd5b50620004fa62001a2d565b60405162000509919062002182565b60405180910390f35b3480156200051f57600080fd5b506200052a62001abd565b005b3480156200053957600080fd5b506200054462001ecd565b005b6000600a60009054906101000a900460ff16905090565b6000600154905090565b7f000000000000000000000000000000000000000000000000000000000000000073ffffffffffffffffffffffffffffffffffffffff163373ffffffffffffffffffffffffffffffffffffffff1614620005ed576040517fae4a21bc00000000000000000000000000000000000000000000000000000000815260040160405180910390fd5b600a60009054906101000a900460ff16600181111562000612576200061162002092565b5b6000600181111562000629576200062862002092565b5b0362000661576040517f6668065e00000000000000000000000000000000000000000000000000000000815260040160405180910390fd5b600760019054906101000a900460ff1615620006b4576040517f08c379a0000000000000000000000000000000000000000000000000000000008152600401620006ab90620023d9565b60405180910390fd5b6001600760016101000a81548160ff02191690831515021790555060005b6002548110156200092b5760006009600083815260200190815260200160002060040154118015620007195750600960008281526020019081526020016000206004015447115b1562000915576000600960008381526020019081526020016000206004015490506000600960008481526020019081526020016000206004018190555060016009600084815260200190815260200160002060050160026101000a81548160ff0219169083151502179055506000811180156200079557508047115b15620008865760006009600084815260200190815260200160002060010160009054906101000a900473ffffffffffffffffffffffffffffffffffffffff1673ffffffffffffffffffffffffffffffffffffffff1682604051620007f99062002430565b60006040518083038185875af1925050503d806000811462000838576040519150601f19603f3d011682016040523d82523d6000602084013e6200083d565b606091505b505090508062000884576040517f08c379a00000000000000000000000000000000000000000000000000000000081526004016200087b9062002497565b60405180910390fd5b505b7fb24b09fd2e8e4d8904c3c26f3e935824e032891520ffda419dec9f086b0e1eea6009600084815260200190815260200160002060010160009054906101000a900473ffffffffffffffffffffffffffffffffffffffff166009600085815260200190815260200160002060030154836040516200090793929190620024b9565b60405180910390a160009050505b8080620009229062002525565b915050620006d2565b506000600760016101000a81548160ff021916908315150217905550565b60007f000000000000000000000000000000000000000000000000000000000000000073ffffffffffffffffffffffffffffffffffffffff163373ffffffffffffffffffffffffffffffffffffffff1614620009d1576040517fae4a21bc00000000000000000000000000000000000000000000000000000000815260040160405180910390fd5b7f0000000000000000000000000000000000000000000000000000000000000000905090565b60007f000000000000000000000000000000000000000000000000000000000000000073ffffffffffffffffffffffffffffffffffffffff163373ffffffffffffffffffffffffffffffffffffffff161462000a7f576040517fae4a21bc00000000000000000000000000000000000000000000000000000000815260040160405180910390fd5b60096000838152602001908152602001600020600201549050919050565b7f000000000000000000000000000000000000000000000000000000000000000073ffffffffffffffffffffffffffffffffffffffff163373ffffffffffffffffffffffffffffffffffffffff160362000b23576040517fc3fdc7c100000000000000000000000000000000000000000000000000000000815260040160405180910390fd5b600a60009054906101000a900460ff16600181111562000b485762000b4762002092565b5b60018081111562000b5e5762000b5d62002092565b5b0362000b96576040517f5de7a96600000000000000000000000000000000000000000000000000000000815260040160405180910390fd5b6000341162000bdc576040517f08c379a000000000000000000000000000000000000000000000000000000000815260040162000bd390620025c2565b60405180910390fd5b62000be6620016ee565b600154341162000c2d576040517f08c379a000000000000000000000000000000000000000000000000000000000815260040162000c249062002634565b60405180910390fd5b6104b06004544262000c40919062002656565b1062000c83576040517f08c379a000000000000000000000000000000000000000000000000000000000815260040162000c7a90620026e1565b60405180910390fd5b60006005541162000ccb576040517f08c379a000000000000000000000000000000000000000000000000000000000815260040162000cc29062002753565b60405180910390fd5b600060096000600254815260200190815260200160002090506002548160000181905550338160010160006101000a81548173ffffffffffffffffffffffffffffffffffffffff021916908373ffffffffffffffffffffffffffffffffffffffff16021790555034816002018190555060018160050160006101000a81548160ff021916908315150217905550600081600301819055506000816004018190555060008160050160016101000a81548160ff02191690831515021790555060008160050160026101000a81548160ff02191690831515021790555080600960006002548152602001908152602001600020600082015481600001556001820160009054906101000a900473ffffffffffffffffffffffffffffffffffffffff168160010160006101000a81548173ffffffffffffffffffffffffffffffffffffffff021916908373ffffffffffffffffffffffffffffffffffffffff1602179055506002820154816002015560038201548160030155600482015481600401556005820160009054906101000a900460ff168160050160006101000a81548160ff0219169083151502179055506005820160019054906101000a900460ff168160050160016101000a81548160ff0219169083151502179055506005820160029054906101000a900460ff168160050160026101000a81548160ff0219169083151502179055509050507f6559452b5cf88e12990371c9441273d2dbb464fb7dd9cc4030551b86df924b6281600001548260010160009054906101000a900473ffffffffffffffffffffffffffffffffffffffff16836002015460405162000f369392919062002775565b60405180910390a16002600081548092919062000f539062002525565b919050555062000f62620016ee565b50565b6000600760039054906101000a900473ffffffffffffffffffffffffffffffffffffffff1673ffffffffffffffffffffffffffffffffffffffff166370a082316009600085815260200190815260200160002060010160009054906101000a900473ffffffffffffffffffffffffffffffffffffffff166040518263ffffffff1660e01b815260040162000ffa91906200233e565b602060405180830381865afa15801562001018573d6000803e3d6000fd5b505050506040513d601f19601f820116820180604052508101906200103e9190620027c9565b9050919050565b60096020528060005260406000206000915090508060000154908060010160009054906101000a900473ffffffffffffffffffffffffffffffffffffffff16908060020154908060030154908060040154908060050160009054906101000a900460ff16908060050160019054906101000a900460ff16908060050160029054906101000a900460ff16905088565b60007f000000000000000000000000000000000000000000000000000000000000000073ffffffffffffffffffffffffffffffffffffffff163373ffffffffffffffffffffffffffffffffffffffff16146200115c576040517fae4a21bc00000000000000000000000000000000000000000000000000000000815260040160405180910390fd5b600a60009054906101000a900460ff16600181111562001181576200118062002092565b5b6000600181111562001198576200119762002092565b5b03620011d0576040517f6668065e00000000000000000000000000000000000000000000000000000000815260040160405180910390fd5b6000600a60006101000a81548160ff02191690836001811115620011f957620011f862002092565b5b021790555082600381905550816006819055507f000000000000000000000000000000000000000000000000000000000000000060018190555082600581905550600060028190555042600481905550600354306040516200125b9062002084565b62001268929190620027fb565b604051809103906000f08015801562001285573d6000803e3d6000fd5b50600760036101000a81548173ffffffffffffffffffffffffffffffffffffffff021916908373ffffffffffffffffffffffffffffffffffffffff160217905550600760039054906101000a900473ffffffffffffffffffffffffffffffffffffffff16600860006101000a81548173ffffffffffffffffffffffffffffffffffffffff021916908373ffffffffffffffffffffffffffffffffffffffff1602179055507f0f0eb7cc9cde5623ecdc8f18c7fe6bacab47ab80468f73b4d9b3d08ec7284af5600454600860009054906101000a900473ffffffffffffffffffffffffffffffffffffffff1660035460065460405162001388949392919062002828565b60405180910390a1600860009054906101000a900473ffffffffffffffffffffffffffffffffffffffff16905092915050565b60007f000000000000000000000000000000000000000000000000000000000000000073ffffffffffffffffffffffffffffffffffffffff163373ffffffffffffffffffffffffffffffffffffffff161462001443576040517fae4a21bc00000000000000000000000000000000000000000000000000000000815260040160405180910390fd5b47905090565b60007f000000000000000000000000000000000000000000000000000000000000000073ffffffffffffffffffffffffffffffffffffffff163373ffffffffffffffffffffffffffffffffffffffff1614620014d1576040517fae4a21bc00000000000000000000000000000000000000000000000000000000815260040160405180910390fd5b60096000838152602001908152602001600020600301549050919050565b6000600554905090565b60007f000000000000000000000000000000000000000000000000000000000000000073ffffffffffffffffffffffffffffffffffffffff163373ffffffffffffffffffffffffffffffffffffffff161462001581576040517fae4a21bc00000000000000000000000000000000000000000000000000000000815260040160405180910390fd5b60096000838152602001908152602001600020600401549050919050565b600760009054906101000a900460ff16620016c457600654603c60045442620015c9919062002656565b620015d59190620028a4565b620015e19190620028dc565b7f00000000000000000000000000000000000000000000000000000000000000006200160e919062002960565b60018190555060006001541315806200164957507f000000000000000000000000000000000000000000000000000000000000000060015413155b1562001677577f00000000000000000000000000000000000000000000000000000000000000006001819055505b7f7cda8554820ef0a356899263aefa9db86ab6966b7b823eda047b78c3afdfeb8e60045442620016a8919062002656565b600154604051620016bb929190620029aa565b60405180910390a15b565b60007f0000000000000000000000000000000000000000000000000000000000000000905090565b620016f86200159f565b6000600354905060005b60025481101562001903576001546009600083815260200190815260200160002060020154620017339190620028a4565b8210620017d1576001546009600083815260200190815260200160002060020154620017609190620028a4565b60096000838152602001908152602001600020600301819055506001546009600083815260200190815260200160002060020154620017a09190620028a4565b82620017ad919062002656565b915060006009600083815260200190815260200160002060040181905550620018ed565b6000821180156200180657506001546009600083815260200190815260200160002060020154620018039190620028a4565b82105b156200189457816009600083815260200190815260200160002060030181905550600091506001546009600083815260200190815260200160002060030154620018519190620029d7565b600960008381526020019081526020016000206002015462001874919062002656565b6009600083815260200190815260200160002060040181905550620018ec565b60008211620018eb5760006009600083815260200190815260200160002060030181905550600960008281526020019081526020016000206002015460096000838152602001908152602001600020600401819055505b5b5b8080620018fa9062002525565b91505062001702565b5060008111156200191b57806005819055506200196d565b6001600a60006101000a81548160ff0219169083600181111562001944576200194362002092565b5b021790555060006005819055506001600760006101000a81548160ff0219169083151502179055505b50565b60006009600083815260200190815260200160002060050160029054906101000a900460ff169050919050565b60007f000000000000000000000000000000000000000000000000000000000000000073ffffffffffffffffffffffffffffffffffffffff163373ffffffffffffffffffffffffffffffffffffffff161462001a25576040517fae4a21bc00000000000000000000000000000000000000000000000000000000815260040160405180910390fd5b600354905090565b60007f000000000000000000000000000000000000000000000000000000000000000073ffffffffffffffffffffffffffffffffffffffff163373ffffffffffffffffffffffffffffffffffffffff161462001ab5576040517fae4a21bc00000000000000000000000000000000000000000000000000000000815260040160405180910390fd5b600254905090565b7f000000000000000000000000000000000000000000000000000000000000000073ffffffffffffffffffffffffffffffffffffffff163373ffffffffffffffffffffffffffffffffffffffff161462001b43576040517fae4a21bc00000000000000000000000000000000000000000000000000000000815260040160405180910390fd5b600a60009054906101000a900460ff16600181111562001b685762001b6762002092565b5b6000600181111562001b7f5762001b7e62002092565b5b0362001bb7576040517f6668065e00000000000000000000000000000000000000000000000000000000815260040160405180910390fd5b60005b60025481101562001eca576000600960008381526020019081526020016000206003015411801562001c0d57506009600082815260200190815260200160002060050160019054906101000a900460ff16155b1562001eb457600060096000838152602001908152602001600020600301549050600760039054906101000a900473ffffffffffffffffffffffffffffffffffffffff1673ffffffffffffffffffffffffffffffffffffffff1663095ea7b36009600085815260200190815260200160002060010160009054906101000a900473ffffffffffffffffffffffffffffffffffffffff16670de0b6b3a76400008462001cb99190620029d7565b6040518363ffffffff1660e01b815260040162001cd892919062002a22565b6020604051808303816000875af115801562001cf8573d6000803e3d6000fd5b505050506040513d601f19601f8201168201806040525081019062001d1e919062002a80565b50600760039054906101000a900473ffffffffffffffffffffffffffffffffffffffff1673ffffffffffffffffffffffffffffffffffffffff166323b872dd306009600086815260200190815260200160002060010160009054906101000a900473ffffffffffffffffffffffffffffffffffffffff16670de0b6b3a76400008562001dab9190620029d7565b6040518463ffffffff1660e01b815260040162001dcb9392919062002ab2565b6020604051808303816000875af115801562001deb573d6000803e3d6000fd5b505050506040513d601f19601f8201168201806040525081019062001e11919062002a80565b507f039b13884cbcea684931b2bcff6faab7170693e1bc173e651e14168c890c70806009600084815260200190815260200160002060010160009054906101000a900473ffffffffffffffffffffffffffffffffffffffff168260405162001e7b92919062002a22565b60405180910390a160016009600084815260200190815260200160002060050160016101000a81548160ff021916908315150217905550505b808062001ec19062002525565b91505062001bba565b50565b7f000000000000000000000000000000000000000000000000000000000000000073ffffffffffffffffffffffffffffffffffffffff163373ffffffffffffffffffffffffffffffffffffffff161462001f53576040517fae4a21bc00000000000000000000000000000000000000000000000000000000815260040160405180910390fd5b6001600a60006101000a81548160ff0219169083600181111562001f7c5762001f7b62002092565b5b021790555062001f8b620016ee565b62001f9562001abd565b62001f9f62000567565b600060055411156200204157600760039054906101000a900473ffffffffffffffffffffffffffffffffffffffff1673ffffffffffffffffffffffffffffffffffffffff16639dc29fac306005546040518363ffffffff1660e01b81526004016200200c92919062002a22565b600060405180830381600087803b1580156200202757600080fd5b505af11580156200203c573d6000803e3d6000fd5b505050505b7f99d9aed25b1415a4a35a1890d2ee6aa1db28f98ba8eff1de3d494a6af9dca772600254600554476040516200207a9392919062002aef565b60405180910390a1565b611ef08062002b2d83390190565b7f4e487b7100000000000000000000000000000000000000000000000000000000600052602160045260246000fd5b60028110620020d557620020d462002092565b5b50565b6000819050620020e882620020c1565b919050565b6000620020fa82620020d8565b9050919050565b6200210c81620020ed565b82525050565b600060208201905062002129600083018462002101565b92915050565b6000819050919050565b62002144816200212f565b82525050565b600060208201905062002161600083018462002139565b92915050565b6000819050919050565b6200217c8162002167565b82525050565b600060208201905062002199600083018462002171565b92915050565b600080fd5b620021af8162002167565b8114620021bb57600080fd5b50565b600081359050620021cf81620021a4565b92915050565b600060208284031215620021ee57620021ed6200219f565b5b6000620021fe84828501620021be565b91505092915050565b600073ffffffffffffffffffffffffffffffffffffffff82169050919050565b6000620022348262002207565b9050919050565b620022468162002227565b82525050565b60008115159050919050565b62002263816200224c565b82525050565b60006101008201905062002281600083018b62002171565b62002290602083018a6200223b565b6200229f604083018962002171565b620022ae606083018862002171565b620022bd608083018762002171565b620022cc60a083018662002258565b620022db60c083018562002258565b620022ea60e083018462002258565b9998505050505050505050565b600080604083850312156200231157620023106200219f565b5b60006200232185828601620021be565b92505060206200233485828601620021be565b9150509250929050565b60006020820190506200235560008301846200223b565b92915050565b600060208201905062002372600083018462002258565b92915050565b600082825260208201905092915050565b7f4d757465782069732068656c642062792074686520636f6e7472616374000000600082015250565b6000620023c1601d8362002378565b9150620023ce8262002389565b602082019050919050565b60006020820190508181036000830152620023f481620023b2565b9050919050565b600081905092915050565b50565b600062002418600083620023fb565b9150620024258262002406565b600082019050919050565b60006200243d8262002409565b9150819050919050565b7f4661696c656420746f2073656e64206574686572000000000000000000000000600082015250565b60006200247f60148362002378565b91506200248c8262002447565b602082019050919050565b60006020820190508181036000830152620024b28162002470565b9050919050565b6000606082019050620024d060008301866200223b565b620024df602083018562002171565b620024ee604083018462002171565b949350505050565b7f4e487b7100000000000000000000000000000000000000000000000000000000600052601160045260246000fd5b6000620025328262002167565b91507fffffffffffffffffffffffffffffffffffffffffffffffffffffffffffffffff8203620025675762002566620024f6565b5b600182019050919050565b7f62696456616c7565206c657373207468616e2030000000000000000000000000600082015250565b6000620025aa60148362002378565b9150620025b78262002572565b602082019050919050565b60006020820190508181036000830152620025dd816200259b565b9050919050565b7f62696456616c7565206c657373207468616e2063757272656e74207072696365600082015250565b60006200261c60208362002378565b91506200262982620025e4565b602082019050919050565b600060208201905081810360008301526200264f816200260d565b9050919050565b6000620026638262002167565b9150620026708362002167565b92508282039050818111156200268b576200268a620024f6565b5b92915050565b7f74696d6520697320757000000000000000000000000000000000000000000000600082015250565b6000620026c9600a8362002378565b9150620026d68262002691565b602082019050919050565b60006020820190508181036000830152620026fc81620026ba565b9050919050565b7f5468657265206973206e6f206d6f726520616c676f73206c6566740000000000600082015250565b60006200273b601b8362002378565b9150620027488262002703565b602082019050919050565b600060208201905081810360008301526200276e816200272c565b9050919050565b60006060820190506200278c600083018662002171565b6200279b60208301856200223b565b620027aa604083018462002171565b949350505050565b600081519050620027c381620021a4565b92915050565b600060208284031215620027e257620027e16200219f565b5b6000620027f284828501620027b2565b91505092915050565b600060408201905062002812600083018562002171565b6200282160208301846200223b565b9392505050565b60006080820190506200283f600083018762002171565b6200284e60208301866200223b565b6200285d604083018562002171565b6200286c606083018462002171565b95945050505050565b7f4e487b7100000000000000000000000000000000000000000000000000000000600052601260045260246000fd5b6000620028b18262002167565b9150620028be8362002167565b925082620028d157620028d062002875565b5b828204905092915050565b6000620028e9826200212f565b9150620028f6836200212f565b925082820262002906816200212f565b91507f80000000000000000000000000000000000000000000000000000000000000008414600084121615620029415762002940620024f6565b5b8282058414831517620029595762002958620024f6565b5b5092915050565b60006200296d826200212f565b91506200297a836200212f565b9250828203905081811260008412168282136000851215161715620029a457620029a3620024f6565b5b92915050565b6000604082019050620029c1600083018562002171565b620029d0602083018462002171565b9392505050565b6000620029e48262002167565b9150620029f18362002167565b925082820262002a018162002167565b9150828204841483151762002a1b5762002a1a620024f6565b5b5092915050565b600060408201905062002a3960008301856200223b565b62002a48602083018462002171565b9392505050565b62002a5a816200224c565b811462002a6657600080fd5b50565b60008151905062002a7a8162002a4f565b92915050565b60006020828403121562002a995762002a986200219f565b5b600062002aa98482850162002a69565b91505092915050565b600060608201905062002ac960008301866200223b565b62002ad860208301856200223b565b62002ae7604083018462002171565b949350505050565b600060608201905062002b06600083018662002171565b62002b15602083018562002171565b62002b24604083018462002171565b94935050505056fe60806040523480156200001157600080fd5b5060405162001ef038038062001ef0833981810160405281019062000037919062000805565b336040518060400160405280600a81526020017f4552433230546f6b656e000000000000000000000000000000000000000000008152506040518060400160405280600281526020017f45540000000000000000000000000000000000000000000000000000000000008152508160039081620000b5919062000abc565b508060049081620000c7919062000abc565b505050600073ffffffffffffffffffffffffffffffffffffffff168173ffffffffffffffffffffffffffffffffffffffff16036200013f5760006040517f1e4fbdf700000000000000000000000000000000000000000000000000000000815260040162000136919062000bb4565b60405180910390fd5b6200015081620001a860201b60201c565b506200017833670de0b6b3a7640000846200016c919062000c00565b6200026e60201b60201c565b6200019f81670de0b6b3a76400008462000193919062000c00565b620002fb60201b60201c565b50505062000cf1565b6000600560009054906101000a900473ffffffffffffffffffffffffffffffffffffffff16905081600560006101000a81548173ffffffffffffffffffffffffffffffffffffffff021916908373ffffffffffffffffffffffffffffffffffffffff1602179055508173ffffffffffffffffffffffffffffffffffffffff168173ffffffffffffffffffffffffffffffffffffffff167f8be0079c531659141344cd1fd0a4f28419497f9722a3daafe3b4186f6b6457e060405160405180910390a35050565b600073ffffffffffffffffffffffffffffffffffffffff168273ffffffffffffffffffffffffffffffffffffffff1603620002e35760006040517fec442f05000000000000000000000000000000000000000000000000000000008152600401620002da919062000bb4565b60405180910390fd5b620002f7600083836200032e60201b60201c565b5050565b6000806200030e6200055e60201b60201c565b9050620003238185856200056660201b60201c565b600191505092915050565b600073ffffffffffffffffffffffffffffffffffffffff168373ffffffffffffffffffffffffffffffffffffffff16036200038457806002600082825462000377919062000c4b565b925050819055506200045a565b60008060008573ffffffffffffffffffffffffffffffffffffffff1673ffffffffffffffffffffffffffffffffffffffff1681526020019081526020016000205490508181101562000413578381836040517fe450d38c0000000000000000000000000000000000000000000000000000000081526004016200040a9392919062000c97565b60405180910390fd5b8181036000808673ffffffffffffffffffffffffffffffffffffffff1673ffffffffffffffffffffffffffffffffffffffff16815260200190815260200160002081905550505b600073ffffffffffffffffffffffffffffffffffffffff168273ffffffffffffffffffffffffffffffffffffffff1603620004a55780600260008282540392505081905550620004f2565b806000808473ffffffffffffffffffffffffffffffffffffffff1673ffffffffffffffffffffffffffffffffffffffff168152602001908152602001600020600082825401925050819055505b8173ffffffffffffffffffffffffffffffffffffffff168373ffffffffffffffffffffffffffffffffffffffff167fddf252ad1be2c89b69c2b068fc378daa952ba7f163c4a11628f55a4df523b3ef8360405162000551919062000cd4565b60405180910390a3505050565b600033905090565b6200057b83838360016200058060201b60201c565b505050565b600073ffffffffffffffffffffffffffffffffffffffff168473ffffffffffffffffffffffffffffffffffffffff1603620005f55760006040517fe602df05000000000000000000000000000000000000000000000000000000008152600401620005ec919062000bb4565b60405180910390fd5b600073ffffffffffffffffffffffffffffffffffffffff168373ffffffffffffffffffffffffffffffffffffffff16036200066a5760006040517f94280d6200000000000000000000000000000000000000000000000000000000815260040162000661919062000bb4565b60405180910390fd5b81600160008673ffffffffffffffffffffffffffffffffffffffff1673ffffffffffffffffffffffffffffffffffffffff16815260200190815260200160002060008573ffffffffffffffffffffffffffffffffffffffff1673ffffffffffffffffffffffffffffffffffffffff1681526020019081526020016000208190555080156200075a578273ffffffffffffffffffffffffffffffffffffffff168473ffffffffffffffffffffffffffffffffffffffff167f8c5be1e5ebec7d5bd14f71427d1e84f3dd0314c0f7b2291e5b200ac8c7c3b9258460405162000751919062000cd4565b60405180910390a35b50505050565b600080fd5b6000819050919050565b6200077a8162000765565b81146200078657600080fd5b50565b6000815190506200079a816200076f565b92915050565b600073ffffffffffffffffffffffffffffffffffffffff82169050919050565b6000620007cd82620007a0565b9050919050565b620007df81620007c0565b8114620007eb57600080fd5b50565b600081519050620007ff81620007d4565b92915050565b600080604083850312156200081f576200081e62000760565b5b60006200082f8582860162000789565b92505060206200084285828601620007ee565b9150509250929050565b600081519050919050565b7f4e487b7100000000000000000000000000000000000000000000000000000000600052604160045260246000fd5b7f4e487b7100000000000000000000000000000000000000000000000000000000600052602260045260246000fd5b60006002820490506001821680620008ce57607f821691505b602082108103620008e457620008e362000886565b5b50919050565b60008190508160005260206000209050919050565b60006020601f8301049050919050565b600082821b905092915050565b6000600883026200094e7fffffffffffffffffffffffffffffffffffffffffffffffffffffffffffffffff826200090f565b6200095a86836200090f565b95508019841693508086168417925050509392505050565b6000819050919050565b60006200099d62000997620009918462000765565b62000972565b62000765565b9050919050565b6000819050919050565b620009b9836200097c565b620009d1620009c882620009a4565b8484546200091c565b825550505050565b600090565b620009e8620009d9565b620009f5818484620009ae565b505050565b5b8181101562000a1d5762000a11600082620009de565b600181019050620009fb565b5050565b601f82111562000a6c5762000a3681620008ea565b62000a4184620008ff565b8101602085101562000a51578190505b62000a6962000a6085620008ff565b830182620009fa565b50505b505050565b600082821c905092915050565b600062000a916000198460080262000a71565b1980831691505092915050565b600062000aac838362000a7e565b9150826002028217905092915050565b62000ac7826200084c565b67ffffffffffffffff81111562000ae35762000ae262000857565b5b62000aef8254620008b5565b62000afc82828562000a21565b600060209050601f83116001811462000b34576000841562000b1f578287015190505b62000b2b858262000a9e565b86555062000b9b565b601f19841662000b4486620008ea565b60005b8281101562000b6e5784890151825560018201915060208501945060208101905062000b47565b8683101562000b8e578489015162000b8a601f89168262000a7e565b8355505b6001600288020188555050505b505050505050565b62000bae81620007c0565b82525050565b600060208201905062000bcb600083018462000ba3565b92915050565b7f4e487b7100000000000000000000000000000000000000000000000000000000600052601160045260246000fd5b600062000c0d8262000765565b915062000c1a8362000765565b925082820262000c2a8162000765565b9150828204841483151762000c445762000c4362000bd1565b5b5092915050565b600062000c588262000765565b915062000c658362000765565b925082820190508082111562000c805762000c7f62000bd1565b5b92915050565b62000c918162000765565b82525050565b600060608201905062000cae600083018662000ba3565b62000cbd602083018562000c86565b62000ccc604083018462000c86565b949350505050565b600060208201905062000ceb600083018462000c86565b92915050565b6111ef8062000d016000396000f3fe608060405234801561001057600080fd5b50600436106100cf5760003560e01c8063715018a61161008c5780639dc29fac116100665780639dc29fac14610204578063a9059cbb14610220578063dd62ed3e14610250578063f2fde38b14610280576100cf565b8063715018a6146101be5780638da5cb5b146101c857806395d89b41146101e6576100cf565b806306fdde03146100d4578063095ea7b3146100f257806318160ddd1461012257806323b872dd14610140578063313ce5671461017057806370a082311461018e575b600080fd5b6100dc61029c565b6040516100e99190610e01565b60405180910390f35b61010c60048036038101906101079190610ebc565b61032e565b6040516101199190610f17565b60405180910390f35b61012a610351565b6040516101379190610f41565b60405180910390f35b61015a60048036038101906101559190610f5c565b61035b565b6040516101679190610f17565b60405180910390f35b61017861038a565b6040516101859190610fcb565b60405180910390f35b6101a860048036038101906101a39190610fe6565b610393565b6040516101b59190610f41565b60405180910390f35b6101c66103db565b005b6101d06103ef565b6040516101dd9190611022565b60405180910390f35b6101ee610419565b6040516101fb9190610e01565b60405180910390f35b61021e60048036038101906102199190610ebc565b6104ab565b005b61023a60048036038101906102359190610ebc565b6104d4565b6040516102479190610f17565b60405180910390f35b61026a6004803603810190610265919061103d565b6104f7565b6040516102779190610f41565b60405180910390f35b61029a60048036038101906102959190610fe6565b61057e565b005b6060600380546102ab906110ac565b80601f01602080910402602001604051908101604052809291908181526020018280546102d7906110ac565b80156103245780601f106102f957610100808354040283529160200191610324565b820191906000526020600020905b81548152906001019060200180831161030757829003601f168201915b5050505050905090565b600080610339610604565b905061034681858561060c565b600191505092915050565b6000600254905090565b600080610366610604565b905061037385828561061e565b61037e8585856106b2565b60019150509392505050565b60006012905090565b60008060008373ffffffffffffffffffffffffffffffffffffffff1673ffffffffffffffffffffffffffffffffffffffff168152602001908152602001600020549050919050565b6103e36107a6565b6103ed600061082d565b565b6000600560009054906101000a900473ffffffffffffffffffffffffffffffffffffffff16905090565b606060048054610428906110ac565b80601f0160208091040260200160405190810160405280929190818152602001828054610454906110ac565b80156104a15780601f10610476576101008083540402835291602001916104a1565b820191906000526020600020905b81548152906001019060200180831161048457829003601f168201915b5050505050905090565b6104b36107a6565b6104d082670de0b6b3a7640000836104cb919061110c565b6108f3565b5050565b6000806104df610604565b90506104ec8185856106b2565b600191505092915050565b6000600160008473ffffffffffffffffffffffffffffffffffffffff1673ffffffffffffffffffffffffffffffffffffffff16815260200190815260200160002060008373ffffffffffffffffffffffffffffffffffffffff1673ffffffffffffffffffffffffffffffffffffffff16815260200190815260200160002054905092915050565b6105866107a6565b600073ffffffffffffffffffffffffffffffffffffffff168173ffffffffffffffffffffffffffffffffffffffff16036105f85760006040517f1e4fbdf70000000000000000000000000000000000000000000000000000000081526004016105ef9190611022565b60405180910390fd5b6106018161082d565b50565b600033905090565b6106198383836001610975565b505050565b600061062a84846104f7565b90507fffffffffffffffffffffffffffffffffffffffffffffffffffffffffffffffff81146106ac578181101561069c578281836040517ffb8f41b20000000000000000000000000000000000000000000000000000000081526004016106939392919061114e565b60405180910390fd5b6106ab84848484036000610975565b5b50505050565b600073ffffffffffffffffffffffffffffffffffffffff168373ffffffffffffffffffffffffffffffffffffffff16036107245760006040517f96c6fd1e00000000000000000000000000000000000000000000000000000000815260040161071b9190611022565b60405180910390fd5b600073ffffffffffffffffffffffffffffffffffffffff168273ffffffffffffffffffffffffffffffffffffffff16036107965760006040517fec442f0500000000000000000000000000000000000000000000000000000000815260040161078d9190611022565b60405180910390fd5b6107a1838383610b4c565b505050565b6107ae610604565b73ffffffffffffffffffffffffffffffffffffffff166107cc6103ef565b73ffffffffffffffffffffffffffffffffffffffff161461082b576107ef610604565b6040517f118cdaa70000000000000000000000000000000000000000000000000000000081526004016108229190611022565b60405180910390fd5b565b6000600560009054906101000a900473ffffffffffffffffffffffffffffffffffffffff16905081600560006101000a81548173ffffffffffffffffffffffffffffffffffffffff021916908373ffffffffffffffffffffffffffffffffffffffff1602179055508173ffffffffffffffffffffffffffffffffffffffff168173ffffffffffffffffffffffffffffffffffffffff167f8be0079c531659141344cd1fd0a4f28419497f9722a3daafe3b4186f6b6457e060405160405180910390a35050565b600073ffffffffffffffffffffffffffffffffffffffff168273ffffffffffffffffffffffffffffffffffffffff16036109655760006040517f96c6fd1e00000000000000000000000000000000000000000000000000000000815260040161095c9190611022565b60405180910390fd5b61097182600083610b4c565b5050565b600073ffffffffffffffffffffffffffffffffffffffff168473ffffffffffffffffffffffffffffffffffffffff16036109e75760006040517fe602df050000000000000000000000000000000000000000000000000000000081526004016109de9190611022565b60405180910390fd5b600073ffffffffffffffffffffffffffffffffffffffff168373ffffffffffffffffffffffffffffffffffffffff1603610a595760006040517f94280d62000000000000000000000000000000000000000000000000000000008152600401610a509190611022565b60405180910390fd5b81600160008673ffffffffffffffffffffffffffffffffffffffff1673ffffffffffffffffffffffffffffffffffffffff16815260200190815260200160002060008573ffffffffffffffffffffffffffffffffffffffff1673ffffffffffffffffffffffffffffffffffffffff168152602001908152602001600020819055508015610b46578273ffffffffffffffffffffffffffffffffffffffff168473ffffffffffffffffffffffffffffffffffffffff167f8c5be1e5ebec7d5bd14f71427d1e84f3dd0314c0f7b2291e5b200ac8c7c3b92584604051610b3d9190610f41565b60405180910390a35b50505050565b600073ffffffffffffffffffffffffffffffffffffffff168373ffffffffffffffffffffffffffffffffffffffff1603610b9e578060026000828254610b929190611185565b92505081905550610c71565b60008060008573ffffffffffffffffffffffffffffffffffffffff1673ffffffffffffffffffffffffffffffffffffffff16815260200190815260200160002054905081811015610c2a578381836040517fe450d38c000000000000000000000000000000000000000000000000000000008152600401610c219392919061114e565b60405180910390fd5b8181036000808673ffffffffffffffffffffffffffffffffffffffff1673ffffffffffffffffffffffffffffffffffffffff16815260200190815260200160002081905550505b600073ffffffffffffffffffffffffffffffffffffffff168273ffffffffffffffffffffffffffffffffffffffff1603610cba5780600260008282540392505081905550610d07565b806000808473ffffffffffffffffffffffffffffffffffffffff1673ffffffffffffffffffffffffffffffffffffffff168152602001908152602001600020600082825401925050819055505b8173ffffffffffffffffffffffffffffffffffffffff168373ffffffffffffffffffffffffffffffffffffffff167fddf252ad1be2c89b69c2b068fc378daa952ba7f163c4a11628f55a4df523b3ef83604051610d649190610f41565b60405180910390a3505050565b600081519050919050565b600082825260208201905092915050565b60005b83811015610dab578082015181840152602081019050610d90565b60008484015250505050565b6000601f19601f8301169050919050565b6000610dd382610d71565b610ddd8185610d7c565b9350610ded818560208601610d8d565b610df681610db7565b840191505092915050565b60006020820190508181036000830152610e1b8184610dc8565b905092915050565b600080fd5b600073ffffffffffffffffffffffffffffffffffffffff82169050919050565b6000610e5382610e28565b9050919050565b610e6381610e48565b8114610e6e57600080fd5b50565b600081359050610e8081610e5a565b92915050565b6000819050919050565b610e9981610e86565b8114610ea457600080fd5b50565b600081359050610eb681610e90565b92915050565b60008060408385031215610ed357610ed2610e23565b5b6000610ee185828601610e71565b9250506020610ef285828601610ea7565b9150509250929050565b60008115159050919050565b610f1181610efc565b82525050565b6000602082019050610f2c6000830184610f08565b92915050565b610f3b81610e86565b82525050565b6000602082019050610f566000830184610f32565b92915050565b600080600060608486031215610f7557610f74610e23565b5b6000610f8386828701610e71565b9350506020610f9486828701610e71565b9250506040610fa586828701610ea7565b9150509250925092565b600060ff82169050919050565b610fc581610faf565b82525050565b6000602082019050610fe06000830184610fbc565b92915050565b600060208284031215610ffc57610ffb610e23565b5b600061100a84828501610e71565b91505092915050565b61101c81610e48565b82525050565b60006020820190506110376000830184611013565b92915050565b6000806040838503121561105457611053610e23565b5b600061106285828601610e71565b925050602061107385828601610e71565b9150509250929050565b7f4e487b7100000000000000000000000000000000000000000000000000000000600052602260045260246000fd5b600060028204905060018216806110c457607f821691505b6020821081036110d7576110d661107d565b5b50919050565b7f4e487b7100000000000000000000000000000000000000000000000000000000600052601160045260246000fd5b600061111782610e86565b915061112283610e86565b925082820261113081610e86565b91508282048414831517611147576111466110dd565b5b5092915050565b60006060820190506111636000830186611013565b6111706020830185610f32565b61117d6040830184610f32565b949350505050565b600061119082610e86565b915061119b83610e86565b92508282019050808211156111b3576111b26110dd565b5b9291505056fea2646970667358221220da64986efe334ff5837b986db8a789595ef8a676806085e4ac809b5c5513312f64736f6c63430008150033a26469706673582212203e9292efee73fcc76b7cf489c7224a7d52512ac8589e7e4e087e73e84ec4053764736f6c63430008150033",
  "linkReferences": {},
  "deployedLinkReferences": {}
}