{
  "_format": "hh-sol-artifact-1",
  "contractName": "Dutch_Auction",
  "sourceName": "contracts/Dutch_Auction.sol",
  "abi": [
    {
      "inputs": [
        {
          "internalType": "uint256",
          "name": "_reservePrice",
          "type": "uint256"
        },
        {
          "internalType": "uint256",
          "name": "_startPrice",
          "type": "uint256"
        }
      ],
      "stateMutability": "nonpayable",
      "type": "constructor"
    },
    {
      "inputs": [],
      "name": "Dutch_Auction__IsOwner",
      "type": "error"
    },
    {
      "inputs": [],
      "name": "Dutch_Auction__NotOpen",
      "type": "error"
    },
    {
      "inputs": [],
      "name": "Dutch_Auction__NotOwner",
      "type": "error"
    },
    {
      "inputs": [],
      "name": "Dutch_Auction__Open",
      "type": "error"
    },
    {
      "inputs": [],
      "name": "ReentrancyGuardReentrantCall",
      "type": "error"
    },
    {
      "anonymous": false,
      "inputs": [
        {
          "indexed": false,
          "internalType": "address",
          "name": "bidderAddress",
          "type": "address"
        },
        {
          "indexed": false,
          "internalType": "uint256",
          "name": "TokensPurchased",
          "type": "uint256"
        },
        {
          "indexed": false,
          "internalType": "uint256",
          "name": "refundValue",
          "type": "uint256"
        }
      ],
      "name": "RefundEvent",
      "type": "event"
    },
    {
      "anonymous": false,
      "inputs": [
        {
          "indexed": false,
          "internalType": "uint256",
          "name": "bidderID",
          "type": "uint256"
        },
        {
          "indexed": false,
          "internalType": "address",
          "name": "walletAddress",
          "type": "address"
        },
        {
          "indexed": false,
          "internalType": "uint256",
          "name": "bidvalue",
          "type": "uint256"
        }
      ],
      "name": "addBidderEvent",
      "type": "event"
    },
    {
      "anonymous": false,
      "inputs": [
        {
          "indexed": false,
          "internalType": "address",
          "name": "bidderAddress",
          "type": "address"
        },
        {
          "indexed": false,
          "internalType": "uint256",
          "name": "TokensPurchased",
          "type": "uint256"
        },
        {
          "indexed": false,
          "internalType": "uint256",
          "name": "refundValue",
          "type": "uint256"
        }
      ],
      "name": "calculateEvent",
      "type": "event"
    },
    {
      "anonymous": false,
      "inputs": [
        {
          "indexed": false,
          "internalType": "uint256",
          "name": "totalBidders",
          "type": "uint256"
        },
        {
          "indexed": false,
          "internalType": "uint256",
          "name": "burntERC20",
          "type": "uint256"
        },
        {
          "indexed": false,
          "internalType": "uint256",
          "name": "totalETHEarned",
          "type": "uint256"
        }
      ],
      "name": "endAuctionEvent",
      "type": "event"
    },
    {
      "anonymous": false,
      "inputs": [
        {
          "indexed": false,
          "internalType": "address",
          "name": "bidderAddress",
          "type": "address"
        },
        {
          "indexed": false,
          "internalType": "uint256",
          "name": "tokensSent",
          "type": "uint256"
        }
      ],
      "name": "sendTokenEvent",
      "type": "event"
    },
    {
      "anonymous": false,
      "inputs": [
        {
          "indexed": false,
          "internalType": "uint256",
          "name": "startTime",
          "type": "uint256"
        },
        {
          "indexed": false,
          "internalType": "address",
          "name": "ERC20Address",
          "type": "address"
        },
        {
          "indexed": false,
          "internalType": "uint256",
          "name": "totalAlgosAvailable",
          "type": "uint256"
        },
        {
          "indexed": false,
          "internalType": "uint256",
          "name": "changePerMin",
          "type": "uint256"
        }
      ],
      "name": "startAuctionEvent",
      "type": "event"
    },
    {
      "anonymous": false,
      "inputs": [
        {
          "indexed": false,
          "internalType": "uint256",
          "name": "timeElapsed",
          "type": "uint256"
        },
        {
          "indexed": false,
          "internalType": "uint256",
          "name": "currentprice",
          "type": "uint256"
        }
      ],
      "name": "updateCurrentPriceEvent",
      "type": "event"
    },
    {
      "stateMutability": "payable",
      "type": "fallback"
    },
    {
      "inputs": [],
      "name": "addBidder",
      "outputs": [],
      "stateMutability": "payable",
      "type": "function"
    },
    {
      "inputs": [
        {
          "internalType": "uint256",
          "name": "bidder",
          "type": "uint256"
        }
      ],
      "name": "balanceOfBidder",
      "outputs": [
        {
          "internalType": "uint256",
          "name": "",
          "type": "uint256"
        }
      ],
      "stateMutability": "view",
      "type": "function"
    },
    {
      "inputs": [
        {
          "internalType": "uint256",
          "name": "",
          "type": "uint256"
        }
      ],
      "name": "biddersList",
      "outputs": [
        {
          "internalType": "uint256",
          "name": "bidderID",
          "type": "uint256"
        },
        {
          "internalType": "address",
          "name": "walletAddress",
          "type": "address"
        },
        {
          "internalType": "uint256",
          "name": "bidValue",
          "type": "uint256"
        },
        {
          "internalType": "uint256",
          "name": "totalAlgosPurchased",
          "type": "uint256"
        },
        {
          "internalType": "uint256",
          "name": "refundEth",
          "type": "uint256"
        },
        {
          "internalType": "bool",
          "name": "isExist",
          "type": "bool"
        },
        {
          "internalType": "bool",
          "name": "tokenSent",
          "type": "bool"
        },
        {
          "internalType": "bool",
          "name": "ethRefunded",
          "type": "bool"
        }
      ],
      "stateMutability": "view",
      "type": "function"
    },
    {
      "inputs": [],
      "name": "calculate",
      "outputs": [],
      "stateMutability": "nonpayable",
      "type": "function"
    },
    {
      "inputs": [],
      "name": "endAuction",
      "outputs": [],
      "stateMutability": "nonpayable",
      "type": "function"
    },
    {
      "inputs": [],
      "name": "getAuctionState",
      "outputs": [
        {
          "internalType": "enum Dutch_Auction.AuctionState",
          "name": "",
          "type": "uint8"
        }
      ],
      "stateMutability": "view",
      "type": "function"
    },
    {
      "inputs": [
        {
          "internalType": "uint256",
          "name": "bidder",
          "type": "uint256"
        }
      ],
      "name": "getRefundState",
      "outputs": [
        {
          "internalType": "bool",
          "name": "",
          "type": "bool"
        }
      ],
      "stateMutability": "view",
      "type": "function"
    },
    {
      "inputs": [],
      "name": "getUnsoldAlgos",
      "outputs": [
        {
          "internalType": "uint256",
          "name": "",
          "type": "uint256"
        }
      ],
      "stateMutability": "view",
      "type": "function"
    },
    {
      "inputs": [],
      "name": "refundETH",
      "outputs": [],
      "stateMutability": "nonpayable",
      "type": "function"
    },
    {
      "inputs": [],
      "name": "retreiveContractER20Tokens",
      "outputs": [
        {
          "internalType": "uint256",
          "name": "",
          "type": "uint256"
        }
      ],
      "stateMutability": "view",
      "type": "function"
    },
    {
      "inputs": [
        {
          "internalType": "uint256",
          "name": "bidder",
          "type": "uint256"
        }
      ],
      "name": "retrieveBidderAlgos",
      "outputs": [
        {
          "internalType": "uint256",
          "name": "",
          "type": "uint256"
        }
      ],
      "stateMutability": "view",
      "type": "function"
    },
    {
      "inputs": [
        {
          "internalType": "uint256",
          "name": "bidder",
          "type": "uint256"
        }
      ],
      "name": "retrieveBidderBidValue",
      "outputs": [
        {
          "internalType": "uint256",
          "name": "",
          "type": "uint256"
        }
      ],
      "stateMutability": "view",
      "type": "function"
    },
    {
      "inputs": [],
      "name": "retrieveContractBalance",
      "outputs": [
        {
          "internalType": "uint256",
          "name": "",
          "type": "uint256"
        }
      ],
      "stateMutability": "view",
      "type": "function"
    },
    {
      "inputs": [],
      "name": "retrieveContractOwner",
      "outputs": [
        {
          "internalType": "address",
          "name": "",
          "type": "address"
        }
      ],
      "stateMutability": "view",
      "type": "function"
    },
    {
      "inputs": [],
      "name": "retrieveCurrentPrice",
      "outputs": [
        {
          "internalType": "int256",
          "name": "",
          "type": "int256"
        }
      ],
      "stateMutability": "view",
      "type": "function"
    },
    {
      "inputs": [
        {
          "internalType": "uint256",
          "name": "bidder",
          "type": "uint256"
        }
      ],
      "name": "retrieveRefund",
      "outputs": [
        {
          "internalType": "uint256",
          "name": "",
          "type": "uint256"
        }
      ],
      "stateMutability": "view",
      "type": "function"
    },
    {
      "inputs": [],
      "name": "retrieveReservePrice",
      "outputs": [
        {
          "internalType": "uint256",
          "name": "",
          "type": "uint256"
        }
      ],
      "stateMutability": "view",
      "type": "function"
    },
    {
      "inputs": [],
      "name": "retrieveTimeElapsed",
      "outputs": [
        {
          "internalType": "uint256",
          "name": "",
          "type": "uint256"
        }
      ],
      "stateMutability": "view",
      "type": "function"
    },
    {
      "inputs": [],
      "name": "retrieveTotalAlgos",
      "outputs": [
        {
          "internalType": "uint256",
          "name": "",
          "type": "uint256"
        }
      ],
      "stateMutability": "view",
      "type": "function"
    },
    {
      "inputs": [],
      "name": "retrieveTotalBidder",
      "outputs": [
        {
          "internalType": "uint256",
          "name": "",
          "type": "uint256"
        }
      ],
      "stateMutability": "view",
      "type": "function"
    },
    {
      "inputs": [],
      "name": "sendTokens",
      "outputs": [],
      "stateMutability": "nonpayable",
      "type": "function"
    },
    {
      "inputs": [
        {
          "internalType": "uint256",
          "name": "_totalAlgosAvailable",
          "type": "uint256"
        },
        {
          "internalType": "uint256",
          "name": "_changePerMin",
          "type": "uint256"
        }
      ],
      "name": "startAuction",
      "outputs": [],
      "stateMutability": "nonpayable",
      "type": "function"
    },
    {
      "inputs": [],
      "name": "updateCurrentPrice",
      "outputs": [],
      "stateMutability": "nonpayable",
      "type": "function"
    },
    {
      "stateMutability": "payable",
      "type": "receive"
    }
  ],
  "bytecode": "0x60e060405260006002556000600760006101000a81548160ff0219169083151502179055506000600760016101000a81548160ff0219169083151502179055506000600760026101000a81548160ff0219169083151502179055503480156200006757600080fd5b5060405162004ebd38038062004ebd83398181016040528101906200008d91906200019b565b6001600081905550808210620000da576040517f08c379a0000000000000000000000000000000000000000000000000000000008152600401620000d19062000269565b60405180910390fd5b3373ffffffffffffffffffffffffffffffffffffffff1660c08173ffffffffffffffffffffffffffffffffffffffff16815250508160a081815250508060018190555080608081815250506001600a60006101000a81548160ff021916908360018111156200014e576200014d6200028b565b5b02179055505050620002ba565b600080fd5b6000819050919050565b620001758162000160565b81146200018157600080fd5b50565b60008151905062000195816200016a565b92915050565b60008060408385031215620001b557620001b46200015b565b5b6000620001c58582860162000184565b9250506020620001d88582860162000184565b9150509250929050565b600082825260208201905092915050565b7f7265736572766520707269636520697320686967686572207468616e2063757260008201527f72656e7420707269636500000000000000000000000000000000000000000000602082015250565b600062000251602a83620001e2565b91506200025e82620001f3565b604082019050919050565b60006020820190508181036000830152620002848162000242565b9050919050565b7f4e487b7100000000000000000000000000000000000000000000000000000000600052602160045260246000fd5b60805160a05160c051614b6a62000353600039600081816105cb015281816109af01528181610a5d01528181610b0101528181611138015281816113f80152818161148601528181611536015281816117ab01528181611ab901528181611b4901528181611bd70152611fe7015260008181610a3501528181611705015261173201526000818161126e01526116c40152614b6a6000f3fe608060405260043610620001635760003560e01c806388a38ce911620000c7578063ca77ab651162000079578063ca77ab6514620004b6578063d5e7a54b14620004d0578063df3853061462000514578063e4655bca1462000544578063e47112bd1462000574578063fe67a54b146200058e576200016b565b806388a38ce91462000398578063a45b4abb14620003c8578063aa5cd178146200040c578063aa9d9bd6146200043c578063ac5ece6d1462000456578063c891607b1462000486576200016b565b80631f8cdb0411620001215780631f8cdb04146200025b5780632d21a3ed14620002675780633fa8578d14620002ab5780634fee13fc14620002f65780637ded653f146200032457806383634e1c1462000354576200016b565b806308bfc300146200016d5780630b324808146200019d57806312210e8a14620001cd57806314df33ac14620001e75780631f7320881462000217576200016b565b366200016b57005b005b3480156200017a57600080fd5b5062000185620005a8565b6040516200019491906200222a565b60405180910390f35b348015620001aa57600080fd5b50620001b5620005bf565b604051620001c4919062002262565b60405180910390f35b348015620001da57600080fd5b50620001e5620005c9565b005b348015620001f457600080fd5b50620001ff620009ab565b6040516200020e91906200229a565b60405180910390f35b3480156200022457600080fd5b506200024360048036038101906200023d9190620022ed565b62000a59565b6040516200025291906200229a565b60405180910390f35b6200026562000aff565b005b3480156200027457600080fd5b506200029360048036038101906200028d9190620022ed565b62000fc7565b604051620002a291906200229a565b60405180910390f35b348015620002b857600080fd5b50620002d76004803603810190620002d19190620022ed565b620010a7565b604051620002ed98979695949392919062002381565b60405180910390f35b3480156200030357600080fd5b506200032260048036038101906200031c91906200240f565b62001136565b005b3480156200033157600080fd5b506200033c620013f4565b6040516200034b91906200229a565b60405180910390f35b3480156200036157600080fd5b506200038060048036038101906200037a9190620022ed565b62001482565b6040516200038f91906200229a565b60405180910390f35b348015620003a557600080fd5b50620003b062001528565b604051620003bf91906200229a565b60405180910390f35b348015620003d557600080fd5b50620003f46004803603810190620003ee9190620022ed565b62001532565b6040516200040391906200229a565b60405180910390f35b3480156200041957600080fd5b5062000424620015d8565b6040516200043391906200229a565b60405180910390f35b3480156200044957600080fd5b506200045462001680565b005b3480156200046357600080fd5b506200046e620017a7565b6040516200047d919062002456565b60405180910390f35b3480156200049357600080fd5b506200049e620017cf565b604051620004ad91906200229a565b60405180910390f35b348015620004c357600080fd5b50620004ce62001806565b005b348015620004dd57600080fd5b50620004fc6004803603810190620004f69190620022ed565b62001a88565b6040516200050b919062002473565b60405180910390f35b3480156200052157600080fd5b506200052c62001ab5565b6040516200053b91906200229a565b60405180910390f35b3480156200055157600080fd5b506200055c62001b45565b6040516200056b91906200229a565b60405180910390f35b3480156200058157600080fd5b506200058c62001bd5565b005b3480156200059b57600080fd5b50620005a662001fe5565b005b6000600a60009054906101000a900460ff16905090565b6000600154905090565b7f000000000000000000000000000000000000000000000000000000000000000073ffffffffffffffffffffffffffffffffffffffff163373ffffffffffffffffffffffffffffffffffffffff16146200064f576040517fae4a21bc00000000000000000000000000000000000000000000000000000000815260040160405180910390fd5b600a60009054906101000a900460ff166001811115620006745762000673620021aa565b5b600060018111156200068b576200068a620021aa565b5b03620006c3576040517f6668065e00000000000000000000000000000000000000000000000000000000815260040160405180910390fd5b600760019054906101000a900460ff161562000716576040517f08c379a00000000000000000000000000000000000000000000000000000000081526004016200070d90620024f1565b60405180910390fd5b6001600760016101000a81548160ff02191690831515021790555060005b6002548110156200098d57600060096000838152602001908152602001600020600401541180156200077b5750600960008281526020019081526020016000206004015447115b1562000977576000600960008381526020019081526020016000206004015490506000600960008481526020019081526020016000206004018190555060016009600084815260200190815260200160002060050160026101000a81548160ff021916908315150217905550600081118015620007f757508047115b15620008e85760006009600084815260200190815260200160002060010160009054906101000a900473ffffffffffffffffffffffffffffffffffffffff1673ffffffffffffffffffffffffffffffffffffffff16826040516200085b9062002548565b60006040518083038185875af1925050503d80600081146200089a576040519150601f19603f3d011682016040523d82523d6000602084013e6200089f565b606091505b5050905080620008e6576040517f08c379a0000000000000000000000000000000000000000000000000000000008152600401620008dd90620025af565b60405180910390fd5b505b7fb24b09fd2e8e4d8904c3c26f3e935824e032891520ffda419dec9f086b0e1eea6009600084815260200190815260200160002060010160009054906101000a900473ffffffffffffffffffffffffffffffffffffffff166009600085815260200190815260200160002060030154836040516200096993929190620025d1565b60405180910390a160009050505b808062000984906200263d565b91505062000734565b506000600760016101000a81548160ff021916908315150217905550565b60007f000000000000000000000000000000000000000000000000000000000000000073ffffffffffffffffffffffffffffffffffffffff163373ffffffffffffffffffffffffffffffffffffffff161462000a33576040517fae4a21bc00000000000000000000000000000000000000000000000000000000815260040160405180910390fd5b7f0000000000000000000000000000000000000000000000000000000000000000905090565b60007f000000000000000000000000000000000000000000000000000000000000000073ffffffffffffffffffffffffffffffffffffffff163373ffffffffffffffffffffffffffffffffffffffff161462000ae1576040517fae4a21bc00000000000000000000000000000000000000000000000000000000815260040160405180910390fd5b60096000838152602001908152602001600020600201549050919050565b7f000000000000000000000000000000000000000000000000000000000000000073ffffffffffffffffffffffffffffffffffffffff163373ffffffffffffffffffffffffffffffffffffffff160362000b85576040517fc3fdc7c100000000000000000000000000000000000000000000000000000000815260040160405180910390fd5b600a60009054906101000a900460ff16600181111562000baa5762000ba9620021aa565b5b60018081111562000bc05762000bbf620021aa565b5b0362000bf8576040517f5de7a96600000000000000000000000000000000000000000000000000000000815260040160405180910390fd5b6000341162000c3e576040517f08c379a000000000000000000000000000000000000000000000000000000000815260040162000c3590620026da565b60405180910390fd5b62000c4862001806565b600154341162000c8f576040517f08c379a000000000000000000000000000000000000000000000000000000000815260040162000c86906200274c565b60405180910390fd5b6104b06004544262000ca291906200276e565b1062000ce5576040517f08c379a000000000000000000000000000000000000000000000000000000000815260040162000cdc90620027f9565b60405180910390fd5b60006005541162000d2d576040517f08c379a000000000000000000000000000000000000000000000000000000000815260040162000d24906200286b565b60405180910390fd5b600060096000600254815260200190815260200160002090506002548160000181905550338160010160006101000a81548173ffffffffffffffffffffffffffffffffffffffff021916908373ffffffffffffffffffffffffffffffffffffffff16021790555034816002018190555060018160050160006101000a81548160ff021916908315150217905550600081600301819055506000816004018190555060008160050160016101000a81548160ff02191690831515021790555060008160050160026101000a81548160ff02191690831515021790555080600960006002548152602001908152602001600020600082015481600001556001820160009054906101000a900473ffffffffffffffffffffffffffffffffffffffff168160010160006101000a81548173ffffffffffffffffffffffffffffffffffffffff021916908373ffffffffffffffffffffffffffffffffffffffff1602179055506002820154816002015560038201548160030155600482015481600401556005820160009054906101000a900460ff168160050160006101000a81548160ff0219169083151502179055506005820160019054906101000a900460ff168160050160016101000a81548160ff0219169083151502179055506005820160029054906101000a900460ff168160050160026101000a81548160ff0219169083151502179055509050507f6559452b5cf88e12990371c9441273d2dbb464fb7dd9cc4030551b86df924b6281600001548260010160009054906101000a900473ffffffffffffffffffffffffffffffffffffffff16836002015460405162000f98939291906200288d565b60405180910390a16002600081548092919062000fb5906200263d565b919050555062000fc462001806565b50565b6000600760039054906101000a900473ffffffffffffffffffffffffffffffffffffffff1673ffffffffffffffffffffffffffffffffffffffff166370a082316009600085815260200190815260200160002060010160009054906101000a900473ffffffffffffffffffffffffffffffffffffffff166040518263ffffffff1660e01b81526004016200105c919062002456565b602060405180830381865afa1580156200107a573d6000803e3d6000fd5b505050506040513d601f19601f82011682018060405250810190620010a09190620028e1565b9050919050565b60096020528060005260406000206000915090508060000154908060010160009054906101000a900473ffffffffffffffffffffffffffffffffffffffff16908060020154908060030154908060040154908060050160009054906101000a900460ff16908060050160019054906101000a900460ff16908060050160029054906101000a900460ff16905088565b7f000000000000000000000000000000000000000000000000000000000000000073ffffffffffffffffffffffffffffffffffffffff163373ffffffffffffffffffffffffffffffffffffffff1614620011bc576040517fae4a21bc00000000000000000000000000000000000000000000000000000000815260040160405180910390fd5b600a60009054906101000a900460ff166001811115620011e157620011e0620021aa565b5b60006001811115620011f857620011f7620021aa565b5b0362001230576040517f6668065e00000000000000000000000000000000000000000000000000000000815260040160405180910390fd5b6000600a60006101000a81548160ff02191690836001811115620012595762001258620021aa565b5b021790555081600381905550806006819055507f00000000000000000000000000000000000000000000000000000000000000006001819055508160058190555060006002819055504260048190555060035430604051620012bb906200219c565b620012c892919062002913565b604051809103906000f080158015620012e5573d6000803e3d6000fd5b50600760036101000a81548173ffffffffffffffffffffffffffffffffffffffff021916908373ffffffffffffffffffffffffffffffffffffffff160217905550600760039054906101000a900473ffffffffffffffffffffffffffffffffffffffff16600860006101000a81548173ffffffffffffffffffffffffffffffffffffffff021916908373ffffffffffffffffffffffffffffffffffffffff1602179055507f0f0eb7cc9cde5623ecdc8f18c7fe6bacab47ab80468f73b4d9b3d08ec7284af5600454600860009054906101000a900473ffffffffffffffffffffffffffffffffffffffff16600354600654604051620013e8949392919062002940565b60405180910390a15050565b60007f000000000000000000000000000000000000000000000000000000000000000073ffffffffffffffffffffffffffffffffffffffff163373ffffffffffffffffffffffffffffffffffffffff16146200147c576040517fae4a21bc00000000000000000000000000000000000000000000000000000000815260040160405180910390fd5b47905090565b60007f000000000000000000000000000000000000000000000000000000000000000073ffffffffffffffffffffffffffffffffffffffff163373ffffffffffffffffffffffffffffffffffffffff16146200150a576040517fae4a21bc00000000000000000000000000000000000000000000000000000000815260040160405180910390fd5b60096000838152602001908152602001600020600301549050919050565b6000600554905090565b60007f000000000000000000000000000000000000000000000000000000000000000073ffffffffffffffffffffffffffffffffffffffff163373ffffffffffffffffffffffffffffffffffffffff1614620015ba576040517fae4a21bc00000000000000000000000000000000000000000000000000000000815260040160405180910390fd5b60096000838152602001908152602001600020600401549050919050565b6000600760039054906101000a900473ffffffffffffffffffffffffffffffffffffffff1673ffffffffffffffffffffffffffffffffffffffff166370a08231306040518263ffffffff1660e01b815260040162001637919062002456565b602060405180830381865afa15801562001655573d6000803e3d6000fd5b505050506040513d601f19601f820116820180604052508101906200167b9190620028e1565b905090565b600760009054906101000a900460ff16620017a557600654603c60045442620016aa91906200276e565b620016b69190620029bc565b620016c29190620029f4565b7f0000000000000000000000000000000000000000000000000000000000000000620016ef919062002a78565b60018190555060006001541315806200172a57507f000000000000000000000000000000000000000000000000000000000000000060015413155b1562001758577f00000000000000000000000000000000000000000000000000000000000000006001819055505b7f7cda8554820ef0a356899263aefa9db86ab6966b7b823eda047b78c3afdfeb8e600454426200178991906200276e565b6001546040516200179c92919062002ac2565b60405180910390a15b565b60007f0000000000000000000000000000000000000000000000000000000000000000905090565b60008060045411156200180257603c60045442620017ee91906200276e565b620017fa9190620029bc565b905062001803565b5b90565b6200181062001680565b6000600354905060005b60025481101562001a1b5760015460096000838152602001908152602001600020600201546200184b9190620029bc565b8210620018e9576001546009600083815260200190815260200160002060020154620018789190620029bc565b60096000838152602001908152602001600020600301819055506001546009600083815260200190815260200160002060020154620018b89190620029bc565b82620018c591906200276e565b91506000600960008381526020019081526020016000206004018190555062001a05565b6000821180156200191e575060015460096000838152602001908152602001600020600201546200191b9190620029bc565b82105b15620019ac5781600960008381526020019081526020016000206003018190555060009150600154600960008381526020019081526020016000206003015462001969919062002aef565b60096000838152602001908152602001600020600201546200198c91906200276e565b600960008381526020019081526020016000206004018190555062001a04565b6000821162001a035760006009600083815260200190815260200160002060030181905550600960008281526020019081526020016000206002015460096000838152602001908152602001600020600401819055505b5b5b808062001a12906200263d565b9150506200181a565b50600081111562001a33578060058190555062001a85565b6001600a60006101000a81548160ff0219169083600181111562001a5c5762001a5b620021aa565b5b021790555060006005819055506001600760006101000a81548160ff0219169083151502179055505b50565b60006009600083815260200190815260200160002060050160029054906101000a900460ff169050919050565b60007f000000000000000000000000000000000000000000000000000000000000000073ffffffffffffffffffffffffffffffffffffffff163373ffffffffffffffffffffffffffffffffffffffff161462001b3d576040517fae4a21bc00000000000000000000000000000000000000000000000000000000815260040160405180910390fd5b600354905090565b60007f000000000000000000000000000000000000000000000000000000000000000073ffffffffffffffffffffffffffffffffffffffff163373ffffffffffffffffffffffffffffffffffffffff161462001bcd576040517fae4a21bc00000000000000000000000000000000000000000000000000000000815260040160405180910390fd5b600254905090565b7f000000000000000000000000000000000000000000000000000000000000000073ffffffffffffffffffffffffffffffffffffffff163373ffffffffffffffffffffffffffffffffffffffff161462001c5b576040517fae4a21bc00000000000000000000000000000000000000000000000000000000815260040160405180910390fd5b600a60009054906101000a900460ff16600181111562001c805762001c7f620021aa565b5b6000600181111562001c975762001c96620021aa565b5b0362001ccf576040517f6668065e00000000000000000000000000000000000000000000000000000000815260040160405180910390fd5b60005b60025481101562001fe2576000600960008381526020019081526020016000206003015411801562001d2557506009600082815260200190815260200160002060050160019054906101000a900460ff16155b1562001fcc57600060096000838152602001908152602001600020600301549050600760039054906101000a900473ffffffffffffffffffffffffffffffffffffffff1673ffffffffffffffffffffffffffffffffffffffff1663095ea7b36009600085815260200190815260200160002060010160009054906101000a900473ffffffffffffffffffffffffffffffffffffffff16670de0b6b3a76400008462001dd1919062002aef565b6040518363ffffffff1660e01b815260040162001df092919062002b3a565b6020604051808303816000875af115801562001e10573d6000803e3d6000fd5b505050506040513d601f19601f8201168201806040525081019062001e36919062002b98565b50600760039054906101000a900473ffffffffffffffffffffffffffffffffffffffff1673ffffffffffffffffffffffffffffffffffffffff166323b872dd306009600086815260200190815260200160002060010160009054906101000a900473ffffffffffffffffffffffffffffffffffffffff16670de0b6b3a76400008562001ec3919062002aef565b6040518463ffffffff1660e01b815260040162001ee39392919062002bca565b6020604051808303816000875af115801562001f03573d6000803e3d6000fd5b505050506040513d601f19601f8201168201806040525081019062001f29919062002b98565b507f039b13884cbcea684931b2bcff6faab7170693e1bc173e651e14168c890c70806009600084815260200190815260200160002060010160009054906101000a900473ffffffffffffffffffffffffffffffffffffffff168260405162001f9392919062002b3a565b60405180910390a160016009600084815260200190815260200160002060050160016101000a81548160ff021916908315150217905550505b808062001fd9906200263d565b91505062001cd2565b50565b7f000000000000000000000000000000000000000000000000000000000000000073ffffffffffffffffffffffffffffffffffffffff163373ffffffffffffffffffffffffffffffffffffffff16146200206b576040517fae4a21bc00000000000000000000000000000000000000000000000000000000815260040160405180910390fd5b6001600a60006101000a81548160ff02191690836001811115620020945762002093620021aa565b5b0217905550620020a362001806565b620020ad62001bd5565b620020b7620005c9565b600060055411156200215957600760039054906101000a900473ffffffffffffffffffffffffffffffffffffffff1673ffffffffffffffffffffffffffffffffffffffff16639dc29fac306005546040518363ffffffff1660e01b81526004016200212492919062002b3a565b600060405180830381600087803b1580156200213f57600080fd5b505af115801562002154573d6000803e3d6000fd5b505050505b7f99d9aed25b1415a4a35a1890d2ee6aa1db28f98ba8eff1de3d494a6af9dca77260025460055447604051620021929392919062002c07565b60405180910390a1565b611ef08062002c4583390190565b7f4e487b7100000000000000000000000000000000000000000000000000000000600052602160045260246000fd5b60028110620021ed57620021ec620021aa565b5b50565b60008190506200220082620021d9565b919050565b60006200221282620021f0565b9050919050565b620022248162002205565b82525050565b600060208201905062002241600083018462002219565b92915050565b6000819050919050565b6200225c8162002247565b82525050565b600060208201905062002279600083018462002251565b92915050565b6000819050919050565b62002294816200227f565b82525050565b6000602082019050620022b1600083018462002289565b92915050565b600080fd5b620022c7816200227f565b8114620022d357600080fd5b50565b600081359050620022e781620022bc565b92915050565b600060208284031215620023065762002305620022b7565b5b60006200231684828501620022d6565b91505092915050565b600073ffffffffffffffffffffffffffffffffffffffff82169050919050565b60006200234c826200231f565b9050919050565b6200235e816200233f565b82525050565b60008115159050919050565b6200237b8162002364565b82525050565b60006101008201905062002399600083018b62002289565b620023a8602083018a62002353565b620023b7604083018962002289565b620023c6606083018862002289565b620023d5608083018762002289565b620023e460a083018662002370565b620023f360c083018562002370565b6200240260e083018462002370565b9998505050505050505050565b60008060408385031215620024295762002428620022b7565b5b60006200243985828601620022d6565b92505060206200244c85828601620022d6565b9150509250929050565b60006020820190506200246d600083018462002353565b92915050565b60006020820190506200248a600083018462002370565b92915050565b600082825260208201905092915050565b7f4c6f636b2069732068656c642062792074686520636f6e747261637400000000600082015250565b6000620024d9601c8362002490565b9150620024e682620024a1565b602082019050919050565b600060208201905081810360008301526200250c81620024ca565b9050919050565b600081905092915050565b50565b60006200253060008362002513565b91506200253d826200251e565b600082019050919050565b6000620025558262002521565b9150819050919050565b7f4661696c656420746f2073656e64206574686572000000000000000000000000600082015250565b60006200259760148362002490565b9150620025a4826200255f565b602082019050919050565b60006020820190508181036000830152620025ca8162002588565b9050919050565b6000606082019050620025e8600083018662002353565b620025f7602083018562002289565b62002606604083018462002289565b949350505050565b7f4e487b7100000000000000000000000000000000000000000000000000000000600052601160045260246000fd5b60006200264a826200227f565b91507fffffffffffffffffffffffffffffffffffffffffffffffffffffffffffffffff82036200267f576200267e6200260e565b5b600182019050919050565b7f62696456616c7565206c657373207468616e2030000000000000000000000000600082015250565b6000620026c260148362002490565b9150620026cf826200268a565b602082019050919050565b60006020820190508181036000830152620026f581620026b3565b9050919050565b7f62696456616c7565206c657373207468616e2063757272656e74207072696365600082015250565b60006200273460208362002490565b91506200274182620026fc565b602082019050919050565b60006020820190508181036000830152620027678162002725565b9050919050565b60006200277b826200227f565b915062002788836200227f565b9250828203905081811115620027a357620027a26200260e565b5b92915050565b7f74696d6520697320757000000000000000000000000000000000000000000000600082015250565b6000620027e1600a8362002490565b9150620027ee82620027a9565b602082019050919050565b600060208201905081810360008301526200281481620027d2565b9050919050565b7f5468657265206973206e6f206d6f726520616c676f73206c6566740000000000600082015250565b600062002853601b8362002490565b915062002860826200281b565b602082019050919050565b60006020820190508181036000830152620028868162002844565b9050919050565b6000606082019050620028a4600083018662002289565b620028b3602083018562002353565b620028c2604083018462002289565b949350505050565b600081519050620028db81620022bc565b92915050565b600060208284031215620028fa57620028f9620022b7565b5b60006200290a84828501620028ca565b91505092915050565b60006040820190506200292a600083018562002289565b62002939602083018462002353565b9392505050565b600060808201905062002957600083018762002289565b62002966602083018662002353565b62002975604083018562002289565b62002984606083018462002289565b95945050505050565b7f4e487b7100000000000000000000000000000000000000000000000000000000600052601260045260246000fd5b6000620029c9826200227f565b9150620029d6836200227f565b925082620029e957620029e86200298d565b5b828204905092915050565b600062002a018262002247565b915062002a0e8362002247565b925082820262002a1e8162002247565b91507f8000000000000000000000000000000000000000000000000000000000000000841460008412161562002a595762002a586200260e565b5b828205841483151762002a715762002a706200260e565b5b5092915050565b600062002a858262002247565b915062002a928362002247565b925082820390508181126000841216828213600085121516171562002abc5762002abb6200260e565b5b92915050565b600060408201905062002ad9600083018562002289565b62002ae8602083018462002289565b9392505050565b600062002afc826200227f565b915062002b09836200227f565b925082820262002b19816200227f565b9150828204841483151762002b335762002b326200260e565b5b5092915050565b600060408201905062002b51600083018562002353565b62002b60602083018462002289565b9392505050565b62002b728162002364565b811462002b7e57600080fd5b50565b60008151905062002b928162002b67565b92915050565b60006020828403121562002bb15762002bb0620022b7565b5b600062002bc18482850162002b81565b91505092915050565b600060608201905062002be1600083018662002353565b62002bf0602083018562002353565b62002bff604083018462002289565b949350505050565b600060608201905062002c1e600083018662002289565b62002c2d602083018562002289565b62002c3c604083018462002289565b94935050505056fe60806040523480156200001157600080fd5b5060405162001ef038038062001ef0833981810160405281019062000037919062000805565b336040518060400160405280600a81526020017f4552433230546f6b656e000000000000000000000000000000000000000000008152506040518060400160405280600281526020017f45540000000000000000000000000000000000000000000000000000000000008152508160039081620000b5919062000abc565b508060049081620000c7919062000abc565b505050600073ffffffffffffffffffffffffffffffffffffffff168173ffffffffffffffffffffffffffffffffffffffff16036200013f5760006040517f1e4fbdf700000000000000000000000000000000000000000000000000000000815260040162000136919062000bb4565b60405180910390fd5b6200015081620001a860201b60201c565b506200017833670de0b6b3a7640000846200016c919062000c00565b6200026e60201b60201c565b6200019f81670de0b6b3a76400008462000193919062000c00565b620002fb60201b60201c565b50505062000cf1565b6000600560009054906101000a900473ffffffffffffffffffffffffffffffffffffffff16905081600560006101000a81548173ffffffffffffffffffffffffffffffffffffffff021916908373ffffffffffffffffffffffffffffffffffffffff1602179055508173ffffffffffffffffffffffffffffffffffffffff168173ffffffffffffffffffffffffffffffffffffffff167f8be0079c531659141344cd1fd0a4f28419497f9722a3daafe3b4186f6b6457e060405160405180910390a35050565b600073ffffffffffffffffffffffffffffffffffffffff168273ffffffffffffffffffffffffffffffffffffffff1603620002e35760006040517fec442f05000000000000000000000000000000000000000000000000000000008152600401620002da919062000bb4565b60405180910390fd5b620002f7600083836200032e60201b60201c565b5050565b6000806200030e6200055e60201b60201c565b9050620003238185856200056660201b60201c565b600191505092915050565b600073ffffffffffffffffffffffffffffffffffffffff168373ffffffffffffffffffffffffffffffffffffffff16036200038457806002600082825462000377919062000c4b565b925050819055506200045a565b60008060008573ffffffffffffffffffffffffffffffffffffffff1673ffffffffffffffffffffffffffffffffffffffff1681526020019081526020016000205490508181101562000413578381836040517fe450d38c0000000000000000000000000000000000000000000000000000000081526004016200040a9392919062000c97565b60405180910390fd5b8181036000808673ffffffffffffffffffffffffffffffffffffffff1673ffffffffffffffffffffffffffffffffffffffff16815260200190815260200160002081905550505b600073ffffffffffffffffffffffffffffffffffffffff168273ffffffffffffffffffffffffffffffffffffffff1603620004a55780600260008282540392505081905550620004f2565b806000808473ffffffffffffffffffffffffffffffffffffffff1673ffffffffffffffffffffffffffffffffffffffff168152602001908152602001600020600082825401925050819055505b8173ffffffffffffffffffffffffffffffffffffffff168373ffffffffffffffffffffffffffffffffffffffff167fddf252ad1be2c89b69c2b068fc378daa952ba7f163c4a11628f55a4df523b3ef8360405162000551919062000cd4565b60405180910390a3505050565b600033905090565b6200057b83838360016200058060201b60201c565b505050565b600073ffffffffffffffffffffffffffffffffffffffff168473ffffffffffffffffffffffffffffffffffffffff1603620005f55760006040517fe602df05000000000000000000000000000000000000000000000000000000008152600401620005ec919062000bb4565b60405180910390fd5b600073ffffffffffffffffffffffffffffffffffffffff168373ffffffffffffffffffffffffffffffffffffffff16036200066a5760006040517f94280d6200000000000000000000000000000000000000000000000000000000815260040162000661919062000bb4565b60405180910390fd5b81600160008673ffffffffffffffffffffffffffffffffffffffff1673ffffffffffffffffffffffffffffffffffffffff16815260200190815260200160002060008573ffffffffffffffffffffffffffffffffffffffff1673ffffffffffffffffffffffffffffffffffffffff1681526020019081526020016000208190555080156200075a578273ffffffffffffffffffffffffffffffffffffffff168473ffffffffffffffffffffffffffffffffffffffff167f8c5be1e5ebec7d5bd14f71427d1e84f3dd0314c0f7b2291e5b200ac8c7c3b9258460405162000751919062000cd4565b60405180910390a35b50505050565b600080fd5b6000819050919050565b6200077a8162000765565b81146200078657600080fd5b50565b6000815190506200079a816200076f565b92915050565b600073ffffffffffffffffffffffffffffffffffffffff82169050919050565b6000620007cd82620007a0565b9050919050565b620007df81620007c0565b8114620007eb57600080fd5b50565b600081519050620007ff81620007d4565b92915050565b600080604083850312156200081f576200081e62000760565b5b60006200082f8582860162000789565b92505060206200084285828601620007ee565b9150509250929050565b600081519050919050565b7f4e487b7100000000000000000000000000000000000000000000000000000000600052604160045260246000fd5b7f4e487b7100000000000000000000000000000000000000000000000000000000600052602260045260246000fd5b60006002820490506001821680620008ce57607f821691505b602082108103620008e457620008e362000886565b5b50919050565b60008190508160005260206000209050919050565b60006020601f8301049050919050565b600082821b905092915050565b6000600883026200094e7fffffffffffffffffffffffffffffffffffffffffffffffffffffffffffffffff826200090f565b6200095a86836200090f565b95508019841693508086168417925050509392505050565b6000819050919050565b60006200099d62000997620009918462000765565b62000972565b62000765565b9050919050565b6000819050919050565b620009b9836200097c565b620009d1620009c882620009a4565b8484546200091c565b825550505050565b600090565b620009e8620009d9565b620009f5818484620009ae565b505050565b5b8181101562000a1d5762000a11600082620009de565b600181019050620009fb565b5050565b601f82111562000a6c5762000a3681620008ea565b62000a4184620008ff565b8101602085101562000a51578190505b62000a6962000a6085620008ff565b830182620009fa565b50505b505050565b600082821c905092915050565b600062000a916000198460080262000a71565b1980831691505092915050565b600062000aac838362000a7e565b9150826002028217905092915050565b62000ac7826200084c565b67ffffffffffffffff81111562000ae35762000ae262000857565b5b62000aef8254620008b5565b62000afc82828562000a21565b600060209050601f83116001811462000b34576000841562000b1f578287015190505b62000b2b858262000a9e565b86555062000b9b565b601f19841662000b4486620008ea565b60005b8281101562000b6e5784890151825560018201915060208501945060208101905062000b47565b8683101562000b8e578489015162000b8a601f89168262000a7e565b8355505b6001600288020188555050505b505050505050565b62000bae81620007c0565b82525050565b600060208201905062000bcb600083018462000ba3565b92915050565b7f4e487b7100000000000000000000000000000000000000000000000000000000600052601160045260246000fd5b600062000c0d8262000765565b915062000c1a8362000765565b925082820262000c2a8162000765565b9150828204841483151762000c445762000c4362000bd1565b5b5092915050565b600062000c588262000765565b915062000c658362000765565b925082820190508082111562000c805762000c7f62000bd1565b5b92915050565b62000c918162000765565b82525050565b600060608201905062000cae600083018662000ba3565b62000cbd602083018562000c86565b62000ccc604083018462000c86565b949350505050565b600060208201905062000ceb600083018462000c86565b92915050565b6111ef8062000d016000396000f3fe608060405234801561001057600080fd5b50600436106100cf5760003560e01c8063715018a61161008c5780639dc29fac116100665780639dc29fac14610204578063a9059cbb14610220578063dd62ed3e14610250578063f2fde38b14610280576100cf565b8063715018a6146101be5780638da5cb5b146101c857806395d89b41146101e6576100cf565b806306fdde03146100d4578063095ea7b3146100f257806318160ddd1461012257806323b872dd14610140578063313ce5671461017057806370a082311461018e575b600080fd5b6100dc61029c565b6040516100e99190610e01565b60405180910390f35b61010c60048036038101906101079190610ebc565b61032e565b6040516101199190610f17565b60405180910390f35b61012a610351565b6040516101379190610f41565b60405180910390f35b61015a60048036038101906101559190610f5c565b61035b565b6040516101679190610f17565b60405180910390f35b61017861038a565b6040516101859190610fcb565b60405180910390f35b6101a860048036038101906101a39190610fe6565b610393565b6040516101b59190610f41565b60405180910390f35b6101c66103db565b005b6101d06103ef565b6040516101dd9190611022565b60405180910390f35b6101ee610419565b6040516101fb9190610e01565b60405180910390f35b61021e60048036038101906102199190610ebc565b6104ab565b005b61023a60048036038101906102359190610ebc565b6104d4565b6040516102479190610f17565b60405180910390f35b61026a6004803603810190610265919061103d565b6104f7565b6040516102779190610f41565b60405180910390f35b61029a60048036038101906102959190610fe6565b61057e565b005b6060600380546102ab906110ac565b80601f01602080910402602001604051908101604052809291908181526020018280546102d7906110ac565b80156103245780601f106102f957610100808354040283529160200191610324565b820191906000526020600020905b81548152906001019060200180831161030757829003601f168201915b5050505050905090565b600080610339610604565b905061034681858561060c565b600191505092915050565b6000600254905090565b600080610366610604565b905061037385828561061e565b61037e8585856106b2565b60019150509392505050565b60006012905090565b60008060008373ffffffffffffffffffffffffffffffffffffffff1673ffffffffffffffffffffffffffffffffffffffff168152602001908152602001600020549050919050565b6103e36107a6565b6103ed600061082d565b565b6000600560009054906101000a900473ffffffffffffffffffffffffffffffffffffffff16905090565b606060048054610428906110ac565b80601f0160208091040260200160405190810160405280929190818152602001828054610454906110ac565b80156104a15780601f10610476576101008083540402835291602001916104a1565b820191906000526020600020905b81548152906001019060200180831161048457829003601f168201915b5050505050905090565b6104b36107a6565b6104d082670de0b6b3a7640000836104cb919061110c565b6108f3565b5050565b6000806104df610604565b90506104ec8185856106b2565b600191505092915050565b6000600160008473ffffffffffffffffffffffffffffffffffffffff1673ffffffffffffffffffffffffffffffffffffffff16815260200190815260200160002060008373ffffffffffffffffffffffffffffffffffffffff1673ffffffffffffffffffffffffffffffffffffffff16815260200190815260200160002054905092915050565b6105866107a6565b600073ffffffffffffffffffffffffffffffffffffffff168173ffffffffffffffffffffffffffffffffffffffff16036105f85760006040517f1e4fbdf70000000000000000000000000000000000000000000000000000000081526004016105ef9190611022565b60405180910390fd5b6106018161082d565b50565b600033905090565b6106198383836001610975565b505050565b600061062a84846104f7565b90507fffffffffffffffffffffffffffffffffffffffffffffffffffffffffffffffff81146106ac578181101561069c578281836040517ffb8f41b20000000000000000000000000000000000000000000000000000000081526004016106939392919061114e565b60405180910390fd5b6106ab84848484036000610975565b5b50505050565b600073ffffffffffffffffffffffffffffffffffffffff168373ffffffffffffffffffffffffffffffffffffffff16036107245760006040517f96c6fd1e00000000000000000000000000000000000000000000000000000000815260040161071b9190611022565b60405180910390fd5b600073ffffffffffffffffffffffffffffffffffffffff168273ffffffffffffffffffffffffffffffffffffffff16036107965760006040517fec442f0500000000000000000000000000000000000000000000000000000000815260040161078d9190611022565b60405180910390fd5b6107a1838383610b4c565b505050565b6107ae610604565b73ffffffffffffffffffffffffffffffffffffffff166107cc6103ef565b73ffffffffffffffffffffffffffffffffffffffff161461082b576107ef610604565b6040517f118cdaa70000000000000000000000000000000000000000000000000000000081526004016108229190611022565b60405180910390fd5b565b6000600560009054906101000a900473ffffffffffffffffffffffffffffffffffffffff16905081600560006101000a81548173ffffffffffffffffffffffffffffffffffffffff021916908373ffffffffffffffffffffffffffffffffffffffff1602179055508173ffffffffffffffffffffffffffffffffffffffff168173ffffffffffffffffffffffffffffffffffffffff167f8be0079c531659141344cd1fd0a4f28419497f9722a3daafe3b4186f6b6457e060405160405180910390a35050565b600073ffffffffffffffffffffffffffffffffffffffff168273ffffffffffffffffffffffffffffffffffffffff16036109655760006040517f96c6fd1e00000000000000000000000000000000000000000000000000000000815260040161095c9190611022565b60405180910390fd5b61097182600083610b4c565b5050565b600073ffffffffffffffffffffffffffffffffffffffff168473ffffffffffffffffffffffffffffffffffffffff16036109e75760006040517fe602df050000000000000000000000000000000000000000000000000000000081526004016109de9190611022565b60405180910390fd5b600073ffffffffffffffffffffffffffffffffffffffff168373ffffffffffffffffffffffffffffffffffffffff1603610a595760006040517f94280d62000000000000000000000000000000000000000000000000000000008152600401610a509190611022565b60405180910390fd5b81600160008673ffffffffffffffffffffffffffffffffffffffff1673ffffffffffffffffffffffffffffffffffffffff16815260200190815260200160002060008573ffffffffffffffffffffffffffffffffffffffff1673ffffffffffffffffffffffffffffffffffffffff168152602001908152602001600020819055508015610b46578273ffffffffffffffffffffffffffffffffffffffff168473ffffffffffffffffffffffffffffffffffffffff167f8c5be1e5ebec7d5bd14f71427d1e84f3dd0314c0f7b2291e5b200ac8c7c3b92584604051610b3d9190610f41565b60405180910390a35b50505050565b600073ffffffffffffffffffffffffffffffffffffffff168373ffffffffffffffffffffffffffffffffffffffff1603610b9e578060026000828254610b929190611185565b92505081905550610c71565b60008060008573ffffffffffffffffffffffffffffffffffffffff1673ffffffffffffffffffffffffffffffffffffffff16815260200190815260200160002054905081811015610c2a578381836040517fe450d38c000000000000000000000000000000000000000000000000000000008152600401610c219392919061114e565b60405180910390fd5b8181036000808673ffffffffffffffffffffffffffffffffffffffff1673ffffffffffffffffffffffffffffffffffffffff16815260200190815260200160002081905550505b600073ffffffffffffffffffffffffffffffffffffffff168273ffffffffffffffffffffffffffffffffffffffff1603610cba5780600260008282540392505081905550610d07565b806000808473ffffffffffffffffffffffffffffffffffffffff1673ffffffffffffffffffffffffffffffffffffffff168152602001908152602001600020600082825401925050819055505b8173ffffffffffffffffffffffffffffffffffffffff168373ffffffffffffffffffffffffffffffffffffffff167fddf252ad1be2c89b69c2b068fc378daa952ba7f163c4a11628f55a4df523b3ef83604051610d649190610f41565b60405180910390a3505050565b600081519050919050565b600082825260208201905092915050565b60005b83811015610dab578082015181840152602081019050610d90565b60008484015250505050565b6000601f19601f8301169050919050565b6000610dd382610d71565b610ddd8185610d7c565b9350610ded818560208601610d8d565b610df681610db7565b840191505092915050565b60006020820190508181036000830152610e1b8184610dc8565b905092915050565b600080fd5b600073ffffffffffffffffffffffffffffffffffffffff82169050919050565b6000610e5382610e28565b9050919050565b610e6381610e48565b8114610e6e57600080fd5b50565b600081359050610e8081610e5a565b92915050565b6000819050919050565b610e9981610e86565b8114610ea457600080fd5b50565b600081359050610eb681610e90565b92915050565b60008060408385031215610ed357610ed2610e23565b5b6000610ee185828601610e71565b9250506020610ef285828601610ea7565b9150509250929050565b60008115159050919050565b610f1181610efc565b82525050565b6000602082019050610f2c6000830184610f08565b92915050565b610f3b81610e86565b82525050565b6000602082019050610f566000830184610f32565b92915050565b600080600060608486031215610f7557610f74610e23565b5b6000610f8386828701610e71565b9350506020610f9486828701610e71565b9250506040610fa586828701610ea7565b9150509250925092565b600060ff82169050919050565b610fc581610faf565b82525050565b6000602082019050610fe06000830184610fbc565b92915050565b600060208284031215610ffc57610ffb610e23565b5b600061100a84828501610e71565b91505092915050565b61101c81610e48565b82525050565b60006020820190506110376000830184611013565b92915050565b6000806040838503121561105457611053610e23565b5b600061106285828601610e71565b925050602061107385828601610e71565b9150509250929050565b7f4e487b7100000000000000000000000000000000000000000000000000000000600052602260045260246000fd5b600060028204905060018216806110c457607f821691505b6020821081036110d7576110d661107d565b5b50919050565b7f4e487b7100000000000000000000000000000000000000000000000000000000600052601160045260246000fd5b600061111782610e86565b915061112283610e86565b925082820261113081610e86565b91508282048414831517611147576111466110dd565b5b5092915050565b60006060820190506111636000830186611013565b6111706020830185610f32565b61117d6040830184610f32565b949350505050565b600061119082610e86565b915061119b83610e86565b92508282019050808211156111b3576111b26110dd565b5b9291505056fea2646970667358221220da64986efe334ff5837b986db8a789595ef8a676806085e4ac809b5c5513312f64736f6c63430008150033a26469706673582212202e2c4d7c6b4c6b6191f6e9d428e6ad274f25580026e07e5c9ebae25504b8c56364736f6c63430008150033",
  "linkReferences": {},
  "deployedLinkReferences": {}
}