{
  "_format": "hh-sol-artifact-1",
  "contractName": "Dutch_Auction",
  "sourceName": "contracts/Dutch_Auction.sol",
  "abi": [
    {
      "inputs": [
        {
          "internalType": "uint256",
          "name": "_reservePrice",
          "type": "uint256"
        },
        {
          "internalType": "uint256",
          "name": "_startPrice",
          "type": "uint256"
        }
      ],
      "stateMutability": "payable",
      "type": "constructor"
    },
    {
      "inputs": [],
      "name": "Dutch_Auction__IsOwner",
      "type": "error"
    },
    {
      "inputs": [],
      "name": "Dutch_Auction__NotOpen",
      "type": "error"
    },
    {
      "inputs": [],
      "name": "Dutch_Auction__NotOwner",
      "type": "error"
    },
    {
      "inputs": [],
      "name": "Dutch_Auction__Open",
      "type": "error"
    },
    {
      "inputs": [],
      "name": "ReentrancyGuardReentrantCall",
      "type": "error"
    },
    {
      "anonymous": false,
      "inputs": [
        {
          "indexed": false,
          "internalType": "address",
          "name": "bidderAddress",
          "type": "address"
        },
        {
          "indexed": false,
          "internalType": "uint256",
          "name": "TokensPurchased",
          "type": "uint256"
        },
        {
          "indexed": false,
          "internalType": "uint256",
          "name": "refundValue",
          "type": "uint256"
        }
      ],
      "name": "RefundEvent",
      "type": "event"
    },
    {
      "anonymous": false,
      "inputs": [
        {
          "indexed": false,
          "internalType": "uint256",
          "name": "bidderID",
          "type": "uint256"
        },
        {
          "indexed": false,
          "internalType": "address",
          "name": "walletAddress",
          "type": "address"
        },
        {
          "indexed": false,
          "internalType": "uint256",
          "name": "bidvalue",
          "type": "uint256"
        }
      ],
      "name": "addBidderEvent",
      "type": "event"
    },
    {
      "anonymous": false,
      "inputs": [
        {
          "indexed": false,
          "internalType": "address",
          "name": "bidderAddress",
          "type": "address"
        },
        {
          "indexed": false,
          "internalType": "uint256",
          "name": "TokensPurchased",
          "type": "uint256"
        },
        {
          "indexed": false,
          "internalType": "uint256",
          "name": "refundValue",
          "type": "uint256"
        }
      ],
      "name": "calculateEvent",
      "type": "event"
    },
    {
      "anonymous": false,
      "inputs": [
        {
          "indexed": false,
          "internalType": "uint256",
          "name": "totalBidders",
          "type": "uint256"
        },
        {
          "indexed": false,
          "internalType": "uint256",
          "name": "burntERC20",
          "type": "uint256"
        },
        {
          "indexed": false,
          "internalType": "uint256",
          "name": "totalETHEarned",
          "type": "uint256"
        }
      ],
      "name": "endAuctionEvent",
      "type": "event"
    },
    {
      "anonymous": false,
      "inputs": [
        {
          "indexed": false,
          "internalType": "address",
          "name": "bidderAddress",
          "type": "address"
        },
        {
          "indexed": false,
          "internalType": "uint256",
          "name": "tokensSent",
          "type": "uint256"
        }
      ],
      "name": "sendTokenEvent",
      "type": "event"
    },
    {
      "anonymous": false,
      "inputs": [
        {
          "indexed": false,
          "internalType": "uint256",
          "name": "startTime",
          "type": "uint256"
        },
        {
          "indexed": false,
          "internalType": "address",
          "name": "ERC20Address",
          "type": "address"
        },
        {
          "indexed": false,
          "internalType": "uint256",
          "name": "totalAlgosAvailable",
          "type": "uint256"
        },
        {
          "indexed": false,
          "internalType": "uint256",
          "name": "changePerMin",
          "type": "uint256"
        }
      ],
      "name": "startAuctionEvent",
      "type": "event"
    },
    {
      "anonymous": false,
      "inputs": [
        {
          "indexed": false,
          "internalType": "uint256",
          "name": "timeElapsed",
          "type": "uint256"
        },
        {
          "indexed": false,
          "internalType": "uint256",
          "name": "currentprice",
          "type": "uint256"
        }
      ],
      "name": "updateCurrentPriceEvent",
      "type": "event"
    },
    {
      "stateMutability": "payable",
      "type": "fallback"
    },
    {
      "inputs": [],
      "name": "addBidder",
      "outputs": [],
      "stateMutability": "payable",
      "type": "function"
    },
    {
      "inputs": [
        {
          "internalType": "uint256",
          "name": "bidder",
          "type": "uint256"
        }
      ],
      "name": "balanceOfBidder",
      "outputs": [
        {
          "internalType": "uint256",
          "name": "",
          "type": "uint256"
        }
      ],
      "stateMutability": "view",
      "type": "function"
    },
    {
      "inputs": [
        {
          "internalType": "uint256",
          "name": "",
          "type": "uint256"
        }
      ],
      "name": "biddersList",
      "outputs": [
        {
          "internalType": "uint256",
          "name": "bidderID",
          "type": "uint256"
        },
        {
          "internalType": "address",
          "name": "walletAddress",
          "type": "address"
        },
        {
          "internalType": "uint256",
          "name": "bidValue",
          "type": "uint256"
        },
        {
          "internalType": "uint256",
          "name": "totalAlgosPurchased",
          "type": "uint256"
        },
        {
          "internalType": "uint256",
          "name": "refundEth",
          "type": "uint256"
        },
        {
          "internalType": "bool",
          "name": "isExist",
          "type": "bool"
        },
        {
          "internalType": "bool",
          "name": "tokenSent",
          "type": "bool"
        },
        {
          "internalType": "bool",
          "name": "ethRefunded",
          "type": "bool"
        }
      ],
      "stateMutability": "view",
      "type": "function"
    },
    {
      "inputs": [],
      "name": "calculate",
      "outputs": [],
      "stateMutability": "nonpayable",
      "type": "function"
    },
    {
      "inputs": [],
      "name": "endAuction",
      "outputs": [],
      "stateMutability": "nonpayable",
      "type": "function"
    },
    {
      "inputs": [],
      "name": "getAuctionState",
      "outputs": [
        {
          "internalType": "enum Dutch_Auction.AuctionState",
          "name": "",
          "type": "uint8"
        }
      ],
      "stateMutability": "view",
      "type": "function"
    },
    {
      "inputs": [
        {
          "internalType": "uint256",
          "name": "bidder",
          "type": "uint256"
        }
      ],
      "name": "getRefundState",
      "outputs": [
        {
          "internalType": "bool",
          "name": "",
          "type": "bool"
        }
      ],
      "stateMutability": "view",
      "type": "function"
    },
    {
      "inputs": [],
      "name": "refundETH",
      "outputs": [],
      "stateMutability": "nonpayable",
      "type": "function"
    },
    {
      "inputs": [
        {
          "internalType": "uint256",
          "name": "bidder",
          "type": "uint256"
        }
      ],
      "name": "retrieveBidderAlgos",
      "outputs": [
        {
          "internalType": "uint256",
          "name": "",
          "type": "uint256"
        }
      ],
      "stateMutability": "view",
      "type": "function"
    },
    {
      "inputs": [
        {
          "internalType": "uint256",
          "name": "bidder",
          "type": "uint256"
        }
      ],
      "name": "retrieveBidderBidValue",
      "outputs": [
        {
          "internalType": "uint256",
          "name": "",
          "type": "uint256"
        }
      ],
      "stateMutability": "view",
      "type": "function"
    },
    {
      "inputs": [],
      "name": "retrieveContractBalance",
      "outputs": [
        {
          "internalType": "uint256",
          "name": "",
          "type": "uint256"
        }
      ],
      "stateMutability": "view",
      "type": "function"
    },
    {
      "inputs": [],
      "name": "retrieveContractOwner",
      "outputs": [
        {
          "internalType": "address",
          "name": "",
          "type": "address"
        }
      ],
      "stateMutability": "view",
      "type": "function"
    },
    {
      "inputs": [],
      "name": "retrieveCurrentPrice",
      "outputs": [
        {
          "internalType": "int256",
          "name": "",
          "type": "int256"
        }
      ],
      "stateMutability": "view",
      "type": "function"
    },
    {
      "inputs": [
        {
          "internalType": "uint256",
          "name": "bidder",
          "type": "uint256"
        }
      ],
      "name": "retrieveRefund",
      "outputs": [
        {
          "internalType": "uint256",
          "name": "",
          "type": "uint256"
        }
      ],
      "stateMutability": "view",
      "type": "function"
    },
    {
      "inputs": [],
      "name": "retrieveReservePrice",
      "outputs": [
        {
          "internalType": "uint256",
          "name": "",
          "type": "uint256"
        }
      ],
      "stateMutability": "view",
      "type": "function"
    },
    {
      "inputs": [],
      "name": "retrieveTotalAlgos",
      "outputs": [
        {
          "internalType": "uint256",
          "name": "",
          "type": "uint256"
        }
      ],
      "stateMutability": "view",
      "type": "function"
    },
    {
      "inputs": [],
      "name": "retrieveTotalBidder",
      "outputs": [
        {
          "internalType": "uint256",
          "name": "",
          "type": "uint256"
        }
      ],
      "stateMutability": "view",
      "type": "function"
    },
    {
      "inputs": [],
      "name": "sendTokens",
      "outputs": [],
      "stateMutability": "nonpayable",
      "type": "function"
    },
    {
      "inputs": [
        {
          "internalType": "uint256",
          "name": "_totalAlgosAvailable",
          "type": "uint256"
        },
        {
          "internalType": "uint256",
          "name": "_changePerMin",
          "type": "uint256"
        }
      ],
      "name": "startAuction",
      "outputs": [
        {
          "internalType": "address",
          "name": "",
          "type": "address"
        }
      ],
      "stateMutability": "nonpayable",
      "type": "function"
    },
    {
      "inputs": [],
      "name": "updateCurrentPrice",
      "outputs": [],
      "stateMutability": "nonpayable",
      "type": "function"
    },
    {
      "stateMutability": "payable",
      "type": "receive"
    }
  ],
  "bytecode": "0x60e060405260006002556000600760006101000a81548160ff0219169083151502179055506040516200482a3803806200482a833981810160405281019062000049919062000157565b600160008190555080821062000096576040517f08c379a00000000000000000000000000000000000000000000000000000000081526004016200008d9062000225565b60405180910390fd5b3373ffffffffffffffffffffffffffffffffffffffff1660c08173ffffffffffffffffffffffffffffffffffffffff16815250508160a081815250508060018190555080608081815250506001600a60006101000a81548160ff021916908360018111156200010a576200010962000247565b5b0217905550505062000276565b600080fd5b6000819050919050565b62000131816200011c565b81146200013d57600080fd5b50565b600081519050620001518162000126565b92915050565b6000806040838503121562000171576200017062000117565b5b6000620001818582860162000140565b9250506020620001948582860162000140565b9150509250929050565b600082825260208201905092915050565b7f7265736572766520707269636520697320686967686572207468616e2063757260008201527f72656e7420707269636500000000000000000000000000000000000000000000602082015250565b60006200020d602a836200019e565b91506200021a82620001af565b604082019050919050565b600060208201905081810360008301526200024081620001fe565b9050919050565b7f4e487b7100000000000000000000000000000000000000000000000000000000600052602160045260246000fd5b60805160a05160c051614530620002fa600039600081816106f2015281816107a00152818161084401528181610e3601528181611115015281816111a301528181611249015281816114160152818161178c015261181c01526000818161077801528181611370015261139d015260008181610f6c015261132f01526145306000f3fe6080604052600436106200013f5760003560e01c806383634e1c11620000af578063d5e7a54b116200006d578063d5e7a54b1462000432578063df3853061462000476578063e4655bca14620004a6578063e47112bd14620004d6578063fe67a54b14620004f05762000147565b806383634e1c1462000346578063a45b4abb146200038a578063aa9d9bd614620003ce578063ac5ece6d14620003e8578063ca77ab6514620004185762000147565b80631f8cdb0411620000fd5780631f8cdb0414620002375780632d21a3ed14620002435780633fa8578d14620002875780634fee13fc14620002d25780637ded653f14620003165762000147565b806308bfc30014620001495780630b324808146200017957806312210e8a14620001a957806314df33ac14620001c35780631f73208814620001f35762000147565b366200014757005b005b3480156200015657600080fd5b50620001616200050a565b60405162000170919062001d46565b60405180910390f35b3480156200018657600080fd5b506200019162000521565b604051620001a0919062001d7e565b60405180910390f35b348015620001b657600080fd5b50620001c16200052b565b005b348015620001d057600080fd5b50620001db620006ee565b604051620001ea919062001db6565b60405180910390f35b3480156200020057600080fd5b506200021f600480360381019062000219919062001e09565b6200079c565b6040516200022e919062001db6565b60405180910390f35b6200024162000842565b005b3480156200025057600080fd5b506200026f600480360381019062000269919062001e09565b62000cc3565b6040516200027e919062001db6565b60405180910390f35b3480156200029457600080fd5b50620002b36004803603810190620002ad919062001e09565b62000da3565b604051620002c998979695949392919062001e9d565b60405180910390f35b348015620002df57600080fd5b50620002fe6004803603810190620002f8919062001f2b565b62000e32565b6040516200030d919062001f72565b60405180910390f35b3480156200032357600080fd5b506200032e62001111565b6040516200033d919062001db6565b60405180910390f35b3480156200035357600080fd5b506200037260048036038101906200036c919062001e09565b6200119f565b60405162000381919062001db6565b60405180910390f35b3480156200039757600080fd5b50620003b66004803603810190620003b0919062001e09565b62001245565b604051620003c5919062001db6565b60405180910390f35b348015620003db57600080fd5b50620003e6620012eb565b005b348015620003f557600080fd5b506200040062001412565b6040516200040f919062001f72565b60405180910390f35b3480156200042557600080fd5b50620004306200143a565b005b3480156200043f57600080fd5b506200045e600480360381019062000458919062001e09565b6200175b565b6040516200046d919062001f8f565b60405180910390f35b3480156200048357600080fd5b506200048e62001788565b6040516200049d919062001db6565b60405180910390f35b348015620004b357600080fd5b50620004be62001818565b604051620004cd919062001db6565b60405180910390f35b348015620004e357600080fd5b50620004ee620018a8565b005b348015620004fd57600080fd5b506200050862001b87565b005b6000600a60009054906101000a900460ff16905090565b6000600154905090565b60005b600254811015620006eb5760006009600083815260200190815260200160002060040154118015620005755750600960008281526020019081526020016000206004015447115b8015620005825750600047115b15620006d55760006009600083815260200190815260200160002060040154905060006009600084815260200190815260200160002060010160009054906101000a900473ffffffffffffffffffffffffffffffffffffffff1673ffffffffffffffffffffffffffffffffffffffff1682604051620006019062001fe1565b60006040518083038185875af1925050503d806000811462000640576040519150601f19603f3d011682016040523d82523d6000602084013e62000645565b606091505b505090507fb24b09fd2e8e4d8904c3c26f3e935824e032891520ffda419dec9f086b0e1eea6009600085815260200190815260200160002060010160009054906101000a900473ffffffffffffffffffffffffffffffffffffffff16600960008681526020019081526020016000206003015484604051620006ca9392919062001ff8565b60405180910390a150505b8080620006e29062002064565b9150506200052e565b50565b60007f000000000000000000000000000000000000000000000000000000000000000073ffffffffffffffffffffffffffffffffffffffff163373ffffffffffffffffffffffffffffffffffffffff161462000776576040517fae4a21bc00000000000000000000000000000000000000000000000000000000815260040160405180910390fd5b7f0000000000000000000000000000000000000000000000000000000000000000905090565b60007f000000000000000000000000000000000000000000000000000000000000000073ffffffffffffffffffffffffffffffffffffffff163373ffffffffffffffffffffffffffffffffffffffff161462000824576040517fae4a21bc00000000000000000000000000000000000000000000000000000000815260040160405180910390fd5b60096000838152602001908152602001600020600201549050919050565b7f000000000000000000000000000000000000000000000000000000000000000073ffffffffffffffffffffffffffffffffffffffff163373ffffffffffffffffffffffffffffffffffffffff1603620008c8576040517fc3fdc7c100000000000000000000000000000000000000000000000000000000815260040160405180910390fd5b600a60009054906101000a900460ff166001811115620008ed57620008ec62001cc6565b5b60018081111562000903576200090262001cc6565b5b036200093b576040517f5de7a96600000000000000000000000000000000000000000000000000000000815260040160405180910390fd5b6000341162000981576040517f08c379a0000000000000000000000000000000000000000000000000000000008152600401620009789062002112565b60405180910390fd5b6200098b6200143a565b6104b0600454426200099e919062002134565b10620009e1576040517f08c379a0000000000000000000000000000000000000000000000000000000008152600401620009d890620021bf565b60405180910390fd5b60006005541162000a29576040517f08c379a000000000000000000000000000000000000000000000000000000000815260040162000a209062002231565b60405180910390fd5b600060096000600254815260200190815260200160002090506002548160000181905550338160010160006101000a81548173ffffffffffffffffffffffffffffffffffffffff021916908373ffffffffffffffffffffffffffffffffffffffff16021790555034816002018190555060018160050160006101000a81548160ff021916908315150217905550600081600301819055506000816004018190555060008160050160016101000a81548160ff02191690831515021790555060008160050160026101000a81548160ff02191690831515021790555080600960006002548152602001908152602001600020600082015481600001556001820160009054906101000a900473ffffffffffffffffffffffffffffffffffffffff168160010160006101000a81548173ffffffffffffffffffffffffffffffffffffffff021916908373ffffffffffffffffffffffffffffffffffffffff1602179055506002820154816002015560038201548160030155600482015481600401556005820160009054906101000a900460ff168160050160006101000a81548160ff0219169083151502179055506005820160019054906101000a900460ff168160050160016101000a81548160ff0219169083151502179055506005820160029054906101000a900460ff168160050160026101000a81548160ff0219169083151502179055509050507f6559452b5cf88e12990371c9441273d2dbb464fb7dd9cc4030551b86df924b6281600001548260010160009054906101000a900473ffffffffffffffffffffffffffffffffffffffff16836002015460405162000c949392919062002253565b60405180910390a16002600081548092919062000cb19062002064565b919050555062000cc06200143a565b50565b6000600760019054906101000a900473ffffffffffffffffffffffffffffffffffffffff1673ffffffffffffffffffffffffffffffffffffffff166370a082316009600085815260200190815260200160002060010160009054906101000a900473ffffffffffffffffffffffffffffffffffffffff166040518263ffffffff1660e01b815260040162000d58919062001f72565b602060405180830381865afa15801562000d76573d6000803e3d6000fd5b505050506040513d601f19601f8201168201806040525081019062000d9c9190620022a7565b9050919050565b60096020528060005260406000206000915090508060000154908060010160009054906101000a900473ffffffffffffffffffffffffffffffffffffffff16908060020154908060030154908060040154908060050160009054906101000a900460ff16908060050160019054906101000a900460ff16908060050160029054906101000a900460ff16905088565b60007f000000000000000000000000000000000000000000000000000000000000000073ffffffffffffffffffffffffffffffffffffffff163373ffffffffffffffffffffffffffffffffffffffff161462000eba576040517fae4a21bc00000000000000000000000000000000000000000000000000000000815260040160405180910390fd5b600a60009054906101000a900460ff16600181111562000edf5762000ede62001cc6565b5b6000600181111562000ef65762000ef562001cc6565b5b0362000f2e576040517f6668065e00000000000000000000000000000000000000000000000000000000815260040160405180910390fd5b6000600a60006101000a81548160ff0219169083600181111562000f575762000f5662001cc6565b5b021790555082600381905550816006819055507f000000000000000000000000000000000000000000000000000000000000000060018190555082600581905550426004819055506003543060405162000fb19062001cb8565b62000fbe929190620022d9565b604051809103906000f08015801562000fdb573d6000803e3d6000fd5b50600760016101000a81548173ffffffffffffffffffffffffffffffffffffffff021916908373ffffffffffffffffffffffffffffffffffffffff160217905550600760019054906101000a900473ffffffffffffffffffffffffffffffffffffffff16600860006101000a81548173ffffffffffffffffffffffffffffffffffffffff021916908373ffffffffffffffffffffffffffffffffffffffff1602179055507f0f0eb7cc9cde5623ecdc8f18c7fe6bacab47ab80468f73b4d9b3d08ec7284af5600454600860009054906101000a900473ffffffffffffffffffffffffffffffffffffffff16600354600654604051620010de949392919062002306565b60405180910390a1600860009054906101000a900473ffffffffffffffffffffffffffffffffffffffff16905092915050565b60007f000000000000000000000000000000000000000000000000000000000000000073ffffffffffffffffffffffffffffffffffffffff163373ffffffffffffffffffffffffffffffffffffffff161462001199576040517fae4a21bc00000000000000000000000000000000000000000000000000000000815260040160405180910390fd5b47905090565b60007f000000000000000000000000000000000000000000000000000000000000000073ffffffffffffffffffffffffffffffffffffffff163373ffffffffffffffffffffffffffffffffffffffff161462001227576040517fae4a21bc00000000000000000000000000000000000000000000000000000000815260040160405180910390fd5b60096000838152602001908152602001600020600301549050919050565b60007f000000000000000000000000000000000000000000000000000000000000000073ffffffffffffffffffffffffffffffffffffffff163373ffffffffffffffffffffffffffffffffffffffff1614620012cd576040517fae4a21bc00000000000000000000000000000000000000000000000000000000815260040160405180910390fd5b60096000838152602001908152602001600020600401549050919050565b600760009054906101000a900460ff166200141057600654603c6004544262001315919062002134565b62001321919062002382565b6200132d9190620023ba565b7f00000000000000000000000000000000000000000000000000000000000000006200135a91906200243e565b60018190555060006001541315806200139557507f000000000000000000000000000000000000000000000000000000000000000060015413155b15620013c3577f00000000000000000000000000000000000000000000000000000000000000006001819055505b7f7cda8554820ef0a356899263aefa9db86ab6966b7b823eda047b78c3afdfeb8e60045442620013f4919062002134565b6001546040516200140792919062002488565b60405180910390a15b565b60007f0000000000000000000000000000000000000000000000000000000000000000905090565b62001444620012eb565b6000600354905060005b600254811015620016ee5760015460096000838152602001908152602001600020600201546200147f919062002382565b82106200151d576001546009600083815260200190815260200160002060020154620014ac919062002382565b60096000838152602001908152602001600020600301819055506001546009600083815260200190815260200160002060020154620014ec919062002382565b82620014f9919062002134565b91506000600960008381526020019081526020016000206004018190555062001639565b60008211801562001552575060015460096000838152602001908152602001600020600201546200154f919062002382565b82105b15620015e0578160096000838152602001908152602001600020600301819055506000915060015460096000838152602001908152602001600020600301546200159d9190620024b5565b6009600083815260200190815260200160002060020154620015c0919062002134565b600960008381526020019081526020016000206004018190555062001638565b60008211620016375760006009600083815260200190815260200160002060030181905550600960008281526020019081526020016000206002015460096000838152602001908152602001600020600401819055505b5b5b7fb24b09fd2e8e4d8904c3c26f3e935824e032891520ffda419dec9f086b0e1eea6009600083815260200190815260200160002060010160009054906101000a900473ffffffffffffffffffffffffffffffffffffffff1660096000848152602001908152602001600020600301546009600085815260200190815260200160002060040154604051620016d09392919062001ff8565b60405180910390a18080620016e59062002064565b9150506200144e565b50600081111562001706578060058190555062001758565b6001600a60006101000a81548160ff021916908360018111156200172f576200172e62001cc6565b5b021790555060006005819055506001600760006101000a81548160ff0219169083151502179055505b50565b60006009600083815260200190815260200160002060050160029054906101000a900460ff169050919050565b60007f000000000000000000000000000000000000000000000000000000000000000073ffffffffffffffffffffffffffffffffffffffff163373ffffffffffffffffffffffffffffffffffffffff161462001810576040517fae4a21bc00000000000000000000000000000000000000000000000000000000815260040160405180910390fd5b600354905090565b60007f000000000000000000000000000000000000000000000000000000000000000073ffffffffffffffffffffffffffffffffffffffff163373ffffffffffffffffffffffffffffffffffffffff1614620018a0576040517fae4a21bc00000000000000000000000000000000000000000000000000000000815260040160405180910390fd5b600254905090565b60005b60025481101562001b845760006009600083815260200190815260200160002060030154111562001b6e57600760019054906101000a900473ffffffffffffffffffffffffffffffffffffffff1673ffffffffffffffffffffffffffffffffffffffff1663095ea7b36009600084815260200190815260200160002060010160009054906101000a900473ffffffffffffffffffffffffffffffffffffffff16670de0b6b3a76400006009600086815260200190815260200160002060030154620019779190620024b5565b6040518363ffffffff1660e01b81526004016200199692919062002500565b6020604051808303816000875af1158015620019b6573d6000803e3d6000fd5b505050506040513d601f19601f82011682018060405250810190620019dc91906200255e565b50600760019054906101000a900473ffffffffffffffffffffffffffffffffffffffff1673ffffffffffffffffffffffffffffffffffffffff166323b872dd306009600085815260200190815260200160002060010160009054906101000a900473ffffffffffffffffffffffffffffffffffffffff16670de0b6b3a7640000600960008781526020019081526020016000206003015462001a7f9190620024b5565b6040518463ffffffff1660e01b815260040162001a9f9392919062002590565b6020604051808303816000875af115801562001abf573d6000803e3d6000fd5b505050506040513d601f19601f8201168201806040525081019062001ae591906200255e565b507f039b13884cbcea684931b2bcff6faab7170693e1bc173e651e14168c890c70806009600083815260200190815260200160002060010160009054906101000a900473ffffffffffffffffffffffffffffffffffffffff16600960008481526020019081526020016000206003015460405162001b6592919062002500565b60405180910390a15b808062001b7b9062002064565b915050620018ab565b50565b6001600a60006101000a81548160ff0219169083600181111562001bb05762001baf62001cc6565b5b021790555062001bbf6200143a565b62001bc96200052b565b62001bd3620018a8565b6000600554111562001c7557600760019054906101000a900473ffffffffffffffffffffffffffffffffffffffff1673ffffffffffffffffffffffffffffffffffffffff16639dc29fac306005546040518363ffffffff1660e01b815260040162001c4092919062002500565b600060405180830381600087803b15801562001c5b57600080fd5b505af115801562001c70573d6000803e3d6000fd5b505050505b7f99d9aed25b1415a4a35a1890d2ee6aa1db28f98ba8eff1de3d494a6af9dca7726002546005544760405162001cae93929190620025cd565b60405180910390a1565b611ef0806200260b83390190565b7f4e487b7100000000000000000000000000000000000000000000000000000000600052602160045260246000fd5b6002811062001d095762001d0862001cc6565b5b50565b600081905062001d1c8262001cf5565b919050565b600062001d2e8262001d0c565b9050919050565b62001d408162001d21565b82525050565b600060208201905062001d5d600083018462001d35565b92915050565b6000819050919050565b62001d788162001d63565b82525050565b600060208201905062001d95600083018462001d6d565b92915050565b6000819050919050565b62001db08162001d9b565b82525050565b600060208201905062001dcd600083018462001da5565b92915050565b600080fd5b62001de38162001d9b565b811462001def57600080fd5b50565b60008135905062001e038162001dd8565b92915050565b60006020828403121562001e225762001e2162001dd3565b5b600062001e328482850162001df2565b91505092915050565b600073ffffffffffffffffffffffffffffffffffffffff82169050919050565b600062001e688262001e3b565b9050919050565b62001e7a8162001e5b565b82525050565b60008115159050919050565b62001e978162001e80565b82525050565b60006101008201905062001eb5600083018b62001da5565b62001ec4602083018a62001e6f565b62001ed3604083018962001da5565b62001ee2606083018862001da5565b62001ef1608083018762001da5565b62001f0060a083018662001e8c565b62001f0f60c083018562001e8c565b62001f1e60e083018462001e8c565b9998505050505050505050565b6000806040838503121562001f455762001f4462001dd3565b5b600062001f558582860162001df2565b925050602062001f688582860162001df2565b9150509250929050565b600060208201905062001f89600083018462001e6f565b92915050565b600060208201905062001fa6600083018462001e8c565b92915050565b600081905092915050565b50565b600062001fc960008362001fac565b915062001fd68262001fb7565b600082019050919050565b600062001fee8262001fba565b9150819050919050565b60006060820190506200200f600083018662001e6f565b6200201e602083018562001da5565b6200202d604083018462001da5565b949350505050565b7f4e487b7100000000000000000000000000000000000000000000000000000000600052601160045260246000fd5b6000620020718262001d9b565b91507fffffffffffffffffffffffffffffffffffffffffffffffffffffffffffffffff8203620020a657620020a562002035565b5b600182019050919050565b600082825260208201905092915050565b7f62696456616c7565206c657373207468616e2030000000000000000000000000600082015250565b6000620020fa601483620020b1565b91506200210782620020c2565b602082019050919050565b600060208201905081810360008301526200212d81620020eb565b9050919050565b6000620021418262001d9b565b91506200214e8362001d9b565b925082820390508181111562002169576200216862002035565b5b92915050565b7f74696d6520697320757000000000000000000000000000000000000000000000600082015250565b6000620021a7600a83620020b1565b9150620021b4826200216f565b602082019050919050565b60006020820190508181036000830152620021da8162002198565b9050919050565b7f5468657265206973206e6f206d6f726520616c676f73206c6566740000000000600082015250565b600062002219601b83620020b1565b91506200222682620021e1565b602082019050919050565b600060208201905081810360008301526200224c816200220a565b9050919050565b60006060820190506200226a600083018662001da5565b62002279602083018562001e6f565b62002288604083018462001da5565b949350505050565b600081519050620022a18162001dd8565b92915050565b600060208284031215620022c057620022bf62001dd3565b5b6000620022d08482850162002290565b91505092915050565b6000604082019050620022f0600083018562001da5565b620022ff602083018462001e6f565b9392505050565b60006080820190506200231d600083018762001da5565b6200232c602083018662001e6f565b6200233b604083018562001da5565b6200234a606083018462001da5565b95945050505050565b7f4e487b7100000000000000000000000000000000000000000000000000000000600052601260045260246000fd5b60006200238f8262001d9b565b91506200239c8362001d9b565b925082620023af57620023ae62002353565b5b828204905092915050565b6000620023c78262001d63565b9150620023d48362001d63565b9250828202620023e48162001d63565b91507f800000000000000000000000000000000000000000000000000000000000000084146000841216156200241f576200241e62002035565b5b828205841483151762002437576200243662002035565b5b5092915050565b60006200244b8262001d63565b9150620024588362001d63565b925082820390508181126000841216828213600085121516171562002482576200248162002035565b5b92915050565b60006040820190506200249f600083018562001da5565b620024ae602083018462001da5565b9392505050565b6000620024c28262001d9b565b9150620024cf8362001d9b565b9250828202620024df8162001d9b565b91508282048414831517620024f957620024f862002035565b5b5092915050565b600060408201905062002517600083018562001e6f565b62002526602083018462001da5565b9392505050565b620025388162001e80565b81146200254457600080fd5b50565b60008151905062002558816200252d565b92915050565b60006020828403121562002577576200257662001dd3565b5b6000620025878482850162002547565b91505092915050565b6000606082019050620025a7600083018662001e6f565b620025b6602083018562001e6f565b620025c5604083018462001da5565b949350505050565b6000606082019050620025e4600083018662001da5565b620025f3602083018562001da5565b62002602604083018462001da5565b94935050505056fe60806040523480156200001157600080fd5b5060405162001ef038038062001ef0833981810160405281019062000037919062000805565b336040518060400160405280600a81526020017f4552433230546f6b656e000000000000000000000000000000000000000000008152506040518060400160405280600281526020017f45540000000000000000000000000000000000000000000000000000000000008152508160039081620000b5919062000abc565b508060049081620000c7919062000abc565b505050600073ffffffffffffffffffffffffffffffffffffffff168173ffffffffffffffffffffffffffffffffffffffff16036200013f5760006040517f1e4fbdf700000000000000000000000000000000000000000000000000000000815260040162000136919062000bb4565b60405180910390fd5b6200015081620001a860201b60201c565b506200017833670de0b6b3a7640000846200016c919062000c00565b6200026e60201b60201c565b6200019f81670de0b6b3a76400008462000193919062000c00565b620002fb60201b60201c565b50505062000cf1565b6000600560009054906101000a900473ffffffffffffffffffffffffffffffffffffffff16905081600560006101000a81548173ffffffffffffffffffffffffffffffffffffffff021916908373ffffffffffffffffffffffffffffffffffffffff1602179055508173ffffffffffffffffffffffffffffffffffffffff168173ffffffffffffffffffffffffffffffffffffffff167f8be0079c531659141344cd1fd0a4f28419497f9722a3daafe3b4186f6b6457e060405160405180910390a35050565b600073ffffffffffffffffffffffffffffffffffffffff168273ffffffffffffffffffffffffffffffffffffffff1603620002e35760006040517fec442f05000000000000000000000000000000000000000000000000000000008152600401620002da919062000bb4565b60405180910390fd5b620002f7600083836200032e60201b60201c565b5050565b6000806200030e6200055e60201b60201c565b9050620003238185856200056660201b60201c565b600191505092915050565b600073ffffffffffffffffffffffffffffffffffffffff168373ffffffffffffffffffffffffffffffffffffffff16036200038457806002600082825462000377919062000c4b565b925050819055506200045a565b60008060008573ffffffffffffffffffffffffffffffffffffffff1673ffffffffffffffffffffffffffffffffffffffff1681526020019081526020016000205490508181101562000413578381836040517fe450d38c0000000000000000000000000000000000000000000000000000000081526004016200040a9392919062000c97565b60405180910390fd5b8181036000808673ffffffffffffffffffffffffffffffffffffffff1673ffffffffffffffffffffffffffffffffffffffff16815260200190815260200160002081905550505b600073ffffffffffffffffffffffffffffffffffffffff168273ffffffffffffffffffffffffffffffffffffffff1603620004a55780600260008282540392505081905550620004f2565b806000808473ffffffffffffffffffffffffffffffffffffffff1673ffffffffffffffffffffffffffffffffffffffff168152602001908152602001600020600082825401925050819055505b8173ffffffffffffffffffffffffffffffffffffffff168373ffffffffffffffffffffffffffffffffffffffff167fddf252ad1be2c89b69c2b068fc378daa952ba7f163c4a11628f55a4df523b3ef8360405162000551919062000cd4565b60405180910390a3505050565b600033905090565b6200057b83838360016200058060201b60201c565b505050565b600073ffffffffffffffffffffffffffffffffffffffff168473ffffffffffffffffffffffffffffffffffffffff1603620005f55760006040517fe602df05000000000000000000000000000000000000000000000000000000008152600401620005ec919062000bb4565b60405180910390fd5b600073ffffffffffffffffffffffffffffffffffffffff168373ffffffffffffffffffffffffffffffffffffffff16036200066a5760006040517f94280d6200000000000000000000000000000000000000000000000000000000815260040162000661919062000bb4565b60405180910390fd5b81600160008673ffffffffffffffffffffffffffffffffffffffff1673ffffffffffffffffffffffffffffffffffffffff16815260200190815260200160002060008573ffffffffffffffffffffffffffffffffffffffff1673ffffffffffffffffffffffffffffffffffffffff1681526020019081526020016000208190555080156200075a578273ffffffffffffffffffffffffffffffffffffffff168473ffffffffffffffffffffffffffffffffffffffff167f8c5be1e5ebec7d5bd14f71427d1e84f3dd0314c0f7b2291e5b200ac8c7c3b9258460405162000751919062000cd4565b60405180910390a35b50505050565b600080fd5b6000819050919050565b6200077a8162000765565b81146200078657600080fd5b50565b6000815190506200079a816200076f565b92915050565b600073ffffffffffffffffffffffffffffffffffffffff82169050919050565b6000620007cd82620007a0565b9050919050565b620007df81620007c0565b8114620007eb57600080fd5b50565b600081519050620007ff81620007d4565b92915050565b600080604083850312156200081f576200081e62000760565b5b60006200082f8582860162000789565b92505060206200084285828601620007ee565b9150509250929050565b600081519050919050565b7f4e487b7100000000000000000000000000000000000000000000000000000000600052604160045260246000fd5b7f4e487b7100000000000000000000000000000000000000000000000000000000600052602260045260246000fd5b60006002820490506001821680620008ce57607f821691505b602082108103620008e457620008e362000886565b5b50919050565b60008190508160005260206000209050919050565b60006020601f8301049050919050565b600082821b905092915050565b6000600883026200094e7fffffffffffffffffffffffffffffffffffffffffffffffffffffffffffffffff826200090f565b6200095a86836200090f565b95508019841693508086168417925050509392505050565b6000819050919050565b60006200099d62000997620009918462000765565b62000972565b62000765565b9050919050565b6000819050919050565b620009b9836200097c565b620009d1620009c882620009a4565b8484546200091c565b825550505050565b600090565b620009e8620009d9565b620009f5818484620009ae565b505050565b5b8181101562000a1d5762000a11600082620009de565b600181019050620009fb565b5050565b601f82111562000a6c5762000a3681620008ea565b62000a4184620008ff565b8101602085101562000a51578190505b62000a6962000a6085620008ff565b830182620009fa565b50505b505050565b600082821c905092915050565b600062000a916000198460080262000a71565b1980831691505092915050565b600062000aac838362000a7e565b9150826002028217905092915050565b62000ac7826200084c565b67ffffffffffffffff81111562000ae35762000ae262000857565b5b62000aef8254620008b5565b62000afc82828562000a21565b600060209050601f83116001811462000b34576000841562000b1f578287015190505b62000b2b858262000a9e565b86555062000b9b565b601f19841662000b4486620008ea565b60005b8281101562000b6e5784890151825560018201915060208501945060208101905062000b47565b8683101562000b8e578489015162000b8a601f89168262000a7e565b8355505b6001600288020188555050505b505050505050565b62000bae81620007c0565b82525050565b600060208201905062000bcb600083018462000ba3565b92915050565b7f4e487b7100000000000000000000000000000000000000000000000000000000600052601160045260246000fd5b600062000c0d8262000765565b915062000c1a8362000765565b925082820262000c2a8162000765565b9150828204841483151762000c445762000c4362000bd1565b5b5092915050565b600062000c588262000765565b915062000c658362000765565b925082820190508082111562000c805762000c7f62000bd1565b5b92915050565b62000c918162000765565b82525050565b600060608201905062000cae600083018662000ba3565b62000cbd602083018562000c86565b62000ccc604083018462000c86565b949350505050565b600060208201905062000ceb600083018462000c86565b92915050565b6111ef8062000d016000396000f3fe608060405234801561001057600080fd5b50600436106100cf5760003560e01c8063715018a61161008c5780639dc29fac116100665780639dc29fac14610204578063a9059cbb14610220578063dd62ed3e14610250578063f2fde38b14610280576100cf565b8063715018a6146101be5780638da5cb5b146101c857806395d89b41146101e6576100cf565b806306fdde03146100d4578063095ea7b3146100f257806318160ddd1461012257806323b872dd14610140578063313ce5671461017057806370a082311461018e575b600080fd5b6100dc61029c565b6040516100e99190610e01565b60405180910390f35b61010c60048036038101906101079190610ebc565b61032e565b6040516101199190610f17565b60405180910390f35b61012a610351565b6040516101379190610f41565b60405180910390f35b61015a60048036038101906101559190610f5c565b61035b565b6040516101679190610f17565b60405180910390f35b61017861038a565b6040516101859190610fcb565b60405180910390f35b6101a860048036038101906101a39190610fe6565b610393565b6040516101b59190610f41565b60405180910390f35b6101c66103db565b005b6101d06103ef565b6040516101dd9190611022565b60405180910390f35b6101ee610419565b6040516101fb9190610e01565b60405180910390f35b61021e60048036038101906102199190610ebc565b6104ab565b005b61023a60048036038101906102359190610ebc565b6104d4565b6040516102479190610f17565b60405180910390f35b61026a6004803603810190610265919061103d565b6104f7565b6040516102779190610f41565b60405180910390f35b61029a60048036038101906102959190610fe6565b61057e565b005b6060600380546102ab906110ac565b80601f01602080910402602001604051908101604052809291908181526020018280546102d7906110ac565b80156103245780601f106102f957610100808354040283529160200191610324565b820191906000526020600020905b81548152906001019060200180831161030757829003601f168201915b5050505050905090565b600080610339610604565b905061034681858561060c565b600191505092915050565b6000600254905090565b600080610366610604565b905061037385828561061e565b61037e8585856106b2565b60019150509392505050565b60006012905090565b60008060008373ffffffffffffffffffffffffffffffffffffffff1673ffffffffffffffffffffffffffffffffffffffff168152602001908152602001600020549050919050565b6103e36107a6565b6103ed600061082d565b565b6000600560009054906101000a900473ffffffffffffffffffffffffffffffffffffffff16905090565b606060048054610428906110ac565b80601f0160208091040260200160405190810160405280929190818152602001828054610454906110ac565b80156104a15780601f10610476576101008083540402835291602001916104a1565b820191906000526020600020905b81548152906001019060200180831161048457829003601f168201915b5050505050905090565b6104b36107a6565b6104d082670de0b6b3a7640000836104cb919061110c565b6108f3565b5050565b6000806104df610604565b90506104ec8185856106b2565b600191505092915050565b6000600160008473ffffffffffffffffffffffffffffffffffffffff1673ffffffffffffffffffffffffffffffffffffffff16815260200190815260200160002060008373ffffffffffffffffffffffffffffffffffffffff1673ffffffffffffffffffffffffffffffffffffffff16815260200190815260200160002054905092915050565b6105866107a6565b600073ffffffffffffffffffffffffffffffffffffffff168173ffffffffffffffffffffffffffffffffffffffff16036105f85760006040517f1e4fbdf70000000000000000000000000000000000000000000000000000000081526004016105ef9190611022565b60405180910390fd5b6106018161082d565b50565b600033905090565b6106198383836001610975565b505050565b600061062a84846104f7565b90507fffffffffffffffffffffffffffffffffffffffffffffffffffffffffffffffff81146106ac578181101561069c578281836040517ffb8f41b20000000000000000000000000000000000000000000000000000000081526004016106939392919061114e565b60405180910390fd5b6106ab84848484036000610975565b5b50505050565b600073ffffffffffffffffffffffffffffffffffffffff168373ffffffffffffffffffffffffffffffffffffffff16036107245760006040517f96c6fd1e00000000000000000000000000000000000000000000000000000000815260040161071b9190611022565b60405180910390fd5b600073ffffffffffffffffffffffffffffffffffffffff168273ffffffffffffffffffffffffffffffffffffffff16036107965760006040517fec442f0500000000000000000000000000000000000000000000000000000000815260040161078d9190611022565b60405180910390fd5b6107a1838383610b4c565b505050565b6107ae610604565b73ffffffffffffffffffffffffffffffffffffffff166107cc6103ef565b73ffffffffffffffffffffffffffffffffffffffff161461082b576107ef610604565b6040517f118cdaa70000000000000000000000000000000000000000000000000000000081526004016108229190611022565b60405180910390fd5b565b6000600560009054906101000a900473ffffffffffffffffffffffffffffffffffffffff16905081600560006101000a81548173ffffffffffffffffffffffffffffffffffffffff021916908373ffffffffffffffffffffffffffffffffffffffff1602179055508173ffffffffffffffffffffffffffffffffffffffff168173ffffffffffffffffffffffffffffffffffffffff167f8be0079c531659141344cd1fd0a4f28419497f9722a3daafe3b4186f6b6457e060405160405180910390a35050565b600073ffffffffffffffffffffffffffffffffffffffff168273ffffffffffffffffffffffffffffffffffffffff16036109655760006040517f96c6fd1e00000000000000000000000000000000000000000000000000000000815260040161095c9190611022565b60405180910390fd5b61097182600083610b4c565b5050565b600073ffffffffffffffffffffffffffffffffffffffff168473ffffffffffffffffffffffffffffffffffffffff16036109e75760006040517fe602df050000000000000000000000000000000000000000000000000000000081526004016109de9190611022565b60405180910390fd5b600073ffffffffffffffffffffffffffffffffffffffff168373ffffffffffffffffffffffffffffffffffffffff1603610a595760006040517f94280d62000000000000000000000000000000000000000000000000000000008152600401610a509190611022565b60405180910390fd5b81600160008673ffffffffffffffffffffffffffffffffffffffff1673ffffffffffffffffffffffffffffffffffffffff16815260200190815260200160002060008573ffffffffffffffffffffffffffffffffffffffff1673ffffffffffffffffffffffffffffffffffffffff168152602001908152602001600020819055508015610b46578273ffffffffffffffffffffffffffffffffffffffff168473ffffffffffffffffffffffffffffffffffffffff167f8c5be1e5ebec7d5bd14f71427d1e84f3dd0314c0f7b2291e5b200ac8c7c3b92584604051610b3d9190610f41565b60405180910390a35b50505050565b600073ffffffffffffffffffffffffffffffffffffffff168373ffffffffffffffffffffffffffffffffffffffff1603610b9e578060026000828254610b929190611185565b92505081905550610c71565b60008060008573ffffffffffffffffffffffffffffffffffffffff1673ffffffffffffffffffffffffffffffffffffffff16815260200190815260200160002054905081811015610c2a578381836040517fe450d38c000000000000000000000000000000000000000000000000000000008152600401610c219392919061114e565b60405180910390fd5b8181036000808673ffffffffffffffffffffffffffffffffffffffff1673ffffffffffffffffffffffffffffffffffffffff16815260200190815260200160002081905550505b600073ffffffffffffffffffffffffffffffffffffffff168273ffffffffffffffffffffffffffffffffffffffff1603610cba5780600260008282540392505081905550610d07565b806000808473ffffffffffffffffffffffffffffffffffffffff1673ffffffffffffffffffffffffffffffffffffffff168152602001908152602001600020600082825401925050819055505b8173ffffffffffffffffffffffffffffffffffffffff168373ffffffffffffffffffffffffffffffffffffffff167fddf252ad1be2c89b69c2b068fc378daa952ba7f163c4a11628f55a4df523b3ef83604051610d649190610f41565b60405180910390a3505050565b600081519050919050565b600082825260208201905092915050565b60005b83811015610dab578082015181840152602081019050610d90565b60008484015250505050565b6000601f19601f8301169050919050565b6000610dd382610d71565b610ddd8185610d7c565b9350610ded818560208601610d8d565b610df681610db7565b840191505092915050565b60006020820190508181036000830152610e1b8184610dc8565b905092915050565b600080fd5b600073ffffffffffffffffffffffffffffffffffffffff82169050919050565b6000610e5382610e28565b9050919050565b610e6381610e48565b8114610e6e57600080fd5b50565b600081359050610e8081610e5a565b92915050565b6000819050919050565b610e9981610e86565b8114610ea457600080fd5b50565b600081359050610eb681610e90565b92915050565b60008060408385031215610ed357610ed2610e23565b5b6000610ee185828601610e71565b9250506020610ef285828601610ea7565b9150509250929050565b60008115159050919050565b610f1181610efc565b82525050565b6000602082019050610f2c6000830184610f08565b92915050565b610f3b81610e86565b82525050565b6000602082019050610f566000830184610f32565b92915050565b600080600060608486031215610f7557610f74610e23565b5b6000610f8386828701610e71565b9350506020610f9486828701610e71565b9250506040610fa586828701610ea7565b9150509250925092565b600060ff82169050919050565b610fc581610faf565b82525050565b6000602082019050610fe06000830184610fbc565b92915050565b600060208284031215610ffc57610ffb610e23565b5b600061100a84828501610e71565b91505092915050565b61101c81610e48565b82525050565b60006020820190506110376000830184611013565b92915050565b6000806040838503121561105457611053610e23565b5b600061106285828601610e71565b925050602061107385828601610e71565b9150509250929050565b7f4e487b7100000000000000000000000000000000000000000000000000000000600052602260045260246000fd5b600060028204905060018216806110c457607f821691505b6020821081036110d7576110d661107d565b5b50919050565b7f4e487b7100000000000000000000000000000000000000000000000000000000600052601160045260246000fd5b600061111782610e86565b915061112283610e86565b925082820261113081610e86565b91508282048414831517611147576111466110dd565b5b5092915050565b60006060820190506111636000830186611013565b6111706020830185610f32565b61117d6040830184610f32565b949350505050565b600061119082610e86565b915061119b83610e86565b92508282019050808211156111b3576111b26110dd565b5b9291505056fea2646970667358221220da64986efe334ff5837b986db8a789595ef8a676806085e4ac809b5c5513312f64736f6c63430008150033a26469706673582212202f67270a651baf8a0dfa87e335df6afb006470f2f1d421654123afc76a712a1764736f6c63430008150033",
  "linkReferences": {},
  "deployedLinkReferences": {}
}