{
  "address": "0xe7f1725E7734CE288F8367e1Bb143E90bb3F0512",
  "abi": [
    {
      "inputs": [
        {
          "internalType": "uint256",
          "name": "_reservePrice",
          "type": "uint256"
        },
        {
          "internalType": "uint256",
          "name": "_startPrice",
          "type": "uint256"
        },
        {
          "internalType": "uint256",
          "name": "_totalAlgosAvailable",
          "type": "uint256"
        },
        {
          "internalType": "address",
          "name": "_token",
          "type": "address"
        },
        {
          "internalType": "uint256",
          "name": "_interval",
          "type": "uint256"
        }
      ],
      "stateMutability": "nonpayable",
      "type": "constructor"
    },
    {
      "inputs": [],
      "name": "Dutch_Auction__IsOwner",
      "type": "error"
    },
    {
      "inputs": [],
      "name": "Dutch_Auction__NotOwner",
      "type": "error"
    },
    {
      "inputs": [
        {
          "internalType": "uint256",
          "name": "auctionState",
          "type": "uint256"
        }
      ],
      "name": "Dutch_Auction__UpKeepNotNeeded",
      "type": "error"
    },
    {
      "inputs": [],
      "name": "addBidder",
      "outputs": [],
      "stateMutability": "payable",
      "type": "function"
    },
    {
      "inputs": [
        {
          "internalType": "address",
          "name": "",
          "type": "address"
        }
      ],
      "name": "biddersList",
      "outputs": [
        {
          "internalType": "uint256",
          "name": "bidderID",
          "type": "uint256"
        },
        {
          "internalType": "address",
          "name": "walletAddress",
          "type": "address"
        },
        {
          "internalType": "uint256",
          "name": "bidValue",
          "type": "uint256"
        },
        {
          "internalType": "uint256",
          "name": "totalAlgosPurchased",
          "type": "uint256"
        },
        {
          "internalType": "bool",
          "name": "isExist",
          "type": "bool"
        }
      ],
      "stateMutability": "view",
      "type": "function"
    },
    {
      "inputs": [
        {
          "internalType": "bytes",
          "name": "",
          "type": "bytes"
        }
      ],
      "name": "checkUpkeep",
      "outputs": [
        {
          "internalType": "bool",
          "name": "upkeepNeeded",
          "type": "bool"
        },
        {
          "internalType": "bytes",
          "name": "",
          "type": "bytes"
        }
      ],
      "stateMutability": "nonpayable",
      "type": "function"
    },
    {
      "inputs": [],
      "name": "endAuction",
      "outputs": [],
      "stateMutability": "nonpayable",
      "type": "function"
    },
    {
      "inputs": [],
      "name": "endTime",
      "outputs": [
        {
          "internalType": "uint256",
          "name": "",
          "type": "uint256"
        }
      ],
      "stateMutability": "view",
      "type": "function"
    },
    {
      "inputs": [
        {
          "internalType": "bytes",
          "name": "",
          "type": "bytes"
        }
      ],
      "name": "performUpkeep",
      "outputs": [],
      "stateMutability": "nonpayable",
      "type": "function"
    },
    {
      "inputs": [],
      "name": "retrieveAlgosRemaining",
      "outputs": [
        {
          "internalType": "uint256",
          "name": "",
          "type": "uint256"
        }
      ],
      "stateMutability": "view",
      "type": "function"
    },
    {
      "inputs": [
        {
          "internalType": "address",
          "name": "bidder",
          "type": "address"
        }
      ],
      "name": "retrieveBidderAlgos",
      "outputs": [
        {
          "internalType": "uint256",
          "name": "",
          "type": "uint256"
        }
      ],
      "stateMutability": "view",
      "type": "function"
    },
    {
      "inputs": [
        {
          "internalType": "address",
          "name": "bidder",
          "type": "address"
        }
      ],
      "name": "retrieveBidderBidValue",
      "outputs": [
        {
          "internalType": "uint256",
          "name": "",
          "type": "uint256"
        }
      ],
      "stateMutability": "view",
      "type": "function"
    },
    {
      "inputs": [],
      "name": "retrieveContractBalance",
      "outputs": [
        {
          "internalType": "uint256",
          "name": "",
          "type": "uint256"
        }
      ],
      "stateMutability": "view",
      "type": "function"
    },
    {
      "inputs": [],
      "name": "retrieveContractOwner",
      "outputs": [
        {
          "internalType": "address",
          "name": "",
          "type": "address"
        }
      ],
      "stateMutability": "view",
      "type": "function"
    },
    {
      "inputs": [],
      "name": "retrievePrice",
      "outputs": [
        {
          "internalType": "uint256",
          "name": "",
          "type": "uint256"
        }
      ],
      "stateMutability": "view",
      "type": "function"
    },
    {
      "inputs": [],
      "name": "retrieveReservePrice",
      "outputs": [
        {
          "internalType": "uint256",
          "name": "",
          "type": "uint256"
        }
      ],
      "stateMutability": "view",
      "type": "function"
    },
    {
      "inputs": [],
      "name": "retrieveTotalAlgos",
      "outputs": [
        {
          "internalType": "uint256",
          "name": "",
          "type": "uint256"
        }
      ],
      "stateMutability": "view",
      "type": "function"
    },
    {
      "inputs": [],
      "name": "retrieveTotalBidder",
      "outputs": [
        {
          "internalType": "uint256",
          "name": "",
          "type": "uint256"
        }
      ],
      "stateMutability": "view",
      "type": "function"
    },
    {
      "inputs": [],
      "name": "sendTokens",
      "outputs": [],
      "stateMutability": "nonpayable",
      "type": "function"
    },
    {
      "inputs": [],
      "name": "updateCurrentPrice",
      "outputs": [],
      "stateMutability": "nonpayable",
      "type": "function"
    }
  ],
  "transactionHash": "0xc656321c2b8a4cb31a04342deb992b7d9078aad15f26a7ff74f5dd8c5ae7d9ff",
  "args": [
    10,
    50,
    200,
    "0x5FbDB2315678afecb367f032d93F642f64180aa3",
    30
  ],
  "numDeployments": 1,
  "solcInputHash": "82b10aad99d86e21abb24cb52b622b44",
  "bytecode": "0x61016060405260006002553480156200001757600080fd5b50604051620021e4380380620021e483398181016040528101906200003d91906200023b565b83851062000082576040517f08c379a000000000000000000000000000000000000000000000000000000000815260040162000079906200034a565b60405180910390fd5b3373ffffffffffffffffffffffffffffffffffffffff1660a08173ffffffffffffffffffffffffffffffffffffffff168152505084608081815250508260c081815250508260018190555083600081905550836003819055504260e081815250508173ffffffffffffffffffffffffffffffffffffffff166101008173ffffffffffffffffffffffffffffffffffffffff16815250508173ffffffffffffffffffffffffffffffffffffffff166101208173ffffffffffffffffffffffffffffffffffffffff16815250506000600760006101000a81548160ff021916908360018111156200017657620001756200036c565b5b02179055504260088190555080610140818152505050505050506200039b565b600080fd5b6000819050919050565b620001b0816200019b565b8114620001bc57600080fd5b50565b600081519050620001d081620001a5565b92915050565b600073ffffffffffffffffffffffffffffffffffffffff82169050919050565b60006200020382620001d6565b9050919050565b6200021581620001f6565b81146200022157600080fd5b50565b60008151905062000235816200020a565b92915050565b600080600080600060a086880312156200025a576200025962000196565b5b60006200026a88828901620001bf565b95505060206200027d88828901620001bf565b94505060406200029088828901620001bf565b9350506060620002a38882890162000224565b9250506080620002b688828901620001bf565b9150509295509295909350565b600082825260208201905092915050565b7f7265736572766520707269636520697320686967686572207468616e2063757260008201527f72656e7420707269636500000000000000000000000000000000000000000000602082015250565b600062000332602a83620002c3565b91506200033f82620002d4565b604082019050919050565b60006020820190508181036000830152620003658162000323565b9050919050565b7f4e487b7100000000000000000000000000000000000000000000000000000000600052602160045260246000fd5b60805160a05160c05160e051610100516101205161014051611da46200044060003960006109de01526000505060008181610dcc01528181610f3c01526111710152600081816105cb0152610b63015260008181610bec015261122a0152600081816103f601528181610ad401528181610bba01528181610c2501528181610f78015281816110e401526111ad0152600081816103d0015261048b0152611da46000f3fe6080604052600436106100fe5760003560e01c80637ded653f11610095578063df38530611610064578063df3853061461031d578063e02539c814610348578063e4655bca14610373578063e47112bd1461039e578063fe67a54b146103b5576100fe565b80637ded653f14610285578063aa9d9bd6146102b0578063ac5ece6d146102c7578063b3ccc8eb146102f2576100fe565b80634585e33b116100d15780634585e33b146101a05780636e04ff0d146101c95780636e3bc76b146102075780637494c87514610248576100fe565b806314df33ac146101035780631f8cdb041461012e5780633197cbb6146101385780633bc7682c14610163575b600080fd5b34801561010f57600080fd5b506101186103cc565b6040516101259190611446565b60405180910390f35b6101366103f4565b005b34801561014457600080fd5b5061014d61088a565b60405161015a9190611446565b60405180910390f35b34801561016f57600080fd5b5061018a600480360381019061018591906114d3565b610890565b6040516101979190611446565b60405180910390f35b3480156101ac57600080fd5b506101c760048036038101906101c29190611565565b6108dc565b005b3480156101d557600080fd5b506101f060048036038101906101eb91906116f3565b61099b565b6040516101fe9291906117d6565b60405180910390f35b34801561021357600080fd5b5061022e600480360381019061022991906114d3565b610a21565b60405161023f959493929190611815565b60405180910390f35b34801561025457600080fd5b5061026f600480360381019061026a91906114d3565b610a84565b60405161027c9190611446565b60405180910390f35b34801561029157600080fd5b5061029a610ad0565b6040516102a79190611446565b60405180910390f35b3480156102bc57600080fd5b506102c5610b5d565b005b3480156102d357600080fd5b506102dc610bb6565b6040516102e99190611868565b60405180910390f35b3480156102fe57600080fd5b50610307610bde565b6040516103149190611446565b60405180910390f35b34801561032957600080fd5b50610332610be8565b60405161033f9190611446565b60405180910390f35b34801561035457600080fd5b5061035d610c10565b60405161036a9190611446565b60405180910390f35b34801561037f57600080fd5b50610388610c19565b6040516103959190611446565b60405180910390f35b3480156103aa57600080fd5b506103b3610c23565b005b3480156103c157600080fd5b506103ca6110e2565b005b60007f0000000000000000000000000000000000000000000000000000000000000000905090565b7f000000000000000000000000000000000000000000000000000000000000000073ffffffffffffffffffffffffffffffffffffffff163373ffffffffffffffffffffffffffffffffffffffff1603610479576040517fc3fdc7c100000000000000000000000000000000000000000000000000000000815260040160405180910390fd5b610481610b5d565b60003490506000547f0000000000000000000000000000000000000000000000000000000000000000106104ea576040517f08c379a00000000000000000000000000000000000000000000000000000000081526004016104e190611906565b60405180910390fd5b60006001541161052f576040517f08c379a000000000000000000000000000000000000000000000000000000000815260040161052690611972565b60405180910390fd5b600054811015610574576040517f08c379a000000000000000000000000000000000000000000000000000000000815260040161056b906119de565b60405180910390fd5b600154600054826105859190611a5c565b11156105c6576040517f08c379a00000000000000000000000000000000000000000000000000000000081526004016105bd90611ad9565b60405180910390fd5b6104b07f0000000000000000000000000000000000000000000000000000000000000000426105f59190611af9565b10610635576040517f08c379a000000000000000000000000000000000000000000000000000000000815260040161062c90611b79565b60405180910390fd5b600660003373ffffffffffffffffffffffffffffffffffffffff1673ffffffffffffffffffffffffffffffffffffffff16815260200190815260200160002060040160009054906101000a900460ff166107d1576000600660003373ffffffffffffffffffffffffffffffffffffffff1673ffffffffffffffffffffffffffffffffffffffff16815260200190815260200160002090506002600081546106db90611b99565b9190508190558160000181905550338160010160006101000a81548173ffffffffffffffffffffffffffffffffffffffff021916908373ffffffffffffffffffffffffffffffffffffffff160217905550818160020181905550600054826107439190611a5c565b816003018190555060018160040160006101000a81548160ff0219169083151502179055506005339080600181540180825580915050600190039060005260206000200160009091909190916101000a81548173ffffffffffffffffffffffffffffffffffffffff021916908373ffffffffffffffffffffffffffffffffffffffff16021790555050610859565b6000600660003373ffffffffffffffffffffffffffffffffffffffff1673ffffffffffffffffffffffffffffffffffffffff1681526020019081526020016000209050818160020160008282546108289190611be1565b925050819055506000548261083d9190611a5c565b8160030160008282546108509190611be1565b92505081905550505b600054816108679190611a5c565b600160008282546108789190611af9565b92505081905550610887611220565b50565b60045481565b6000600660008373ffffffffffffffffffffffffffffffffffffffff1673ffffffffffffffffffffffffffffffffffffffff168152602001908152602001600020600201549050919050565b60006108f66040518060200160405280600081525061099b565b5090508061095c57600760009054906101000a900460ff1660018111156109205761091f611c15565b5b6040517f8af44fe00000000000000000000000000000000000000000000000000000000081526004016109539190611446565b60405180910390fd5b6001600760006101000a81548160ff0219169083600181111561098257610981611c15565b5b02179055508015610996576109956110e2565b5b505050565b600060606000600760009054906101000a900460ff1660018111156109c3576109c2611c15565b5b600060018111156109d7576109d6611c15565b5b14905060007f000000000000000000000000000000000000000000000000000000000000000060085442610a0b9190611af9565b119050818015610a185750805b93505050915091565b60066020528060005260406000206000915090508060000154908060010160009054906101000a900473ffffffffffffffffffffffffffffffffffffffff16908060020154908060030154908060040160009054906101000a900460ff16905085565b6000600660008373ffffffffffffffffffffffffffffffffffffffff1673ffffffffffffffffffffffffffffffffffffffff168152602001908152602001600020600301549050919050565b60007f000000000000000000000000000000000000000000000000000000000000000073ffffffffffffffffffffffffffffffffffffffff163373ffffffffffffffffffffffffffffffffffffffff1614610b57576040517fae4a21bc00000000000000000000000000000000000000000000000000000000815260040160405180910390fd5b47905090565b600a601e7f000000000000000000000000000000000000000000000000000000000000000042610b8d9190611af9565b610b979190611a5c565b610ba19190611c44565b600354610bae9190611af9565b600081905550565b60007f0000000000000000000000000000000000000000000000000000000000000000905090565b6000600154905090565b60007f0000000000000000000000000000000000000000000000000000000000000000905090565b60008054905090565b6000600254905090565b7f000000000000000000000000000000000000000000000000000000000000000073ffffffffffffffffffffffffffffffffffffffff163373ffffffffffffffffffffffffffffffffffffffff1614610ca8576040517fae4a21bc00000000000000000000000000000000000000000000000000000000815260040160405180910390fd5b60005b6005805490508110156110df576000546006600060058481548110610cd357610cd2611c86565b5b9060005260206000200160009054906101000a900473ffffffffffffffffffffffffffffffffffffffff1673ffffffffffffffffffffffffffffffffffffffff1673ffffffffffffffffffffffffffffffffffffffff16815260200190815260200160002060020154610d469190611a5c565b6006600060058481548110610d5e57610d5d611c86565b5b9060005260206000200160009054906101000a900473ffffffffffffffffffffffffffffffffffffffff1673ffffffffffffffffffffffffffffffffffffffff1673ffffffffffffffffffffffffffffffffffffffff168152602001908152602001600020600301819055507f000000000000000000000000000000000000000000000000000000000000000073ffffffffffffffffffffffffffffffffffffffff1663095ea7b360058381548110610e1a57610e19611c86565b5b9060005260206000200160009054906101000a900473ffffffffffffffffffffffffffffffffffffffff16670de0b6b3a76400006006600060058781548110610e6657610e65611c86565b5b9060005260206000200160009054906101000a900473ffffffffffffffffffffffffffffffffffffffff1673ffffffffffffffffffffffffffffffffffffffff1673ffffffffffffffffffffffffffffffffffffffff16815260200190815260200160002060030154610ed99190611c44565b6040518363ffffffff1660e01b8152600401610ef6929190611cb5565b6020604051808303816000875af1158015610f15573d6000803e3d6000fd5b505050506040513d601f19601f82011682018060405250810190610f399190611d0a565b507f000000000000000000000000000000000000000000000000000000000000000073ffffffffffffffffffffffffffffffffffffffff166323b872dd7f000000000000000000000000000000000000000000000000000000000000000060058481548110610fab57610faa611c86565b5b9060005260206000200160009054906101000a900473ffffffffffffffffffffffffffffffffffffffff16670de0b6b3a76400006006600060058881548110610ff757610ff6611c86565b5b9060005260206000200160009054906101000a900473ffffffffffffffffffffffffffffffffffffffff1673ffffffffffffffffffffffffffffffffffffffff1673ffffffffffffffffffffffffffffffffffffffff1681526020019081526020016000206003015461106a9190611c44565b6040518463ffffffff1660e01b815260040161108893929190611d37565b6020604051808303816000875af11580156110a7573d6000803e3d6000fd5b505050506040513d601f19601f820116820180604052508101906110cb9190611d0a565b5080806110d790611b99565b915050610cab565b50565b7f000000000000000000000000000000000000000000000000000000000000000073ffffffffffffffffffffffffffffffffffffffff163373ffffffffffffffffffffffffffffffffffffffff1614611167576040517fae4a21bc00000000000000000000000000000000000000000000000000000000815260040160405180910390fd5b61116f610c23565b7f000000000000000000000000000000000000000000000000000000000000000073ffffffffffffffffffffffffffffffffffffffff16639dc29fac7f00000000000000000000000000000000000000000000000000000000000000006001546040518363ffffffff1660e01b81526004016111ec929190611cb5565b600060405180830381600087803b15801561120657600080fd5b505af115801561121a573d6000803e3d6000fd5b50505050565b611228610b5d565b7f000000000000000000000000000000000000000000000000000000000000000060018190555060005b60058054905081101561142a57600054600660006005848154811061127a57611279611c86565b5b9060005260206000200160009054906101000a900473ffffffffffffffffffffffffffffffffffffffff1673ffffffffffffffffffffffffffffffffffffffff1673ffffffffffffffffffffffffffffffffffffffff168152602001908152602001600020600201546112ed9190611a5c565b600660006005848154811061130557611304611c86565b5b9060005260206000200160009054906101000a900473ffffffffffffffffffffffffffffffffffffffff1673ffffffffffffffffffffffffffffffffffffffff1673ffffffffffffffffffffffffffffffffffffffff16815260200190815260200160002060030181905550600054600660006005848154811061138c5761138b611c86565b5b9060005260206000200160009054906101000a900473ffffffffffffffffffffffffffffffffffffffff1673ffffffffffffffffffffffffffffffffffffffff1673ffffffffffffffffffffffffffffffffffffffff168152602001908152602001600020600201546113ff9190611a5c565b600160008282546114109190611af9565b92505081905550808061142290611b99565b915050611252565b50565b6000819050919050565b6114408161142d565b82525050565b600060208201905061145b6000830184611437565b92915050565b6000604051905090565b600080fd5b600080fd5b600073ffffffffffffffffffffffffffffffffffffffff82169050919050565b60006114a082611475565b9050919050565b6114b081611495565b81146114bb57600080fd5b50565b6000813590506114cd816114a7565b92915050565b6000602082840312156114e9576114e861146b565b5b60006114f7848285016114be565b91505092915050565b600080fd5b600080fd5b600080fd5b60008083601f84011261152557611524611500565b5b8235905067ffffffffffffffff81111561154257611541611505565b5b60208301915083600182028301111561155e5761155d61150a565b5b9250929050565b6000806020838503121561157c5761157b61146b565b5b600083013567ffffffffffffffff81111561159a57611599611470565b5b6115a68582860161150f565b92509250509250929050565b600080fd5b6000601f19601f8301169050919050565b7f4e487b7100000000000000000000000000000000000000000000000000000000600052604160045260246000fd5b611600826115b7565b810181811067ffffffffffffffff8211171561161f5761161e6115c8565b5b80604052505050565b6000611632611461565b905061163e82826115f7565b919050565b600067ffffffffffffffff82111561165e5761165d6115c8565b5b611667826115b7565b9050602081019050919050565b82818337600083830152505050565b600061169661169184611643565b611628565b9050828152602081018484840111156116b2576116b16115b2565b5b6116bd848285611674565b509392505050565b600082601f8301126116da576116d9611500565b5b81356116ea848260208601611683565b91505092915050565b6000602082840312156117095761170861146b565b5b600082013567ffffffffffffffff81111561172757611726611470565b5b611733848285016116c5565b91505092915050565b60008115159050919050565b6117518161173c565b82525050565b600081519050919050565b600082825260208201905092915050565b60005b83811015611791578082015181840152602081019050611776565b60008484015250505050565b60006117a882611757565b6117b28185611762565b93506117c2818560208601611773565b6117cb816115b7565b840191505092915050565b60006040820190506117eb6000830185611748565b81810360208301526117fd818461179d565b90509392505050565b61180f81611495565b82525050565b600060a08201905061182a6000830188611437565b6118376020830187611806565b6118446040830186611437565b6118516060830185611437565b61185e6080830184611748565b9695505050505050565b600060208201905061187d6000830184611806565b92915050565b600082825260208201905092915050565b7f4c6f776572206f7220657175616c20746f20726573657276652070726963652160008201527f20456e64696e672041756374696f6e2100000000000000000000000000000000602082015250565b60006118f0603083611883565b91506118fb82611894565b604082019050919050565b6000602082019050818103600083015261191f816118e3565b9050919050565b7f416c6c20416c676f7320536f6c642120456e64696e672041756374696f6e2120600082015250565b600061195c602083611883565b915061196782611926565b602082019050919050565b6000602082019050818103600083015261198b8161194f565b9050919050565b7f62696456616c7565206c6f776572207468616e2063757272656e745072696365600082015250565b60006119c8602083611883565b91506119d382611992565b602082019050919050565b600060208201905081810360008301526119f7816119bb565b9050919050565b7f4e487b7100000000000000000000000000000000000000000000000000000000600052601260045260246000fd5b7f4e487b7100000000000000000000000000000000000000000000000000000000600052601160045260246000fd5b6000611a678261142d565b9150611a728361142d565b925082611a8257611a816119fe565b5b828204905092915050565b7f4e6f7420656e6f75676820616c676f7320666f7220796f752100000000000000600082015250565b6000611ac3601983611883565b9150611ace82611a8d565b602082019050919050565b60006020820190508181036000830152611af281611ab6565b9050919050565b6000611b048261142d565b9150611b0f8361142d565b9250828203905081811115611b2757611b26611a2d565b5b92915050565b7f74696d6520697320757000000000000000000000000000000000000000000000600082015250565b6000611b63600a83611883565b9150611b6e82611b2d565b602082019050919050565b60006020820190508181036000830152611b9281611b56565b9050919050565b6000611ba48261142d565b91507fffffffffffffffffffffffffffffffffffffffffffffffffffffffffffffffff8203611bd657611bd5611a2d565b5b600182019050919050565b6000611bec8261142d565b9150611bf78361142d565b9250828201905080821115611c0f57611c0e611a2d565b5b92915050565b7f4e487b7100000000000000000000000000000000000000000000000000000000600052602160045260246000fd5b6000611c4f8261142d565b9150611c5a8361142d565b9250828202611c688161142d565b91508282048414831517611c7f57611c7e611a2d565b5b5092915050565b7f4e487b7100000000000000000000000000000000000000000000000000000000600052603260045260246000fd5b6000604082019050611cca6000830185611806565b611cd76020830184611437565b9392505050565b611ce78161173c565b8114611cf257600080fd5b50565b600081519050611d0481611cde565b92915050565b600060208284031215611d2057611d1f61146b565b5b6000611d2e84828501611cf5565b91505092915050565b6000606082019050611d4c6000830186611806565b611d596020830185611806565b611d666040830184611437565b94935050505056fea2646970667358221220029fd863c64825bbca64c3abb7235f4018ba1528aaa01c49bc487a65d0e0f00f64736f6c63430008150033",
  "devdoc": {
    "kind": "dev",
    "methods": {
      "checkUpkeep(bytes)": {
        "details": "This is the function that ChainLink Keeper nodes call They look for the `upkeepneeded` to return true The following should be true in order to return true 1. Time interval should have passed (20minutes) 2. Subscription is funded with LINK 3. Auction should be in \"open\" state"
      }
    },
    "version": 1
  },
  "userdoc": {
    "kind": "user",
    "methods": {
      "addBidder()": {
        "notice": "public functions "
      },
      "checkUpkeep(bytes)": {
        "notice": "Sam Notes: Here is the variable equivalents : s_lastTimeStamp ====> startTime After the 20minutes is up, simply endAuction(); It will do the burn and send the tokens as well"
      },
      "retrievePrice()": {
        "notice": "View and Pure Function "
      }
    },
    "version": 1
  },
  "storageLayout": {
    "storage": [
      {
        "astId": 861,
        "contract": "contracts/Dutch_Auction.sol:Dutch_Auction",
        "label": "currentPrice",
        "offset": 0,
        "slot": "0",
        "type": "t_uint256"
      },
      {
        "astId": 863,
        "contract": "contracts/Dutch_Auction.sol:Dutch_Auction",
        "label": "currentUnsoldAlgos",
        "offset": 0,
        "slot": "1",
        "type": "t_uint256"
      },
      {
        "astId": 866,
        "contract": "contracts/Dutch_Auction.sol:Dutch_Auction",
        "label": "totalNumBidders",
        "offset": 0,
        "slot": "2",
        "type": "t_uint256"
      },
      {
        "astId": 868,
        "contract": "contracts/Dutch_Auction.sol:Dutch_Auction",
        "label": "startPrice",
        "offset": 0,
        "slot": "3",
        "type": "t_uint256"
      },
      {
        "astId": 878,
        "contract": "contracts/Dutch_Auction.sol:Dutch_Auction",
        "label": "endTime",
        "offset": 0,
        "slot": "4",
        "type": "t_uint256"
      },
      {
        "astId": 897,
        "contract": "contracts/Dutch_Auction.sol:Dutch_Auction",
        "label": "biddersAddress",
        "offset": 0,
        "slot": "5",
        "type": "t_array(t_address)dyn_storage"
      },
      {
        "astId": 902,
        "contract": "contracts/Dutch_Auction.sol:Dutch_Auction",
        "label": "biddersList",
        "offset": 0,
        "slot": "6",
        "type": "t_mapping(t_address,t_struct(Bidder)894_storage)"
      },
      {
        "astId": 908,
        "contract": "contracts/Dutch_Auction.sol:Dutch_Auction",
        "label": "s_auctionState",
        "offset": 0,
        "slot": "7",
        "type": "t_enum(AuctionState)905"
      },
      {
        "astId": 910,
        "contract": "contracts/Dutch_Auction.sol:Dutch_Auction",
        "label": "s_lastTimeStamp",
        "offset": 0,
        "slot": "8",
        "type": "t_uint256"
      }
    ],
    "types": {
      "t_address": {
        "encoding": "inplace",
        "label": "address",
        "numberOfBytes": "20"
      },
      "t_array(t_address)dyn_storage": {
        "base": "t_address",
        "encoding": "dynamic_array",
        "label": "address[]",
        "numberOfBytes": "32"
      },
      "t_bool": {
        "encoding": "inplace",
        "label": "bool",
        "numberOfBytes": "1"
      },
      "t_enum(AuctionState)905": {
        "encoding": "inplace",
        "label": "enum Dutch_Auction.AuctionState",
        "numberOfBytes": "1"
      },
      "t_mapping(t_address,t_struct(Bidder)894_storage)": {
        "encoding": "mapping",
        "key": "t_address",
        "label": "mapping(address => struct Dutch_Auction.Bidder)",
        "numberOfBytes": "32",
        "value": "t_struct(Bidder)894_storage"
      },
      "t_struct(Bidder)894_storage": {
        "encoding": "inplace",
        "label": "struct Dutch_Auction.Bidder",
        "members": [
          {
            "astId": 885,
            "contract": "contracts/Dutch_Auction.sol:Dutch_Auction",
            "label": "bidderID",
            "offset": 0,
            "slot": "0",
            "type": "t_uint256"
          },
          {
            "astId": 887,
            "contract": "contracts/Dutch_Auction.sol:Dutch_Auction",
            "label": "walletAddress",
            "offset": 0,
            "slot": "1",
            "type": "t_address"
          },
          {
            "astId": 889,
            "contract": "contracts/Dutch_Auction.sol:Dutch_Auction",
            "label": "bidValue",
            "offset": 0,
            "slot": "2",
            "type": "t_uint256"
          },
          {
            "astId": 891,
            "contract": "contracts/Dutch_Auction.sol:Dutch_Auction",
            "label": "totalAlgosPurchased",
            "offset": 0,
            "slot": "3",
            "type": "t_uint256"
          },
          {
            "astId": 893,
            "contract": "contracts/Dutch_Auction.sol:Dutch_Auction",
            "label": "isExist",
            "offset": 0,
            "slot": "4",
            "type": "t_bool"
          }
        ],
        "numberOfBytes": "160"
      },
      "t_uint256": {
        "encoding": "inplace",
        "label": "uint256",
        "numberOfBytes": "32"
      }
    }
  }
}