{
  "address": "0xe7f1725E7734CE288F8367e1Bb143E90bb3F0512",
  "abi": [
    {
      "inputs": [
        {
          "internalType": "uint256",
          "name": "_reservePrice",
          "type": "uint256"
        },
        {
          "internalType": "uint256",
          "name": "_startPrice",
          "type": "uint256"
        },
        {
          "internalType": "uint256",
          "name": "_totalAlgosAvailable",
          "type": "uint256"
        },
        {
          "internalType": "address",
          "name": "_token",
          "type": "address"
        }
      ],
      "stateMutability": "nonpayable",
      "type": "constructor"
    },
    {
      "inputs": [],
      "name": "Dutch_Auction__IsOwner",
      "type": "error"
    },
    {
      "inputs": [],
      "name": "Dutch_Auction__NotOwner",
      "type": "error"
    },
    {
      "inputs": [],
      "name": "addBidder",
      "outputs": [],
      "stateMutability": "payable",
      "type": "function"
    },
    {
      "inputs": [
        {
          "internalType": "address",
          "name": "",
          "type": "address"
        }
      ],
      "name": "biddersList",
      "outputs": [
        {
          "internalType": "uint256",
          "name": "bidderID",
          "type": "uint256"
        },
        {
          "internalType": "address",
          "name": "walletAddress",
          "type": "address"
        },
        {
          "internalType": "uint256",
          "name": "bidValue",
          "type": "uint256"
        },
        {
          "internalType": "uint256",
          "name": "totalAlgosPurchased",
          "type": "uint256"
        },
        {
          "internalType": "bool",
          "name": "isExist",
          "type": "bool"
        }
      ],
      "stateMutability": "view",
      "type": "function"
    },
    {
      "inputs": [],
      "name": "contractAddress",
      "outputs": [
        {
          "internalType": "address",
          "name": "",
          "type": "address"
        }
      ],
      "stateMutability": "view",
      "type": "function"
    },
    {
      "inputs": [],
      "name": "endTime",
      "outputs": [
        {
          "internalType": "uint256",
          "name": "",
          "type": "uint256"
        }
      ],
      "stateMutability": "view",
      "type": "function"
    },
    {
      "inputs": [],
      "name": "retrieveAlgosRemaining",
      "outputs": [
        {
          "internalType": "uint256",
          "name": "",
          "type": "uint256"
        }
      ],
      "stateMutability": "view",
      "type": "function"
    },
    {
      "inputs": [
        {
          "internalType": "address",
          "name": "bidder",
          "type": "address"
        }
      ],
      "name": "retrieveBidderAlgos",
      "outputs": [
        {
          "internalType": "uint256",
          "name": "",
          "type": "uint256"
        }
      ],
      "stateMutability": "view",
      "type": "function"
    },
    {
      "inputs": [],
      "name": "retrieveContractBalance",
      "outputs": [
        {
          "internalType": "uint256",
          "name": "",
          "type": "uint256"
        }
      ],
      "stateMutability": "view",
      "type": "function"
    },
    {
      "inputs": [],
      "name": "retrieveContractOwner",
      "outputs": [
        {
          "internalType": "address",
          "name": "",
          "type": "address"
        }
      ],
      "stateMutability": "view",
      "type": "function"
    },
    {
      "inputs": [],
      "name": "retrievePrice",
      "outputs": [
        {
          "internalType": "uint256",
          "name": "",
          "type": "uint256"
        }
      ],
      "stateMutability": "view",
      "type": "function"
    },
    {
      "inputs": [],
      "name": "retrieveReservePrice",
      "outputs": [
        {
          "internalType": "uint256",
          "name": "",
          "type": "uint256"
        }
      ],
      "stateMutability": "view",
      "type": "function"
    },
    {
      "inputs": [],
      "name": "retrieveTotalAlgos",
      "outputs": [
        {
          "internalType": "uint256",
          "name": "",
          "type": "uint256"
        }
      ],
      "stateMutability": "view",
      "type": "function"
    },
    {
      "inputs": [],
      "name": "retrieveTotalBidder",
      "outputs": [
        {
          "internalType": "uint256",
          "name": "",
          "type": "uint256"
        }
      ],
      "stateMutability": "view",
      "type": "function"
    },
    {
      "inputs": [],
      "name": "retriveDATOKEN",
      "outputs": [
        {
          "internalType": "uint256",
          "name": "",
          "type": "uint256"
        }
      ],
      "stateMutability": "view",
      "type": "function"
    },
    {
      "inputs": [],
      "name": "sendTokens",
      "outputs": [],
      "stateMutability": "nonpayable",
      "type": "function"
    },
    {
      "inputs": [],
      "name": "startTime",
      "outputs": [
        {
          "internalType": "uint256",
          "name": "",
          "type": "uint256"
        }
      ],
      "stateMutability": "view",
      "type": "function"
    },
    {
      "inputs": [],
      "name": "updateCurrentPrice",
      "outputs": [],
      "stateMutability": "nonpayable",
      "type": "function"
    }
  ],
  "transactionHash": "0xe6270bb76aa8050ece8fc4702c8d32f93160f281489956052cddb4dcb3cb67c7",
  "args": [
    10,
    50,
    200,
    "0x5FbDB2315678afecb367f032d93F642f64180aa3"
  ],
  "numDeployments": 1,
  "solcInputHash": "f8808606d63440594f006ac28ce3ddbd",
  "bytecode": "0x61010060405260006002553480156200001757600080fd5b506040516200197a3803806200197a83398181016040528101906200003d9190620001c5565b82841062000082576040517f08c379a00000000000000000000000000000000000000000000000000000000081526004016200007990620002be565b60405180910390fd5b3373ffffffffffffffffffffffffffffffffffffffff1660a08173ffffffffffffffffffffffffffffffffffffffff168152505083608081815250508160c08181525050816001819055508260008190555082600381905550426004819055508073ffffffffffffffffffffffffffffffffffffffff1660e08173ffffffffffffffffffffffffffffffffffffffff168152505050505050620002e0565b600080fd5b6000819050919050565b6200013a8162000125565b81146200014657600080fd5b50565b6000815190506200015a816200012f565b92915050565b600073ffffffffffffffffffffffffffffffffffffffff82169050919050565b60006200018d8262000160565b9050919050565b6200019f8162000180565b8114620001ab57600080fd5b50565b600081519050620001bf8162000194565b92915050565b60008060008060808587031215620001e257620001e162000120565b5b6000620001f28782880162000149565b9450506020620002058782880162000149565b9350506040620002188782880162000149565b92505060606200022b87828801620001ae565b91505092959194509250565b600082825260208201905092915050565b7f7265736572766520707269636520697320686967686572207468616e2063757260008201527f72656e7420707269636500000000000000000000000000000000000000000000602082015250565b6000620002a6602a8362000237565b9150620002b38262000248565b604082019050919050565b60006020820190508181036000830152620002d98162000297565b9050919050565b60805160a05160c05160e051611628620003526000396000818161098f0152610c32015260008181610a520152610dea0152600081816103b1015281816108950152818161095d015281816109cb01528181610a8b0152610c6e01526000818161038b015261044601526116286000f3fe6080604052600436106100f35760003560e01c8063ac5ece6d1161008a578063e02539c811610059578063e02539c8146102ef578063e4655bca1461031a578063e47112bd14610345578063f6b4dfb41461035c576100f3565b8063ac5ece6d14610243578063b3ccc8eb1461026e578063c48109c914610299578063df385306146102c4576100f3565b80637494c875116100c65780637494c8751461019957806378e97925146101d65780637ded653f14610201578063aa9d9bd61461022c576100f3565b806314df33ac146100f85780631f8cdb04146101235780633197cbb61461012d5780636e3bc76b14610158575b600080fd5b34801561010457600080fd5b5061010d610387565b60405161011a9190611006565b60405180910390f35b61012b6103af565b005b34801561013957600080fd5b506101426107d6565b60405161014f9190611006565b60405180910390f35b34801561016457600080fd5b5061017f600480360381019061017a9190611084565b6107dc565b6040516101909594939291906110db565b60405180910390f35b3480156101a557600080fd5b506101c060048036038101906101bb9190611084565b61083f565b6040516101cd9190611006565b60405180910390f35b3480156101e257600080fd5b506101eb61088b565b6040516101f89190611006565b60405180910390f35b34801561020d57600080fd5b50610216610891565b6040516102239190611006565b60405180910390f35b34801561023857600080fd5b5061024161091e565b005b34801561024f57600080fd5b50610258610959565b604051610265919061112e565b60405180910390f35b34801561027a57600080fd5b50610283610981565b6040516102909190611006565b60405180910390f35b3480156102a557600080fd5b506102ae61098b565b6040516102bb9190611006565b60405180910390f35b3480156102d057600080fd5b506102d9610a4e565b6040516102e69190611006565b60405180910390f35b3480156102fb57600080fd5b50610304610a76565b6040516103119190611006565b60405180910390f35b34801561032657600080fd5b5061032f610a7f565b60405161033c9190611006565b60405180910390f35b34801561035157600080fd5b5061035a610a89565b005b34801561036857600080fd5b50610371610dd8565b60405161037e919061112e565b60405180910390f35b60007f0000000000000000000000000000000000000000000000000000000000000000905090565b7f000000000000000000000000000000000000000000000000000000000000000073ffffffffffffffffffffffffffffffffffffffff163373ffffffffffffffffffffffffffffffffffffffff1603610434576040517fc3fdc7c100000000000000000000000000000000000000000000000000000000815260040160405180910390fd5b61043c61091e565b60003490506000547f0000000000000000000000000000000000000000000000000000000000000000106104a5576040517f08c379a000000000000000000000000000000000000000000000000000000000815260040161049c906111cc565b60405180910390fd5b6000600154116104ea576040517f08c379a00000000000000000000000000000000000000000000000000000000081526004016104e190611238565b60405180910390fd5b60005481101561052f576040517f08c379a0000000000000000000000000000000000000000000000000000000008152600401610526906112a4565b60405180910390fd5b600154600054826105409190611322565b1115610581576040517f08c379a00000000000000000000000000000000000000000000000000000000081526004016105789061139f565b60405180910390fd5b600860003373ffffffffffffffffffffffffffffffffffffffff1673ffffffffffffffffffffffffffffffffffffffff16815260200190815260200160002060040160009054906101000a900460ff1661071d576000600860003373ffffffffffffffffffffffffffffffffffffffff1673ffffffffffffffffffffffffffffffffffffffff1681526020019081526020016000209050600260008154610627906113bf565b9190508190558160000181905550338160010160006101000a81548173ffffffffffffffffffffffffffffffffffffffff021916908373ffffffffffffffffffffffffffffffffffffffff1602179055508181600201819055506000548261068f9190611322565b816003018190555060018160040160006101000a81548160ff0219169083151502179055506007339080600181540180825580915050600190039060005260206000200160009091909190916101000a81548173ffffffffffffffffffffffffffffffffffffffff021916908373ffffffffffffffffffffffffffffffffffffffff160217905550506107a5565b6000600860003373ffffffffffffffffffffffffffffffffffffffff1673ffffffffffffffffffffffffffffffffffffffff1681526020019081526020016000209050818160020160008282546107749190611407565b92505081905550600054826107899190611322565b81600301600082825461079c9190611407565b92505081905550505b600054816107b39190611322565b600160008282546107c4919061143b565b925050819055506107d3610de0565b50565b60065481565b60086020528060005260406000206000915090508060000154908060010160009054906101000a900473ffffffffffffffffffffffffffffffffffffffff16908060020154908060030154908060040160009054906101000a900460ff16905085565b6000600860008373ffffffffffffffffffffffffffffffffffffffff1673ffffffffffffffffffffffffffffffffffffffff168152602001908152602001600020600301549050919050565b60055481565b60007f000000000000000000000000000000000000000000000000000000000000000073ffffffffffffffffffffffffffffffffffffffff163373ffffffffffffffffffffffffffffffffffffffff1614610918576040517fae4a21bc00000000000000000000000000000000000000000000000000000000815260040160405180910390fd5b47905090565b600a601e60045442610930919061143b565b61093a9190611322565b610944919061146f565b600354610951919061143b565b600081905550565b60007f0000000000000000000000000000000000000000000000000000000000000000905090565b6000600154905090565b60007f000000000000000000000000000000000000000000000000000000000000000073ffffffffffffffffffffffffffffffffffffffff1663dd62ed3e7f0000000000000000000000000000000000000000000000000000000000000000336040518363ffffffff1660e01b8152600401610a089291906114b1565b602060405180830381865afa158015610a25573d6000803e3d6000fd5b505050506040513d601f19601f82011682018060405250810190610a499190611506565b905090565b60007f0000000000000000000000000000000000000000000000000000000000000000905090565b60008054905090565b6000600254905090565b7f000000000000000000000000000000000000000000000000000000000000000073ffffffffffffffffffffffffffffffffffffffff163373ffffffffffffffffffffffffffffffffffffffff1614610b0e576040517fae4a21bc00000000000000000000000000000000000000000000000000000000815260040160405180910390fd5b60005b600780549050811015610dd5576000546008600060078481548110610b3957610b38611533565b5b9060005260206000200160009054906101000a900473ffffffffffffffffffffffffffffffffffffffff1673ffffffffffffffffffffffffffffffffffffffff1673ffffffffffffffffffffffffffffffffffffffff16815260200190815260200160002060020154610bac9190611322565b6008600060078481548110610bc457610bc3611533565b5b9060005260206000200160009054906101000a900473ffffffffffffffffffffffffffffffffffffffff1673ffffffffffffffffffffffffffffffffffffffff1673ffffffffffffffffffffffffffffffffffffffff168152602001908152602001600020600301819055507f000000000000000000000000000000000000000000000000000000000000000073ffffffffffffffffffffffffffffffffffffffff166323b872dd7f000000000000000000000000000000000000000000000000000000000000000060078481548110610ca157610ca0611533565b5b9060005260206000200160009054906101000a900473ffffffffffffffffffffffffffffffffffffffff16670de0b6b3a76400006008600060078881548110610ced57610cec611533565b5b9060005260206000200160009054906101000a900473ffffffffffffffffffffffffffffffffffffffff1673ffffffffffffffffffffffffffffffffffffffff1673ffffffffffffffffffffffffffffffffffffffff16815260200190815260200160002060030154610d60919061146f565b6040518463ffffffff1660e01b8152600401610d7e93929190611562565b6020604051808303816000875af1158015610d9d573d6000803e3d6000fd5b505050506040513d601f19601f82011682018060405250810190610dc191906115c5565b508080610dcd906113bf565b915050610b11565b50565b600030905090565b610de861091e565b7f000000000000000000000000000000000000000000000000000000000000000060018190555060005b600780549050811015610fea576000546008600060078481548110610e3a57610e39611533565b5b9060005260206000200160009054906101000a900473ffffffffffffffffffffffffffffffffffffffff1673ffffffffffffffffffffffffffffffffffffffff1673ffffffffffffffffffffffffffffffffffffffff16815260200190815260200160002060020154610ead9190611322565b6008600060078481548110610ec557610ec4611533565b5b9060005260206000200160009054906101000a900473ffffffffffffffffffffffffffffffffffffffff1673ffffffffffffffffffffffffffffffffffffffff1673ffffffffffffffffffffffffffffffffffffffff168152602001908152602001600020600301819055506000546008600060078481548110610f4c57610f4b611533565b5b9060005260206000200160009054906101000a900473ffffffffffffffffffffffffffffffffffffffff1673ffffffffffffffffffffffffffffffffffffffff1673ffffffffffffffffffffffffffffffffffffffff16815260200190815260200160002060020154610fbf9190611322565b60016000828254610fd0919061143b565b925050819055508080610fe2906113bf565b915050610e12565b50565b6000819050919050565b61100081610fed565b82525050565b600060208201905061101b6000830184610ff7565b92915050565b600080fd5b600073ffffffffffffffffffffffffffffffffffffffff82169050919050565b600061105182611026565b9050919050565b61106181611046565b811461106c57600080fd5b50565b60008135905061107e81611058565b92915050565b60006020828403121561109a57611099611021565b5b60006110a88482850161106f565b91505092915050565b6110ba81611046565b82525050565b60008115159050919050565b6110d5816110c0565b82525050565b600060a0820190506110f06000830188610ff7565b6110fd60208301876110b1565b61110a6040830186610ff7565b6111176060830185610ff7565b61112460808301846110cc565b9695505050505050565b600060208201905061114360008301846110b1565b92915050565b600082825260208201905092915050565b7f4c6f776572206f7220657175616c20746f20726573657276652070726963652160008201527f20456e64696e672041756374696f6e2100000000000000000000000000000000602082015250565b60006111b6603083611149565b91506111c18261115a565b604082019050919050565b600060208201905081810360008301526111e5816111a9565b9050919050565b7f416c6c20416c676f7320536f6c642120456e64696e672041756374696f6e2120600082015250565b6000611222602083611149565b915061122d826111ec565b602082019050919050565b6000602082019050818103600083015261125181611215565b9050919050565b7f62696456616c7565206c6f776572207468616e2063757272656e745072696365600082015250565b600061128e602083611149565b915061129982611258565b602082019050919050565b600060208201905081810360008301526112bd81611281565b9050919050565b7f4e487b7100000000000000000000000000000000000000000000000000000000600052601260045260246000fd5b7f4e487b7100000000000000000000000000000000000000000000000000000000600052601160045260246000fd5b600061132d82610fed565b915061133883610fed565b925082611348576113476112c4565b5b828204905092915050565b7f4e6f7420656e6f75676820616c676f7320666f7220796f752100000000000000600082015250565b6000611389601983611149565b915061139482611353565b602082019050919050565b600060208201905081810360008301526113b88161137c565b9050919050565b60006113ca82610fed565b91507fffffffffffffffffffffffffffffffffffffffffffffffffffffffffffffffff82036113fc576113fb6112f3565b5b600182019050919050565b600061141282610fed565b915061141d83610fed565b9250828201905080821115611435576114346112f3565b5b92915050565b600061144682610fed565b915061145183610fed565b9250828203905081811115611469576114686112f3565b5b92915050565b600061147a82610fed565b915061148583610fed565b925082820261149381610fed565b915082820484148315176114aa576114a96112f3565b5b5092915050565b60006040820190506114c660008301856110b1565b6114d360208301846110b1565b9392505050565b6114e381610fed565b81146114ee57600080fd5b50565b600081519050611500816114da565b92915050565b60006020828403121561151c5761151b611021565b5b600061152a848285016114f1565b91505092915050565b7f4e487b7100000000000000000000000000000000000000000000000000000000600052603260045260246000fd5b600060608201905061157760008301866110b1565b61158460208301856110b1565b6115916040830184610ff7565b949350505050565b6115a2816110c0565b81146115ad57600080fd5b50565b6000815190506115bf81611599565b92915050565b6000602082840312156115db576115da611021565b5b60006115e9848285016115b0565b9150509291505056fea264697066735822122044f7d6d4b9c0004fca95e1682c4d07c23d612e5223b88462dfac1601a2263f5364736f6c63430008150033",
  "devdoc": {
    "kind": "dev",
    "methods": {},
    "version": 1
  },
  "userdoc": {
    "kind": "user",
    "methods": {},
    "version": 1
  },
  "storageLayout": {
    "storage": [
      {
        "astId": 720,
        "contract": "contracts/Dutch_Auction.sol:Dutch_Auction",
        "label": "currentPrice",
        "offset": 0,
        "slot": "0",
        "type": "t_uint256"
      },
      {
        "astId": 722,
        "contract": "contracts/Dutch_Auction.sol:Dutch_Auction",
        "label": "currentUnsoldAlgos",
        "offset": 0,
        "slot": "1",
        "type": "t_uint256"
      },
      {
        "astId": 725,
        "contract": "contracts/Dutch_Auction.sol:Dutch_Auction",
        "label": "totalNumBidders",
        "offset": 0,
        "slot": "2",
        "type": "t_uint256"
      },
      {
        "astId": 727,
        "contract": "contracts/Dutch_Auction.sol:Dutch_Auction",
        "label": "startPrice",
        "offset": 0,
        "slot": "3",
        "type": "t_uint256"
      },
      {
        "astId": 735,
        "contract": "contracts/Dutch_Auction.sol:Dutch_Auction",
        "label": "deployDate",
        "offset": 0,
        "slot": "4",
        "type": "t_uint256"
      },
      {
        "astId": 737,
        "contract": "contracts/Dutch_Auction.sol:Dutch_Auction",
        "label": "startTime",
        "offset": 0,
        "slot": "5",
        "type": "t_uint256"
      },
      {
        "astId": 739,
        "contract": "contracts/Dutch_Auction.sol:Dutch_Auction",
        "label": "endTime",
        "offset": 0,
        "slot": "6",
        "type": "t_uint256"
      },
      {
        "astId": 756,
        "contract": "contracts/Dutch_Auction.sol:Dutch_Auction",
        "label": "biddersAddress",
        "offset": 0,
        "slot": "7",
        "type": "t_array(t_address)dyn_storage"
      },
      {
        "astId": 761,
        "contract": "contracts/Dutch_Auction.sol:Dutch_Auction",
        "label": "biddersList",
        "offset": 0,
        "slot": "8",
        "type": "t_mapping(t_address,t_struct(Bidder)753_storage)"
      }
    ],
    "types": {
      "t_address": {
        "encoding": "inplace",
        "label": "address",
        "numberOfBytes": "20"
      },
      "t_array(t_address)dyn_storage": {
        "base": "t_address",
        "encoding": "dynamic_array",
        "label": "address[]",
        "numberOfBytes": "32"
      },
      "t_bool": {
        "encoding": "inplace",
        "label": "bool",
        "numberOfBytes": "1"
      },
      "t_mapping(t_address,t_struct(Bidder)753_storage)": {
        "encoding": "mapping",
        "key": "t_address",
        "label": "mapping(address => struct Dutch_Auction.Bidder)",
        "numberOfBytes": "32",
        "value": "t_struct(Bidder)753_storage"
      },
      "t_struct(Bidder)753_storage": {
        "encoding": "inplace",
        "label": "struct Dutch_Auction.Bidder",
        "members": [
          {
            "astId": 744,
            "contract": "contracts/Dutch_Auction.sol:Dutch_Auction",
            "label": "bidderID",
            "offset": 0,
            "slot": "0",
            "type": "t_uint256"
          },
          {
            "astId": 746,
            "contract": "contracts/Dutch_Auction.sol:Dutch_Auction",
            "label": "walletAddress",
            "offset": 0,
            "slot": "1",
            "type": "t_address"
          },
          {
            "astId": 748,
            "contract": "contracts/Dutch_Auction.sol:Dutch_Auction",
            "label": "bidValue",
            "offset": 0,
            "slot": "2",
            "type": "t_uint256"
          },
          {
            "astId": 750,
            "contract": "contracts/Dutch_Auction.sol:Dutch_Auction",
            "label": "totalAlgosPurchased",
            "offset": 0,
            "slot": "3",
            "type": "t_uint256"
          },
          {
            "astId": 752,
            "contract": "contracts/Dutch_Auction.sol:Dutch_Auction",
            "label": "isExist",
            "offset": 0,
            "slot": "4",
            "type": "t_bool"
          }
        ],
        "numberOfBytes": "160"
      },
      "t_uint256": {
        "encoding": "inplace",
        "label": "uint256",
        "numberOfBytes": "32"
      }
    }
  }
}