{
  "address": "0xe7f1725E7734CE288F8367e1Bb143E90bb3F0512",
  "abi": [
    {
      "inputs": [
        {
          "internalType": "uint256",
          "name": "_reservePrice",
          "type": "uint256"
        },
        {
          "internalType": "uint256",
          "name": "_startPrice",
          "type": "uint256"
        },
        {
          "internalType": "uint256",
          "name": "_totalAlgosAvailable",
          "type": "uint256"
        },
        {
          "internalType": "address",
          "name": "_token",
          "type": "address"
        },
        {
          "internalType": "uint256",
          "name": "_interval",
          "type": "uint256"
        }
      ],
      "stateMutability": "nonpayable",
      "type": "constructor"
    },
    {
      "inputs": [],
      "name": "Dutch_Auction__IsOwner",
      "type": "error"
    },
    {
      "inputs": [],
      "name": "Dutch_Auction__NotOpen",
      "type": "error"
    },
    {
      "inputs": [],
      "name": "Dutch_Auction__NotOwner",
      "type": "error"
    },
    {
      "inputs": [],
      "name": "Dutch_Auction__Open",
      "type": "error"
    },
    {
      "inputs": [
        {
          "internalType": "uint256",
          "name": "auctionState",
          "type": "uint256"
        }
      ],
      "name": "Dutch_Auction__UpKeepNotNeeded",
      "type": "error"
    },
    {
      "stateMutability": "payable",
      "type": "fallback"
    },
    {
      "inputs": [],
      "name": "addBidder",
      "outputs": [],
      "stateMutability": "payable",
      "type": "function"
    },
    {
      "inputs": [
        {
          "internalType": "address",
          "name": "",
          "type": "address"
        }
      ],
      "name": "biddersList",
      "outputs": [
        {
          "internalType": "uint256",
          "name": "bidderID",
          "type": "uint256"
        },
        {
          "internalType": "address",
          "name": "walletAddress",
          "type": "address"
        },
        {
          "internalType": "uint256",
          "name": "bidValue",
          "type": "uint256"
        },
        {
          "internalType": "uint256",
          "name": "totalAlgosPurchased",
          "type": "uint256"
        },
        {
          "internalType": "uint256",
          "name": "refundEth",
          "type": "uint256"
        },
        {
          "internalType": "bool",
          "name": "isExist",
          "type": "bool"
        }
      ],
      "stateMutability": "view",
      "type": "function"
    },
    {
      "inputs": [],
      "name": "calculate",
      "outputs": [],
      "stateMutability": "nonpayable",
      "type": "function"
    },
    {
      "inputs": [
        {
          "internalType": "bytes",
          "name": "",
          "type": "bytes"
        }
      ],
      "name": "checkUpkeep",
      "outputs": [
        {
          "internalType": "bool",
          "name": "upkeepNeeded",
          "type": "bool"
        },
        {
          "internalType": "bytes",
          "name": "",
          "type": "bytes"
        }
      ],
      "stateMutability": "nonpayable",
      "type": "function"
    },
    {
      "inputs": [],
      "name": "endAuction",
      "outputs": [],
      "stateMutability": "nonpayable",
      "type": "function"
    },
    {
      "inputs": [
        {
          "internalType": "bytes",
          "name": "",
          "type": "bytes"
        }
      ],
      "name": "performUpkeep",
      "outputs": [],
      "stateMutability": "nonpayable",
      "type": "function"
    },
    {
      "inputs": [
        {
          "internalType": "address",
          "name": "bidder",
          "type": "address"
        }
      ],
      "name": "retrieveBidderAlgos",
      "outputs": [
        {
          "internalType": "uint256",
          "name": "",
          "type": "uint256"
        }
      ],
      "stateMutability": "view",
      "type": "function"
    },
    {
      "inputs": [
        {
          "internalType": "address",
          "name": "bidder",
          "type": "address"
        }
      ],
      "name": "retrieveBidderBidValue",
      "outputs": [
        {
          "internalType": "uint256",
          "name": "",
          "type": "uint256"
        }
      ],
      "stateMutability": "view",
      "type": "function"
    },
    {
      "inputs": [],
      "name": "retrieveContractBalance",
      "outputs": [
        {
          "internalType": "uint256",
          "name": "",
          "type": "uint256"
        }
      ],
      "stateMutability": "view",
      "type": "function"
    },
    {
      "inputs": [],
      "name": "retrieveContractOwner",
      "outputs": [
        {
          "internalType": "address",
          "name": "",
          "type": "address"
        }
      ],
      "stateMutability": "view",
      "type": "function"
    },
    {
      "inputs": [],
      "name": "retrieveCurrentPrice",
      "outputs": [
        {
          "internalType": "int256",
          "name": "",
          "type": "int256"
        }
      ],
      "stateMutability": "view",
      "type": "function"
    },
    {
      "inputs": [
        {
          "internalType": "address",
          "name": "bidder",
          "type": "address"
        }
      ],
      "name": "retrieveRefund",
      "outputs": [
        {
          "internalType": "uint256",
          "name": "",
          "type": "uint256"
        }
      ],
      "stateMutability": "view",
      "type": "function"
    },
    {
      "inputs": [],
      "name": "retrieveReservePrice",
      "outputs": [
        {
          "internalType": "uint256",
          "name": "",
          "type": "uint256"
        }
      ],
      "stateMutability": "view",
      "type": "function"
    },
    {
      "inputs": [],
      "name": "retrieveTotalAlgos",
      "outputs": [
        {
          "internalType": "uint256",
          "name": "",
          "type": "uint256"
        }
      ],
      "stateMutability": "view",
      "type": "function"
    },
    {
      "inputs": [],
      "name": "retrieveTotalBidder",
      "outputs": [
        {
          "internalType": "uint256",
          "name": "",
          "type": "uint256"
        }
      ],
      "stateMutability": "view",
      "type": "function"
    },
    {
      "inputs": [],
      "name": "sendTokens",
      "outputs": [],
      "stateMutability": "nonpayable",
      "type": "function"
    },
    {
      "inputs": [],
      "name": "startAuction",
      "outputs": [],
      "stateMutability": "nonpayable",
      "type": "function"
    },
    {
      "inputs": [],
      "name": "updateCurrentPrice",
      "outputs": [],
      "stateMutability": "nonpayable",
      "type": "function"
    },
    {
      "stateMutability": "payable",
      "type": "receive"
    }
  ],
  "transactionHash": "0x02b4b4737ce9719c325533dd2d838c0ec051816a9da9ef4f55071ffb8040a0b6",
  "args": [
    10,
    50,
    200,
    "0x5FbDB2315678afecb367f032d93F642f64180aa3",
    30
  ],
  "numDeployments": 1,
  "solcInputHash": "bf279de47a15ca678f2d65fecfbd04ea",
  "bytecode": "0x61016060405260006001553480156200001757600080fd5b50604051620031c8380380620031c883398181016040528101906200003d919062000226565b83851062000082576040517f08c379a0000000000000000000000000000000000000000000000000000000008152600401620000799062000335565b60405180910390fd5b3373ffffffffffffffffffffffffffffffffffffffff1660c08173ffffffffffffffffffffffffffffffffffffffff16815250508460a081815250508260e081815250508360008190555083608081815250508173ffffffffffffffffffffffffffffffffffffffff166101208173ffffffffffffffffffffffffffffffffffffffff16815250508173ffffffffffffffffffffffffffffffffffffffff166101408173ffffffffffffffffffffffffffffffffffffffff16815250508061010081815250506001600660006101000a81548160ff0219169083600181111562000171576200017062000357565b5b0217905550505050505062000386565b600080fd5b6000819050919050565b6200019b8162000186565b8114620001a757600080fd5b50565b600081519050620001bb8162000190565b92915050565b600073ffffffffffffffffffffffffffffffffffffffff82169050919050565b6000620001ee82620001c1565b9050919050565b6200020081620001e1565b81146200020c57600080fd5b50565b6000815190506200022081620001f5565b92915050565b600080600080600060a0868803121562000245576200024462000181565b5b60006200025588828901620001aa565b95505060206200026888828901620001aa565b94505060406200027b88828901620001aa565b93505060606200028e888289016200020f565b9250506080620002a188828901620001aa565b9150509295509295909350565b600082825260208201905092915050565b7f7265736572766520707269636520697320686967686572207468616e2063757260008201527f72656e7420707269636500000000000000000000000000000000000000000000602082015250565b60006200031d602a83620002ae565b91506200032a82620002bf565b604082019050919050565b6000602082019050818103600083015262000350816200030e565b9050919050565b7f4e487b7100000000000000000000000000000000000000000000000000000000600052602160045260246000fd5b60805160a05160c05160e051610100516101205161014051612d50620004786000396000505060008181611eed0152818161205d01526122d101526000610bbb01526000818161117f0152611cad0152600081816104070152818161078a01528181610819015281816108c601528181610a5401528181610c6b01528181610d3c01528181610dc701528181610f0701528181610f8c01528181610fb40152818161108301528181611c2801528181611cd501528181611d620152818161209901528181612206015261230d01526000818161089e01528181610eaf0152610edb01526000610e720152612d506000f3fe60806040526004361061010d5760003560e01c80637ded653f11610095578063ca77ab6511610064578063ca77ab651461036a578063df38530614610381578063e4655bca146103ac578063e47112bd146103d7578063fe67a54b146103ee5761011c565b80637ded653f146102c0578063aa9d9bd6146102eb578063ac5ece6d14610302578063c6dda9451461032d5761011c565b80634585e33b116100dc5780634585e33b146101c35780636b64c769146101ec5780636e04ff0d146102035780636e3bc76b146102415780637494c875146102835761011c565b80630b3248081461012657806314df33ac146101515780631f8cdb041461017c5780633bc7682c146101865761011c565b3661011c5761011a610405565b005b610124610405565b005b34801561013257600080fd5b5061013b610786565b60405161014891906123ad565b60405180910390f35b34801561015d57600080fd5b50610166610815565b60405161017391906123e1565b60405180910390f35b610184610405565b005b34801561019257600080fd5b506101ad60048036038101906101a8919061246e565b6108c2565b6040516101ba91906123e1565b60405180910390f35b3480156101cf57600080fd5b506101ea60048036038101906101e59190612500565b610993565b005b3480156101f857600080fd5b50610201610a52565b005b34801561020f57600080fd5b5061022a6004803603810190610225919061268e565b610b78565b604051610238929190612771565b60405180910390f35b34801561024d57600080fd5b506102686004803603810190610263919061246e565b610bfe565b60405161027a969594939291906127b0565b60405180910390f35b34801561028f57600080fd5b506102aa60048036038101906102a5919061246e565b610c67565b6040516102b791906123e1565b60405180910390f35b3480156102cc57600080fd5b506102d5610d38565b6040516102e291906123e1565b60405180910390f35b3480156102f757600080fd5b50610300610dc5565b005b34801561030e57600080fd5b50610317610f03565b6040516103249190612811565b60405180910390f35b34801561033957600080fd5b50610354600480360381019061034f919061246e565b610fb0565b60405161036191906123e1565b60405180910390f35b34801561037657600080fd5b5061037f611081565b005b34801561038d57600080fd5b50610396611c24565b6040516103a391906123e1565b60405180910390f35b3480156103b857600080fd5b506103c1611cd1565b6040516103ce91906123e1565b60405180910390f35b3480156103e357600080fd5b506103ec611d60565b005b3480156103fa57600080fd5b50610403612204565b005b7f000000000000000000000000000000000000000000000000000000000000000073ffffffffffffffffffffffffffffffffffffffff163373ffffffffffffffffffffffffffffffffffffffff160361048a576040517fc3fdc7c100000000000000000000000000000000000000000000000000000000815260040160405180910390fd5b600660009054906101000a900460ff1660018111156104ac576104ab61282c565b5b6001808111156104bf576104be61282c565b5b036104f6576040517f5de7a96600000000000000000000000000000000000000000000000000000000815260040160405180910390fd5b60003411610539576040517f08c379a0000000000000000000000000000000000000000000000000000000008152600401610530906128b8565b60405180910390fd5b6104b06002544261054a9190612907565b1061058a576040517f08c379a000000000000000000000000000000000000000000000000000000000815260040161058190612987565b60405180910390fd5b600560003373ffffffffffffffffffffffffffffffffffffffff1673ffffffffffffffffffffffffffffffffffffffff16815260200190815260200160002060050160009054906101000a900460ff16610724576000600560003373ffffffffffffffffffffffffffffffffffffffff1673ffffffffffffffffffffffffffffffffffffffff1681526020019081526020016000209050600160008154610630906129a7565b9190508190558160000181905550338160010160006101000a81548173ffffffffffffffffffffffffffffffffffffffff021916908373ffffffffffffffffffffffffffffffffffffffff16021790555034816002018190555060018160050160006101000a81548160ff02191690831515021790555060008160030181905550600081600401819055506004339080600181540180825580915050600190039060005260206000200160009091909190916101000a81548173ffffffffffffffffffffffffffffffffffffffff021916908373ffffffffffffffffffffffffffffffffffffffff16021790555050610784565b6000600560003373ffffffffffffffffffffffffffffffffffffffff1673ffffffffffffffffffffffffffffffffffffffff16815260200190815260200160002090503481600201600082825461077b91906129ef565b92505081905550505b565b60007f000000000000000000000000000000000000000000000000000000000000000073ffffffffffffffffffffffffffffffffffffffff163373ffffffffffffffffffffffffffffffffffffffff161461080d576040517fae4a21bc00000000000000000000000000000000000000000000000000000000815260040160405180910390fd5b600054905090565b60007f000000000000000000000000000000000000000000000000000000000000000073ffffffffffffffffffffffffffffffffffffffff163373ffffffffffffffffffffffffffffffffffffffff161461089c576040517fae4a21bc00000000000000000000000000000000000000000000000000000000815260040160405180910390fd5b7f0000000000000000000000000000000000000000000000000000000000000000905090565b60007f000000000000000000000000000000000000000000000000000000000000000073ffffffffffffffffffffffffffffffffffffffff163373ffffffffffffffffffffffffffffffffffffffff1614610949576040517fae4a21bc00000000000000000000000000000000000000000000000000000000815260040160405180910390fd5b600560008373ffffffffffffffffffffffffffffffffffffffff1673ffffffffffffffffffffffffffffffffffffffff168152602001908152602001600020600201549050919050565b60006109ad60405180602001604052806000815250610b78565b50905080610a1357600660009054906101000a900460ff1660018111156109d7576109d661282c565b5b6040517f8af44fe0000000000000000000000000000000000000000000000000000000008152600401610a0a91906123e1565b60405180910390fd5b6001600660006101000a81548160ff02191690836001811115610a3957610a3861282c565b5b02179055508015610a4d57610a4c612204565b5b505050565b7f000000000000000000000000000000000000000000000000000000000000000073ffffffffffffffffffffffffffffffffffffffff163373ffffffffffffffffffffffffffffffffffffffff1614610ad7576040517fae4a21bc00000000000000000000000000000000000000000000000000000000815260040160405180910390fd5b600660009054906101000a900460ff166001811115610af957610af861282c565b5b60006001811115610b0d57610b0c61282c565b5b03610b44576040517f6668065e00000000000000000000000000000000000000000000000000000000815260040160405180910390fd5b6000600660006101000a81548160ff02191690836001811115610b6a57610b6961282c565b5b021790555042600281905550565b600060606000600660009054906101000a900460ff166001811115610ba057610b9f61282c565b5b60006001811115610bb457610bb361282c565b5b14905060007f000000000000000000000000000000000000000000000000000000000000000060025442610be89190612907565b119050818015610bf55750805b93505050915091565b60056020528060005260406000206000915090508060000154908060010160009054906101000a900473ffffffffffffffffffffffffffffffffffffffff16908060020154908060030154908060040154908060050160009054906101000a900460ff16905086565b60007f000000000000000000000000000000000000000000000000000000000000000073ffffffffffffffffffffffffffffffffffffffff163373ffffffffffffffffffffffffffffffffffffffff1614610cee576040517fae4a21bc00000000000000000000000000000000000000000000000000000000815260040160405180910390fd5b600560008373ffffffffffffffffffffffffffffffffffffffff1673ffffffffffffffffffffffffffffffffffffffff168152602001908152602001600020600301549050919050565b60007f000000000000000000000000000000000000000000000000000000000000000073ffffffffffffffffffffffffffffffffffffffff163373ffffffffffffffffffffffffffffffffffffffff1614610dbf576040517fae4a21bc00000000000000000000000000000000000000000000000000000000815260040160405180910390fd5b47905090565b7f000000000000000000000000000000000000000000000000000000000000000073ffffffffffffffffffffffffffffffffffffffff163373ffffffffffffffffffffffffffffffffffffffff1614610e4a576040517fae4a21bc00000000000000000000000000000000000000000000000000000000815260040160405180910390fd5b600a601e60025442610e5c9190612907565b610e669190612a52565b610e709190612a83565b7f0000000000000000000000000000000000000000000000000000000000000000610e9b9190612afb565b60008190555060008054131580610ed457507f000000000000000000000000000000000000000000000000000000000000000060005413155b15610f01577f00000000000000000000000000000000000000000000000000000000000000006000819055505b565b60007f000000000000000000000000000000000000000000000000000000000000000073ffffffffffffffffffffffffffffffffffffffff163373ffffffffffffffffffffffffffffffffffffffff1614610f8a576040517fae4a21bc00000000000000000000000000000000000000000000000000000000815260040160405180910390fd5b7f0000000000000000000000000000000000000000000000000000000000000000905090565b60007f000000000000000000000000000000000000000000000000000000000000000073ffffffffffffffffffffffffffffffffffffffff163373ffffffffffffffffffffffffffffffffffffffff1614611037576040517fae4a21bc00000000000000000000000000000000000000000000000000000000815260040160405180910390fd5b600560008373ffffffffffffffffffffffffffffffffffffffff1673ffffffffffffffffffffffffffffffffffffffff168152602001908152602001600020600401549050919050565b7f000000000000000000000000000000000000000000000000000000000000000073ffffffffffffffffffffffffffffffffffffffff163373ffffffffffffffffffffffffffffffffffffffff1614611106576040517fae4a21bc00000000000000000000000000000000000000000000000000000000815260040160405180910390fd5b600660009054906101000a900460ff1660018111156111285761112761282c565b5b6000600181111561113c5761113b61282c565b5b03611173576040517f6668065e00000000000000000000000000000000000000000000000000000000815260040160405180910390fd5b61117b610dc5565b60007f0000000000000000000000000000000000000000000000000000000000000000905060005b600480549050811015611c0f5760005460056000600484815481106111cb576111ca612b3e565b5b9060005260206000200160009054906101000a900473ffffffffffffffffffffffffffffffffffffffff1673ffffffffffffffffffffffffffffffffffffffff1673ffffffffffffffffffffffffffffffffffffffff1681526020019081526020016000206002015461123e9190612a52565b8211156113f75760005460056000600484815481106112605761125f612b3e565b5b9060005260206000200160009054906101000a900473ffffffffffffffffffffffffffffffffffffffff1673ffffffffffffffffffffffffffffffffffffffff1673ffffffffffffffffffffffffffffffffffffffff168152602001908152602001600020600201546112d39190612a52565b60056000600484815481106112eb576112ea612b3e565b5b9060005260206000200160009054906101000a900473ffffffffffffffffffffffffffffffffffffffff1673ffffffffffffffffffffffffffffffffffffffff1673ffffffffffffffffffffffffffffffffffffffff16815260200190815260200160002060030181905550600054600560006004848154811061137257611371612b3e565b5b9060005260206000200160009054906101000a900473ffffffffffffffffffffffffffffffffffffffff1673ffffffffffffffffffffffffffffffffffffffff1673ffffffffffffffffffffffffffffffffffffffff168152602001908152602001600020600201546113e59190612a52565b826113f09190612907565b9150611bfc565b6000821180156114945750600054600560006004848154811061141d5761141c612b3e565b5b9060005260206000200160009054906101000a900473ffffffffffffffffffffffffffffffffffffffff1673ffffffffffffffffffffffffffffffffffffffff1673ffffffffffffffffffffffffffffffffffffffff168152602001908152602001600020600201546114909190612a52565b8211155b15611891578160056000600484815481106114b2576114b1612b3e565b5b9060005260206000200160009054906101000a900473ffffffffffffffffffffffffffffffffffffffff1673ffffffffffffffffffffffffffffffffffffffff1673ffffffffffffffffffffffffffffffffffffffff1681526020019081526020016000206003018190555060009150600054600560006004848154811061153d5761153c612b3e565b5b9060005260206000200160009054906101000a900473ffffffffffffffffffffffffffffffffffffffff1673ffffffffffffffffffffffffffffffffffffffff1673ffffffffffffffffffffffffffffffffffffffff168152602001908152602001600020600301546115b09190612b6d565b60056000600484815481106115c8576115c7612b3e565b5b9060005260206000200160009054906101000a900473ffffffffffffffffffffffffffffffffffffffff1673ffffffffffffffffffffffffffffffffffffffff1673ffffffffffffffffffffffffffffffffffffffff1681526020019081526020016000206002015461163b9190612907565b600560006004848154811061165357611652612b3e565b5b9060005260206000200160009054906101000a900473ffffffffffffffffffffffffffffffffffffffff1673ffffffffffffffffffffffffffffffffffffffff1673ffffffffffffffffffffffffffffffffffffffff16815260200190815260200160002060040181905550600060056000600484815481106116d9576116d8612b3e565b5b9060005260206000200160009054906101000a900473ffffffffffffffffffffffffffffffffffffffff1673ffffffffffffffffffffffffffffffffffffffff1673ffffffffffffffffffffffffffffffffffffffff16815260200190815260200160002060010160009054906101000a900473ffffffffffffffffffffffffffffffffffffffff1673ffffffffffffffffffffffffffffffffffffffff1660056000600485815481106117905761178f612b3e565b5b9060005260206000200160009054906101000a900473ffffffffffffffffffffffffffffffffffffffff1673ffffffffffffffffffffffffffffffffffffffff1673ffffffffffffffffffffffffffffffffffffffff1681526020019081526020016000206004015460405161180590612be0565b60006040518083038185875af1925050503d8060008114611842576040519150601f19603f3d011682016040523d82523d6000602084013e611847565b606091505b505090508061188b576040517f08c379a000000000000000000000000000000000000000000000000000000000815260040161188290612c41565b60405180910390fd5b50611bfb565b600082111580156119225750600060056000600484815481106118b7576118b6612b3e565b5b9060005260206000200160009054906101000a900473ffffffffffffffffffffffffffffffffffffffff1673ffffffffffffffffffffffffffffffffffffffff1673ffffffffffffffffffffffffffffffffffffffff16815260200190815260200160002060030154145b15611bfa57600560006004838154811061193f5761193e612b3e565b5b9060005260206000200160009054906101000a900473ffffffffffffffffffffffffffffffffffffffff1673ffffffffffffffffffffffffffffffffffffffff1673ffffffffffffffffffffffffffffffffffffffff1681526020019081526020016000206002015460056000600484815481106119c0576119bf612b3e565b5b9060005260206000200160009054906101000a900473ffffffffffffffffffffffffffffffffffffffff1673ffffffffffffffffffffffffffffffffffffffff1673ffffffffffffffffffffffffffffffffffffffff1681526020019081526020016000206004018190555060006005600060048481548110611a4657611a45612b3e565b5b9060005260206000200160009054906101000a900473ffffffffffffffffffffffffffffffffffffffff1673ffffffffffffffffffffffffffffffffffffffff1673ffffffffffffffffffffffffffffffffffffffff16815260200190815260200160002060010160009054906101000a900473ffffffffffffffffffffffffffffffffffffffff1673ffffffffffffffffffffffffffffffffffffffff166005600060048581548110611afd57611afc612b3e565b5b9060005260206000200160009054906101000a900473ffffffffffffffffffffffffffffffffffffffff1673ffffffffffffffffffffffffffffffffffffffff1673ffffffffffffffffffffffffffffffffffffffff16815260200190815260200160002060040154604051611b7290612be0565b60006040518083038185875af1925050503d8060008114611baf576040519150601f19603f3d011682016040523d82523d6000602084013e611bb4565b606091505b5050905080611bf8576040517f08c379a0000000000000000000000000000000000000000000000000000000008152600401611bef90612c41565b60405180910390fd5b505b5b5b8080611c07906129a7565b9150506111a3565b506000811115611c2157806003819055505b50565b60007f000000000000000000000000000000000000000000000000000000000000000073ffffffffffffffffffffffffffffffffffffffff163373ffffffffffffffffffffffffffffffffffffffff1614611cab576040517fae4a21bc00000000000000000000000000000000000000000000000000000000815260040160405180910390fd5b7f0000000000000000000000000000000000000000000000000000000000000000905090565b60007f000000000000000000000000000000000000000000000000000000000000000073ffffffffffffffffffffffffffffffffffffffff163373ffffffffffffffffffffffffffffffffffffffff1614611d58576040517fae4a21bc00000000000000000000000000000000000000000000000000000000815260040160405180910390fd5b600154905090565b7f000000000000000000000000000000000000000000000000000000000000000073ffffffffffffffffffffffffffffffffffffffff163373ffffffffffffffffffffffffffffffffffffffff1614611de5576040517fae4a21bc00000000000000000000000000000000000000000000000000000000815260040160405180910390fd5b600660009054906101000a900460ff166001811115611e0757611e0661282c565b5b60006001811115611e1b57611e1a61282c565b5b03611e52576040517f6668065e00000000000000000000000000000000000000000000000000000000815260040160405180910390fd5b60005b6004805490508110156122015760006005600060048481548110611e7c57611e7b612b3e565b5b9060005260206000200160009054906101000a900473ffffffffffffffffffffffffffffffffffffffff1673ffffffffffffffffffffffffffffffffffffffff1673ffffffffffffffffffffffffffffffffffffffff1681526020019081526020016000206003015411156121ee577f000000000000000000000000000000000000000000000000000000000000000073ffffffffffffffffffffffffffffffffffffffff1663095ea7b360048381548110611f3b57611f3a612b3e565b5b9060005260206000200160009054906101000a900473ffffffffffffffffffffffffffffffffffffffff16670de0b6b3a76400006005600060048781548110611f8757611f86612b3e565b5b9060005260206000200160009054906101000a900473ffffffffffffffffffffffffffffffffffffffff1673ffffffffffffffffffffffffffffffffffffffff1673ffffffffffffffffffffffffffffffffffffffff16815260200190815260200160002060030154611ffa9190612b6d565b6040518363ffffffff1660e01b8152600401612017929190612c61565b6020604051808303816000875af1158015612036573d6000803e3d6000fd5b505050506040513d601f19601f8201168201806040525081019061205a9190612cb6565b507f000000000000000000000000000000000000000000000000000000000000000073ffffffffffffffffffffffffffffffffffffffff166323b872dd7f0000000000000000000000000000000000000000000000000000000000000000600484815481106120cc576120cb612b3e565b5b9060005260206000200160009054906101000a900473ffffffffffffffffffffffffffffffffffffffff16670de0b6b3a7640000600560006004888154811061211857612117612b3e565b5b9060005260206000200160009054906101000a900473ffffffffffffffffffffffffffffffffffffffff1673ffffffffffffffffffffffffffffffffffffffff1673ffffffffffffffffffffffffffffffffffffffff1681526020019081526020016000206003015461218b9190612b6d565b6040518463ffffffff1660e01b81526004016121a993929190612ce3565b6020604051808303816000875af11580156121c8573d6000803e3d6000fd5b505050506040513d601f19601f820116820180604052508101906121ec9190612cb6565b505b80806121f9906129a7565b915050611e55565b50565b7f000000000000000000000000000000000000000000000000000000000000000073ffffffffffffffffffffffffffffffffffffffff163373ffffffffffffffffffffffffffffffffffffffff1614612289576040517fae4a21bc00000000000000000000000000000000000000000000000000000000815260040160405180910390fd5b6001600660006101000a81548160ff021916908360018111156122af576122ae61282c565b5b02179055506122bc611081565b6122c4611d60565b60006003541115612392577f000000000000000000000000000000000000000000000000000000000000000073ffffffffffffffffffffffffffffffffffffffff16639dc29fac7f0000000000000000000000000000000000000000000000000000000000000000670de0b6b3a76400006003546123429190612b6d565b6040518363ffffffff1660e01b815260040161235f929190612c61565b600060405180830381600087803b15801561237957600080fd5b505af115801561238d573d6000803e3d6000fd5b505050505b565b6000819050919050565b6123a781612394565b82525050565b60006020820190506123c2600083018461239e565b92915050565b6000819050919050565b6123db816123c8565b82525050565b60006020820190506123f660008301846123d2565b92915050565b6000604051905090565b600080fd5b600080fd5b600073ffffffffffffffffffffffffffffffffffffffff82169050919050565b600061243b82612410565b9050919050565b61244b81612430565b811461245657600080fd5b50565b60008135905061246881612442565b92915050565b60006020828403121561248457612483612406565b5b600061249284828501612459565b91505092915050565b600080fd5b600080fd5b600080fd5b60008083601f8401126124c0576124bf61249b565b5b8235905067ffffffffffffffff8111156124dd576124dc6124a0565b5b6020830191508360018202830111156124f9576124f86124a5565b5b9250929050565b6000806020838503121561251757612516612406565b5b600083013567ffffffffffffffff8111156125355761253461240b565b5b612541858286016124aa565b92509250509250929050565b600080fd5b6000601f19601f8301169050919050565b7f4e487b7100000000000000000000000000000000000000000000000000000000600052604160045260246000fd5b61259b82612552565b810181811067ffffffffffffffff821117156125ba576125b9612563565b5b80604052505050565b60006125cd6123fc565b90506125d98282612592565b919050565b600067ffffffffffffffff8211156125f9576125f8612563565b5b61260282612552565b9050602081019050919050565b82818337600083830152505050565b600061263161262c846125de565b6125c3565b90508281526020810184848401111561264d5761264c61254d565b5b61265884828561260f565b509392505050565b600082601f8301126126755761267461249b565b5b813561268584826020860161261e565b91505092915050565b6000602082840312156126a4576126a3612406565b5b600082013567ffffffffffffffff8111156126c2576126c161240b565b5b6126ce84828501612660565b91505092915050565b60008115159050919050565b6126ec816126d7565b82525050565b600081519050919050565b600082825260208201905092915050565b60005b8381101561272c578082015181840152602081019050612711565b60008484015250505050565b6000612743826126f2565b61274d81856126fd565b935061275d81856020860161270e565b61276681612552565b840191505092915050565b600060408201905061278660008301856126e3565b81810360208301526127988184612738565b90509392505050565b6127aa81612430565b82525050565b600060c0820190506127c560008301896123d2565b6127d260208301886127a1565b6127df60408301876123d2565b6127ec60608301866123d2565b6127f960808301856123d2565b61280660a08301846126e3565b979650505050505050565b600060208201905061282660008301846127a1565b92915050565b7f4e487b7100000000000000000000000000000000000000000000000000000000600052602160045260246000fd5b600082825260208201905092915050565b7f62696456616c7565206c657373207468616e2030000000000000000000000000600082015250565b60006128a260148361285b565b91506128ad8261286c565b602082019050919050565b600060208201905081810360008301526128d181612895565b9050919050565b7f4e487b7100000000000000000000000000000000000000000000000000000000600052601160045260246000fd5b6000612912826123c8565b915061291d836123c8565b9250828203905081811115612935576129346128d8565b5b92915050565b7f74696d6520697320757000000000000000000000000000000000000000000000600082015250565b6000612971600a8361285b565b915061297c8261293b565b602082019050919050565b600060208201905081810360008301526129a081612964565b9050919050565b60006129b2826123c8565b91507fffffffffffffffffffffffffffffffffffffffffffffffffffffffffffffffff82036129e4576129e36128d8565b5b600182019050919050565b60006129fa826123c8565b9150612a05836123c8565b9250828201905080821115612a1d57612a1c6128d8565b5b92915050565b7f4e487b7100000000000000000000000000000000000000000000000000000000600052601260045260246000fd5b6000612a5d826123c8565b9150612a68836123c8565b925082612a7857612a77612a23565b5b828204905092915050565b6000612a8e82612394565b9150612a9983612394565b9250828202612aa781612394565b91507f80000000000000000000000000000000000000000000000000000000000000008414600084121615612adf57612ade6128d8565b5b8282058414831517612af457612af36128d8565b5b5092915050565b6000612b0682612394565b9150612b1183612394565b9250828203905081811260008412168282136000851215161715612b3857612b376128d8565b5b92915050565b7f4e487b7100000000000000000000000000000000000000000000000000000000600052603260045260246000fd5b6000612b78826123c8565b9150612b83836123c8565b9250828202612b91816123c8565b91508282048414831517612ba857612ba76128d8565b5b5092915050565b600081905092915050565b50565b6000612bca600083612baf565b9150612bd582612bba565b600082019050919050565b6000612beb82612bbd565b9150819050919050565b7f4661696c656420746f2073656e64206574686572000000000000000000000000600082015250565b6000612c2b60148361285b565b9150612c3682612bf5565b602082019050919050565b60006020820190508181036000830152612c5a81612c1e565b9050919050565b6000604082019050612c7660008301856127a1565b612c8360208301846123d2565b9392505050565b612c93816126d7565b8114612c9e57600080fd5b50565b600081519050612cb081612c8a565b92915050565b600060208284031215612ccc57612ccb612406565b5b6000612cda84828501612ca1565b91505092915050565b6000606082019050612cf860008301866127a1565b612d0560208301856127a1565b612d1260408301846123d2565b94935050505056fea26469706673582212208d7f10b234ed41f8b96393618816b63176c167216a8a7de085c0bda1e36b665564736f6c63430008150033",
  "devdoc": {
    "kind": "dev",
    "methods": {},
    "version": 1
  },
  "userdoc": {
    "kind": "user",
    "methods": {
      "retrieveTotalAlgos()": {
        "notice": "View and Pure Function "
      },
      "startAuction()": {
        "notice": "public functions "
      }
    },
    "version": 1
  },
  "storageLayout": {
    "storage": [
      {
        "astId": 964,
        "contract": "contracts/Dutch_Auction.sol:Dutch_Auction",
        "label": "currentPrice",
        "offset": 0,
        "slot": "0",
        "type": "t_int256"
      },
      {
        "astId": 967,
        "contract": "contracts/Dutch_Auction.sol:Dutch_Auction",
        "label": "totalNumBidders",
        "offset": 0,
        "slot": "1",
        "type": "t_uint256"
      },
      {
        "astId": 977,
        "contract": "contracts/Dutch_Auction.sol:Dutch_Auction",
        "label": "startTime",
        "offset": 0,
        "slot": "2",
        "type": "t_uint256"
      },
      {
        "astId": 982,
        "contract": "contracts/Dutch_Auction.sol:Dutch_Auction",
        "label": "currentUnsoldAlgos",
        "offset": 0,
        "slot": "3",
        "type": "t_uint256"
      },
      {
        "astId": 992,
        "contract": "contracts/Dutch_Auction.sol:Dutch_Auction",
        "label": "biddersAddress",
        "offset": 0,
        "slot": "4",
        "type": "t_array(t_address)dyn_storage"
      },
      {
        "astId": 997,
        "contract": "contracts/Dutch_Auction.sol:Dutch_Auction",
        "label": "biddersList",
        "offset": 0,
        "slot": "5",
        "type": "t_mapping(t_address,t_struct(Bidder)1010_storage)"
      },
      {
        "astId": 1016,
        "contract": "contracts/Dutch_Auction.sol:Dutch_Auction",
        "label": "s_auctionState",
        "offset": 0,
        "slot": "6",
        "type": "t_enum(AuctionState)1013"
      }
    ],
    "types": {
      "t_address": {
        "encoding": "inplace",
        "label": "address",
        "numberOfBytes": "20"
      },
      "t_array(t_address)dyn_storage": {
        "base": "t_address",
        "encoding": "dynamic_array",
        "label": "address[]",
        "numberOfBytes": "32"
      },
      "t_bool": {
        "encoding": "inplace",
        "label": "bool",
        "numberOfBytes": "1"
      },
      "t_enum(AuctionState)1013": {
        "encoding": "inplace",
        "label": "enum Dutch_Auction.AuctionState",
        "numberOfBytes": "1"
      },
      "t_int256": {
        "encoding": "inplace",
        "label": "int256",
        "numberOfBytes": "32"
      },
      "t_mapping(t_address,t_struct(Bidder)1010_storage)": {
        "encoding": "mapping",
        "key": "t_address",
        "label": "mapping(address => struct Dutch_Auction.Bidder)",
        "numberOfBytes": "32",
        "value": "t_struct(Bidder)1010_storage"
      },
      "t_struct(Bidder)1010_storage": {
        "encoding": "inplace",
        "label": "struct Dutch_Auction.Bidder",
        "members": [
          {
            "astId": 999,
            "contract": "contracts/Dutch_Auction.sol:Dutch_Auction",
            "label": "bidderID",
            "offset": 0,
            "slot": "0",
            "type": "t_uint256"
          },
          {
            "astId": 1001,
            "contract": "contracts/Dutch_Auction.sol:Dutch_Auction",
            "label": "walletAddress",
            "offset": 0,
            "slot": "1",
            "type": "t_address"
          },
          {
            "astId": 1003,
            "contract": "contracts/Dutch_Auction.sol:Dutch_Auction",
            "label": "bidValue",
            "offset": 0,
            "slot": "2",
            "type": "t_uint256"
          },
          {
            "astId": 1005,
            "contract": "contracts/Dutch_Auction.sol:Dutch_Auction",
            "label": "totalAlgosPurchased",
            "offset": 0,
            "slot": "3",
            "type": "t_uint256"
          },
          {
            "astId": 1007,
            "contract": "contracts/Dutch_Auction.sol:Dutch_Auction",
            "label": "refundEth",
            "offset": 0,
            "slot": "4",
            "type": "t_uint256"
          },
          {
            "astId": 1009,
            "contract": "contracts/Dutch_Auction.sol:Dutch_Auction",
            "label": "isExist",
            "offset": 0,
            "slot": "5",
            "type": "t_bool"
          }
        ],
        "numberOfBytes": "192"
      },
      "t_uint256": {
        "encoding": "inplace",
        "label": "uint256",
        "numberOfBytes": "32"
      }
    }
  }
}