{
  "address": "0xCf7Ed3AccA5a467e9e704C703E8D87F634fB0Fc9",
  "abi": [
    {
      "inputs": [
        {
          "internalType": "uint256",
          "name": "_reservePrice",
          "type": "uint256"
        },
        {
          "internalType": "uint256",
          "name": "_startPrice",
          "type": "uint256"
        },
        {
          "internalType": "uint256",
          "name": "_totalAlgosAvailable",
          "type": "uint256"
        },
        {
          "internalType": "address",
          "name": "_token",
          "type": "address"
        },
        {
          "internalType": "uint256",
          "name": "_interval",
          "type": "uint256"
        }
      ],
      "stateMutability": "nonpayable",
      "type": "constructor"
    },
    {
      "inputs": [],
      "name": "Dutch_Auction__IsOwner",
      "type": "error"
    },
    {
      "inputs": [],
      "name": "Dutch_Auction__NotOwner",
      "type": "error"
    },
    {
      "inputs": [
        {
          "internalType": "uint256",
          "name": "auctionState",
          "type": "uint256"
        }
      ],
      "name": "Dutch_Auction__UpKeepNotNeeded",
      "type": "error"
    },
    {
      "inputs": [],
      "name": "addBidder",
      "outputs": [],
      "stateMutability": "payable",
      "type": "function"
    },
    {
      "inputs": [
        {
          "internalType": "address",
          "name": "",
          "type": "address"
        }
      ],
      "name": "biddersList",
      "outputs": [
        {
          "internalType": "uint256",
          "name": "bidderID",
          "type": "uint256"
        },
        {
          "internalType": "address",
          "name": "walletAddress",
          "type": "address"
        },
        {
          "internalType": "uint256",
          "name": "bidValue",
          "type": "uint256"
        },
        {
          "internalType": "uint256",
          "name": "totalAlgosPurchased",
          "type": "uint256"
        },
        {
          "internalType": "bool",
          "name": "isExist",
          "type": "bool"
        }
      ],
      "stateMutability": "view",
      "type": "function"
    },
    {
      "inputs": [
        {
          "internalType": "bytes",
          "name": "",
          "type": "bytes"
        }
      ],
      "name": "checkUpkeep",
      "outputs": [
        {
          "internalType": "bool",
          "name": "upkeepNeeded",
          "type": "bool"
        },
        {
          "internalType": "bytes",
          "name": "",
          "type": "bytes"
        }
      ],
      "stateMutability": "nonpayable",
      "type": "function"
    },
    {
      "inputs": [],
      "name": "endAuction",
      "outputs": [],
      "stateMutability": "nonpayable",
      "type": "function"
    },
    {
      "inputs": [],
      "name": "endTime",
      "outputs": [
        {
          "internalType": "uint256",
          "name": "",
          "type": "uint256"
        }
      ],
      "stateMutability": "view",
      "type": "function"
    },
    {
      "inputs": [
        {
          "internalType": "bytes",
          "name": "",
          "type": "bytes"
        }
      ],
      "name": "performUpkeep",
      "outputs": [],
      "stateMutability": "nonpayable",
      "type": "function"
    },
    {
      "inputs": [],
      "name": "retrieveAlgosRemaining",
      "outputs": [
        {
          "internalType": "uint256",
          "name": "",
          "type": "uint256"
        }
      ],
      "stateMutability": "view",
      "type": "function"
    },
    {
      "inputs": [
        {
          "internalType": "address",
          "name": "bidder",
          "type": "address"
        }
      ],
      "name": "retrieveBidderAlgos",
      "outputs": [
        {
          "internalType": "uint256",
          "name": "",
          "type": "uint256"
        }
      ],
      "stateMutability": "view",
      "type": "function"
    },
    {
      "inputs": [],
      "name": "retrieveContractBalance",
      "outputs": [
        {
          "internalType": "uint256",
          "name": "",
          "type": "uint256"
        }
      ],
      "stateMutability": "view",
      "type": "function"
    },
    {
      "inputs": [],
      "name": "retrieveContractOwner",
      "outputs": [
        {
          "internalType": "address",
          "name": "",
          "type": "address"
        }
      ],
      "stateMutability": "view",
      "type": "function"
    },
    {
      "inputs": [],
      "name": "retrievePrice",
      "outputs": [
        {
          "internalType": "uint256",
          "name": "",
          "type": "uint256"
        }
      ],
      "stateMutability": "view",
      "type": "function"
    },
    {
      "inputs": [],
      "name": "retrieveReservePrice",
      "outputs": [
        {
          "internalType": "uint256",
          "name": "",
          "type": "uint256"
        }
      ],
      "stateMutability": "view",
      "type": "function"
    },
    {
      "inputs": [],
      "name": "retrieveTotalAlgos",
      "outputs": [
        {
          "internalType": "uint256",
          "name": "",
          "type": "uint256"
        }
      ],
      "stateMutability": "view",
      "type": "function"
    },
    {
      "inputs": [],
      "name": "retrieveTotalBidder",
      "outputs": [
        {
          "internalType": "uint256",
          "name": "",
          "type": "uint256"
        }
      ],
      "stateMutability": "view",
      "type": "function"
    },
    {
      "inputs": [],
      "name": "sendTokens",
      "outputs": [],
      "stateMutability": "nonpayable",
      "type": "function"
    },
    {
      "inputs": [],
      "name": "updateCurrentPrice",
      "outputs": [],
      "stateMutability": "nonpayable",
      "type": "function"
    }
  ],
  "transactionHash": "0xdeae118e039f61ee5c5d6965bc4a8467c8c7d36250828405f0b229ef0ba60d55",
  "args": [
    10,
    50,
    200,
    "0x5FbDB2315678afecb367f032d93F642f64180aa3",
    30
  ],
  "numDeployments": 2,
  "solcInputHash": "5ff1818d2b2b9ab625e48a2121d75d95",
  "bytecode": "0x61016060405260006002553480156200001757600080fd5b50604051620021503803806200215083398181016040528101906200003d91906200023b565b83851062000082576040517f08c379a000000000000000000000000000000000000000000000000000000000815260040162000079906200034a565b60405180910390fd5b3373ffffffffffffffffffffffffffffffffffffffff1660a08173ffffffffffffffffffffffffffffffffffffffff168152505084608081815250508260c081815250508260018190555083600081905550836003819055504260e081815250508173ffffffffffffffffffffffffffffffffffffffff166101008173ffffffffffffffffffffffffffffffffffffffff16815250508173ffffffffffffffffffffffffffffffffffffffff166101208173ffffffffffffffffffffffffffffffffffffffff16815250506000600760006101000a81548160ff021916908360018111156200017657620001756200036c565b5b02179055504260088190555080610140818152505050505050506200039b565b600080fd5b6000819050919050565b620001b0816200019b565b8114620001bc57600080fd5b50565b600081519050620001d081620001a5565b92915050565b600073ffffffffffffffffffffffffffffffffffffffff82169050919050565b60006200020382620001d6565b9050919050565b6200021581620001f6565b81146200022157600080fd5b50565b60008151905062000235816200020a565b92915050565b600080600080600060a086880312156200025a576200025962000196565b5b60006200026a88828901620001bf565b95505060206200027d88828901620001bf565b94505060406200029088828901620001bf565b9350506060620002a38882890162000224565b9250506080620002b688828901620001bf565b9150509295509295909350565b600082825260208201905092915050565b7f7265736572766520707269636520697320686967686572207468616e2063757260008201527f72656e7420707269636500000000000000000000000000000000000000000000602082015250565b600062000332602a83620002c3565b91506200033f82620002d4565b604082019050919050565b60006020820190508181036000830152620003658162000323565b9050919050565b7f4e487b7100000000000000000000000000000000000000000000000000000000600052602160045260246000fd5b60805160a05160c05160e051610100516101205161014051611d1062000440600039600061094a01526000505060008181610d3801528181610ea801526110dd0152600081816105830152610acf015260008181610b5801526111960152600081816103ae01528181610a4001528181610b2601528181610b9101528181610ee401528181611050015261111901526000818161038801526104430152611d106000f3fe6080604052600436106100f35760003560e01c8063aa9d9bd61161008a578063e02539c811610059578063e02539c814610300578063e4655bca1461032b578063e47112bd14610356578063fe67a54b1461036d576100f3565b8063aa9d9bd614610268578063ac5ece6d1461027f578063b3ccc8eb146102aa578063df385306146102d5576100f3565b80636e04ff0d116100c65780636e04ff0d146101815780636e3bc76b146101bf5780637494c875146102005780637ded653f1461023d576100f3565b806314df33ac146100f85780631f8cdb04146101235780633197cbb61461012d5780634585e33b14610158575b600080fd5b34801561010457600080fd5b5061010d610384565b60405161011a91906113b2565b60405180910390f35b61012b6103ac565b005b34801561013957600080fd5b50610142610842565b60405161014f91906113b2565b60405180910390f35b34801561016457600080fd5b5061017f600480360381019061017a9190611446565b610848565b005b34801561018d57600080fd5b506101a860048036038101906101a391906115d4565b610907565b6040516101b69291906116b7565b60405180910390f35b3480156101cb57600080fd5b506101e660048036038101906101e19190611745565b61098d565b6040516101f7959493929190611781565b60405180910390f35b34801561020c57600080fd5b5061022760048036038101906102229190611745565b6109f0565b60405161023491906113b2565b60405180910390f35b34801561024957600080fd5b50610252610a3c565b60405161025f91906113b2565b60405180910390f35b34801561027457600080fd5b5061027d610ac9565b005b34801561028b57600080fd5b50610294610b22565b6040516102a191906117d4565b60405180910390f35b3480156102b657600080fd5b506102bf610b4a565b6040516102cc91906113b2565b60405180910390f35b3480156102e157600080fd5b506102ea610b54565b6040516102f791906113b2565b60405180910390f35b34801561030c57600080fd5b50610315610b7c565b60405161032291906113b2565b60405180910390f35b34801561033757600080fd5b50610340610b85565b60405161034d91906113b2565b60405180910390f35b34801561036257600080fd5b5061036b610b8f565b005b34801561037957600080fd5b5061038261104e565b005b60007f0000000000000000000000000000000000000000000000000000000000000000905090565b7f000000000000000000000000000000000000000000000000000000000000000073ffffffffffffffffffffffffffffffffffffffff163373ffffffffffffffffffffffffffffffffffffffff1603610431576040517fc3fdc7c100000000000000000000000000000000000000000000000000000000815260040160405180910390fd5b610439610ac9565b60003490506000547f0000000000000000000000000000000000000000000000000000000000000000106104a2576040517f08c379a000000000000000000000000000000000000000000000000000000000815260040161049990611872565b60405180910390fd5b6000600154116104e7576040517f08c379a00000000000000000000000000000000000000000000000000000000081526004016104de906118de565b60405180910390fd5b60005481101561052c576040517f08c379a00000000000000000000000000000000000000000000000000000000081526004016105239061194a565b60405180910390fd5b6001546000548261053d91906119c8565b111561057e576040517f08c379a000000000000000000000000000000000000000000000000000000000815260040161057590611a45565b60405180910390fd5b6104b07f0000000000000000000000000000000000000000000000000000000000000000426105ad9190611a65565b106105ed576040517f08c379a00000000000000000000000000000000000000000000000000000000081526004016105e490611ae5565b60405180910390fd5b600660003373ffffffffffffffffffffffffffffffffffffffff1673ffffffffffffffffffffffffffffffffffffffff16815260200190815260200160002060040160009054906101000a900460ff16610789576000600660003373ffffffffffffffffffffffffffffffffffffffff1673ffffffffffffffffffffffffffffffffffffffff168152602001908152602001600020905060026000815461069390611b05565b9190508190558160000181905550338160010160006101000a81548173ffffffffffffffffffffffffffffffffffffffff021916908373ffffffffffffffffffffffffffffffffffffffff160217905550818160020181905550600054826106fb91906119c8565b816003018190555060018160040160006101000a81548160ff0219169083151502179055506005339080600181540180825580915050600190039060005260206000200160009091909190916101000a81548173ffffffffffffffffffffffffffffffffffffffff021916908373ffffffffffffffffffffffffffffffffffffffff16021790555050610811565b6000600660003373ffffffffffffffffffffffffffffffffffffffff1673ffffffffffffffffffffffffffffffffffffffff1681526020019081526020016000209050818160020160008282546107e09190611b4d565b92505081905550600054826107f591906119c8565b8160030160008282546108089190611b4d565b92505081905550505b6000548161081f91906119c8565b600160008282546108309190611a65565b9250508190555061083f61118c565b50565b60045481565b600061086260405180602001604052806000815250610907565b509050806108c857600760009054906101000a900460ff16600181111561088c5761088b611b81565b5b6040517f8af44fe00000000000000000000000000000000000000000000000000000000081526004016108bf91906113b2565b60405180910390fd5b6001600760006101000a81548160ff021916908360018111156108ee576108ed611b81565b5b021790555080156109025761090161104e565b5b505050565b600060606000600760009054906101000a900460ff16600181111561092f5761092e611b81565b5b6000600181111561094357610942611b81565b5b14905060007f0000000000000000000000000000000000000000000000000000000000000000600854426109779190611a65565b1190508180156109845750805b93505050915091565b60066020528060005260406000206000915090508060000154908060010160009054906101000a900473ffffffffffffffffffffffffffffffffffffffff16908060020154908060030154908060040160009054906101000a900460ff16905085565b6000600660008373ffffffffffffffffffffffffffffffffffffffff1673ffffffffffffffffffffffffffffffffffffffff168152602001908152602001600020600301549050919050565b60007f000000000000000000000000000000000000000000000000000000000000000073ffffffffffffffffffffffffffffffffffffffff163373ffffffffffffffffffffffffffffffffffffffff1614610ac3576040517fae4a21bc00000000000000000000000000000000000000000000000000000000815260040160405180910390fd5b47905090565b600a601e7f000000000000000000000000000000000000000000000000000000000000000042610af99190611a65565b610b0391906119c8565b610b0d9190611bb0565b600354610b1a9190611a65565b600081905550565b60007f0000000000000000000000000000000000000000000000000000000000000000905090565b6000600154905090565b60007f0000000000000000000000000000000000000000000000000000000000000000905090565b60008054905090565b6000600254905090565b7f000000000000000000000000000000000000000000000000000000000000000073ffffffffffffffffffffffffffffffffffffffff163373ffffffffffffffffffffffffffffffffffffffff1614610c14576040517fae4a21bc00000000000000000000000000000000000000000000000000000000815260040160405180910390fd5b60005b60058054905081101561104b576000546006600060058481548110610c3f57610c3e611bf2565b5b9060005260206000200160009054906101000a900473ffffffffffffffffffffffffffffffffffffffff1673ffffffffffffffffffffffffffffffffffffffff1673ffffffffffffffffffffffffffffffffffffffff16815260200190815260200160002060020154610cb291906119c8565b6006600060058481548110610cca57610cc9611bf2565b5b9060005260206000200160009054906101000a900473ffffffffffffffffffffffffffffffffffffffff1673ffffffffffffffffffffffffffffffffffffffff1673ffffffffffffffffffffffffffffffffffffffff168152602001908152602001600020600301819055507f000000000000000000000000000000000000000000000000000000000000000073ffffffffffffffffffffffffffffffffffffffff1663095ea7b360058381548110610d8657610d85611bf2565b5b9060005260206000200160009054906101000a900473ffffffffffffffffffffffffffffffffffffffff16670de0b6b3a76400006006600060058781548110610dd257610dd1611bf2565b5b9060005260206000200160009054906101000a900473ffffffffffffffffffffffffffffffffffffffff1673ffffffffffffffffffffffffffffffffffffffff1673ffffffffffffffffffffffffffffffffffffffff16815260200190815260200160002060030154610e459190611bb0565b6040518363ffffffff1660e01b8152600401610e62929190611c21565b6020604051808303816000875af1158015610e81573d6000803e3d6000fd5b505050506040513d601f19601f82011682018060405250810190610ea59190611c76565b507f000000000000000000000000000000000000000000000000000000000000000073ffffffffffffffffffffffffffffffffffffffff166323b872dd7f000000000000000000000000000000000000000000000000000000000000000060058481548110610f1757610f16611bf2565b5b9060005260206000200160009054906101000a900473ffffffffffffffffffffffffffffffffffffffff16670de0b6b3a76400006006600060058881548110610f6357610f62611bf2565b5b9060005260206000200160009054906101000a900473ffffffffffffffffffffffffffffffffffffffff1673ffffffffffffffffffffffffffffffffffffffff1673ffffffffffffffffffffffffffffffffffffffff16815260200190815260200160002060030154610fd69190611bb0565b6040518463ffffffff1660e01b8152600401610ff493929190611ca3565b6020604051808303816000875af1158015611013573d6000803e3d6000fd5b505050506040513d601f19601f820116820180604052508101906110379190611c76565b50808061104390611b05565b915050610c17565b50565b7f000000000000000000000000000000000000000000000000000000000000000073ffffffffffffffffffffffffffffffffffffffff163373ffffffffffffffffffffffffffffffffffffffff16146110d3576040517fae4a21bc00000000000000000000000000000000000000000000000000000000815260040160405180910390fd5b6110db610b8f565b7f000000000000000000000000000000000000000000000000000000000000000073ffffffffffffffffffffffffffffffffffffffff16639dc29fac7f00000000000000000000000000000000000000000000000000000000000000006001546040518363ffffffff1660e01b8152600401611158929190611c21565b600060405180830381600087803b15801561117257600080fd5b505af1158015611186573d6000803e3d6000fd5b50505050565b611194610ac9565b7f000000000000000000000000000000000000000000000000000000000000000060018190555060005b6005805490508110156113965760005460066000600584815481106111e6576111e5611bf2565b5b9060005260206000200160009054906101000a900473ffffffffffffffffffffffffffffffffffffffff1673ffffffffffffffffffffffffffffffffffffffff1673ffffffffffffffffffffffffffffffffffffffff1681526020019081526020016000206002015461125991906119c8565b600660006005848154811061127157611270611bf2565b5b9060005260206000200160009054906101000a900473ffffffffffffffffffffffffffffffffffffffff1673ffffffffffffffffffffffffffffffffffffffff1673ffffffffffffffffffffffffffffffffffffffff1681526020019081526020016000206003018190555060005460066000600584815481106112f8576112f7611bf2565b5b9060005260206000200160009054906101000a900473ffffffffffffffffffffffffffffffffffffffff1673ffffffffffffffffffffffffffffffffffffffff1673ffffffffffffffffffffffffffffffffffffffff1681526020019081526020016000206002015461136b91906119c8565b6001600082825461137c9190611a65565b92505081905550808061138e90611b05565b9150506111be565b50565b6000819050919050565b6113ac81611399565b82525050565b60006020820190506113c760008301846113a3565b92915050565b6000604051905090565b600080fd5b600080fd5b600080fd5b600080fd5b600080fd5b60008083601f840112611406576114056113e1565b5b8235905067ffffffffffffffff811115611423576114226113e6565b5b60208301915083600182028301111561143f5761143e6113eb565b5b9250929050565b6000806020838503121561145d5761145c6113d7565b5b600083013567ffffffffffffffff81111561147b5761147a6113dc565b5b611487858286016113f0565b92509250509250929050565b600080fd5b6000601f19601f8301169050919050565b7f4e487b7100000000000000000000000000000000000000000000000000000000600052604160045260246000fd5b6114e182611498565b810181811067ffffffffffffffff82111715611500576114ff6114a9565b5b80604052505050565b60006115136113cd565b905061151f82826114d8565b919050565b600067ffffffffffffffff82111561153f5761153e6114a9565b5b61154882611498565b9050602081019050919050565b82818337600083830152505050565b600061157761157284611524565b611509565b90508281526020810184848401111561159357611592611493565b5b61159e848285611555565b509392505050565b600082601f8301126115bb576115ba6113e1565b5b81356115cb848260208601611564565b91505092915050565b6000602082840312156115ea576115e96113d7565b5b600082013567ffffffffffffffff811115611608576116076113dc565b5b611614848285016115a6565b91505092915050565b60008115159050919050565b6116328161161d565b82525050565b600081519050919050565b600082825260208201905092915050565b60005b83811015611672578082015181840152602081019050611657565b60008484015250505050565b600061168982611638565b6116938185611643565b93506116a3818560208601611654565b6116ac81611498565b840191505092915050565b60006040820190506116cc6000830185611629565b81810360208301526116de818461167e565b90509392505050565b600073ffffffffffffffffffffffffffffffffffffffff82169050919050565b6000611712826116e7565b9050919050565b61172281611707565b811461172d57600080fd5b50565b60008135905061173f81611719565b92915050565b60006020828403121561175b5761175a6113d7565b5b600061176984828501611730565b91505092915050565b61177b81611707565b82525050565b600060a08201905061179660008301886113a3565b6117a36020830187611772565b6117b060408301866113a3565b6117bd60608301856113a3565b6117ca6080830184611629565b9695505050505050565b60006020820190506117e96000830184611772565b92915050565b600082825260208201905092915050565b7f4c6f776572206f7220657175616c20746f20726573657276652070726963652160008201527f20456e64696e672041756374696f6e2100000000000000000000000000000000602082015250565b600061185c6030836117ef565b915061186782611800565b604082019050919050565b6000602082019050818103600083015261188b8161184f565b9050919050565b7f416c6c20416c676f7320536f6c642120456e64696e672041756374696f6e2120600082015250565b60006118c86020836117ef565b91506118d382611892565b602082019050919050565b600060208201905081810360008301526118f7816118bb565b9050919050565b7f62696456616c7565206c6f776572207468616e2063757272656e745072696365600082015250565b60006119346020836117ef565b915061193f826118fe565b602082019050919050565b6000602082019050818103600083015261196381611927565b9050919050565b7f4e487b7100000000000000000000000000000000000000000000000000000000600052601260045260246000fd5b7f4e487b7100000000000000000000000000000000000000000000000000000000600052601160045260246000fd5b60006119d382611399565b91506119de83611399565b9250826119ee576119ed61196a565b5b828204905092915050565b7f4e6f7420656e6f75676820616c676f7320666f7220796f752100000000000000600082015250565b6000611a2f6019836117ef565b9150611a3a826119f9565b602082019050919050565b60006020820190508181036000830152611a5e81611a22565b9050919050565b6000611a7082611399565b9150611a7b83611399565b9250828203905081811115611a9357611a92611999565b5b92915050565b7f74696d6520697320757000000000000000000000000000000000000000000000600082015250565b6000611acf600a836117ef565b9150611ada82611a99565b602082019050919050565b60006020820190508181036000830152611afe81611ac2565b9050919050565b6000611b1082611399565b91507fffffffffffffffffffffffffffffffffffffffffffffffffffffffffffffffff8203611b4257611b41611999565b5b600182019050919050565b6000611b5882611399565b9150611b6383611399565b9250828201905080821115611b7b57611b7a611999565b5b92915050565b7f4e487b7100000000000000000000000000000000000000000000000000000000600052602160045260246000fd5b6000611bbb82611399565b9150611bc683611399565b9250828202611bd481611399565b91508282048414831517611beb57611bea611999565b5b5092915050565b7f4e487b7100000000000000000000000000000000000000000000000000000000600052603260045260246000fd5b6000604082019050611c366000830185611772565b611c4360208301846113a3565b9392505050565b611c538161161d565b8114611c5e57600080fd5b50565b600081519050611c7081611c4a565b92915050565b600060208284031215611c8c57611c8b6113d7565b5b6000611c9a84828501611c61565b91505092915050565b6000606082019050611cb86000830186611772565b611cc56020830185611772565b611cd260408301846113a3565b94935050505056fea26469706673582212200871f0e1d97136503c0cebd5c292d13462a2387aceaa46c523d8d50d163dace664736f6c63430008150033",
  "devdoc": {
    "kind": "dev",
    "methods": {
      "checkUpkeep(bytes)": {
        "details": "This is the function that ChainLink Keeper nodes call They look for the `upkeepneeded` to return true The following should be true in order to return true 1. Time interval should have passed (20minutes) 2. Subscription is funded with LINK 3. Auction should be in \"open\" state"
      }
    },
    "version": 1
  },
  "userdoc": {
    "kind": "user",
    "methods": {
      "addBidder()": {
        "notice": "public functions "
      },
      "checkUpkeep(bytes)": {
        "notice": "Sam Notes: Here is the variable equivalents : s_lastTimeStamp ====> startTime After the 20minutes is up, simply endAuction(); It will do the burn and send the tokens as well"
      },
      "retrievePrice()": {
        "notice": "View and Pure Function "
      }
    },
    "version": 1
  },
  "storageLayout": {
    "storage": [
      {
        "astId": 861,
        "contract": "contracts/Dutch_Auction.sol:Dutch_Auction",
        "label": "currentPrice",
        "offset": 0,
        "slot": "0",
        "type": "t_uint256"
      },
      {
        "astId": 863,
        "contract": "contracts/Dutch_Auction.sol:Dutch_Auction",
        "label": "currentUnsoldAlgos",
        "offset": 0,
        "slot": "1",
        "type": "t_uint256"
      },
      {
        "astId": 866,
        "contract": "contracts/Dutch_Auction.sol:Dutch_Auction",
        "label": "totalNumBidders",
        "offset": 0,
        "slot": "2",
        "type": "t_uint256"
      },
      {
        "astId": 868,
        "contract": "contracts/Dutch_Auction.sol:Dutch_Auction",
        "label": "startPrice",
        "offset": 0,
        "slot": "3",
        "type": "t_uint256"
      },
      {
        "astId": 878,
        "contract": "contracts/Dutch_Auction.sol:Dutch_Auction",
        "label": "endTime",
        "offset": 0,
        "slot": "4",
        "type": "t_uint256"
      },
      {
        "astId": 897,
        "contract": "contracts/Dutch_Auction.sol:Dutch_Auction",
        "label": "biddersAddress",
        "offset": 0,
        "slot": "5",
        "type": "t_array(t_address)dyn_storage"
      },
      {
        "astId": 902,
        "contract": "contracts/Dutch_Auction.sol:Dutch_Auction",
        "label": "biddersList",
        "offset": 0,
        "slot": "6",
        "type": "t_mapping(t_address,t_struct(Bidder)894_storage)"
      },
      {
        "astId": 908,
        "contract": "contracts/Dutch_Auction.sol:Dutch_Auction",
        "label": "s_auctionState",
        "offset": 0,
        "slot": "7",
        "type": "t_enum(AuctionState)905"
      },
      {
        "astId": 910,
        "contract": "contracts/Dutch_Auction.sol:Dutch_Auction",
        "label": "s_lastTimeStamp",
        "offset": 0,
        "slot": "8",
        "type": "t_uint256"
      }
    ],
    "types": {
      "t_address": {
        "encoding": "inplace",
        "label": "address",
        "numberOfBytes": "20"
      },
      "t_array(t_address)dyn_storage": {
        "base": "t_address",
        "encoding": "dynamic_array",
        "label": "address[]",
        "numberOfBytes": "32"
      },
      "t_bool": {
        "encoding": "inplace",
        "label": "bool",
        "numberOfBytes": "1"
      },
      "t_enum(AuctionState)905": {
        "encoding": "inplace",
        "label": "enum Dutch_Auction.AuctionState",
        "numberOfBytes": "1"
      },
      "t_mapping(t_address,t_struct(Bidder)894_storage)": {
        "encoding": "mapping",
        "key": "t_address",
        "label": "mapping(address => struct Dutch_Auction.Bidder)",
        "numberOfBytes": "32",
        "value": "t_struct(Bidder)894_storage"
      },
      "t_struct(Bidder)894_storage": {
        "encoding": "inplace",
        "label": "struct Dutch_Auction.Bidder",
        "members": [
          {
            "astId": 885,
            "contract": "contracts/Dutch_Auction.sol:Dutch_Auction",
            "label": "bidderID",
            "offset": 0,
            "slot": "0",
            "type": "t_uint256"
          },
          {
            "astId": 887,
            "contract": "contracts/Dutch_Auction.sol:Dutch_Auction",
            "label": "walletAddress",
            "offset": 0,
            "slot": "1",
            "type": "t_address"
          },
          {
            "astId": 889,
            "contract": "contracts/Dutch_Auction.sol:Dutch_Auction",
            "label": "bidValue",
            "offset": 0,
            "slot": "2",
            "type": "t_uint256"
          },
          {
            "astId": 891,
            "contract": "contracts/Dutch_Auction.sol:Dutch_Auction",
            "label": "totalAlgosPurchased",
            "offset": 0,
            "slot": "3",
            "type": "t_uint256"
          },
          {
            "astId": 893,
            "contract": "contracts/Dutch_Auction.sol:Dutch_Auction",
            "label": "isExist",
            "offset": 0,
            "slot": "4",
            "type": "t_bool"
          }
        ],
        "numberOfBytes": "160"
      },
      "t_uint256": {
        "encoding": "inplace",
        "label": "uint256",
        "numberOfBytes": "32"
      }
    }
  }
}