{
  "address": "0xF5ac40B42b0291be77932aF6418352eDd5F30730",
  "abi": [
    {
      "inputs": [
        {
          "internalType": "uint256",
          "name": "_reservePrice",
          "type": "uint256"
        },
        {
          "internalType": "uint256",
          "name": "_startPrice",
          "type": "uint256"
        },
        {
          "internalType": "uint256",
          "name": "_totalAlgosAvailable",
          "type": "uint256"
        },
        {
          "internalType": "uint256",
          "name": "_interval",
          "type": "uint256"
        }
      ],
      "stateMutability": "nonpayable",
      "type": "constructor"
    },
    {
      "inputs": [],
      "name": "Dutch_Auction__IsOwner",
      "type": "error"
    },
    {
      "inputs": [],
      "name": "Dutch_Auction__NotOpen",
      "type": "error"
    },
    {
      "inputs": [],
      "name": "Dutch_Auction__NotOwner",
      "type": "error"
    },
    {
      "inputs": [],
      "name": "Dutch_Auction__Open",
      "type": "error"
    },
    {
      "inputs": [
        {
          "internalType": "uint256",
          "name": "auctionState",
          "type": "uint256"
        }
      ],
      "name": "Dutch_Auction__UpKeepNotNeeded",
      "type": "error"
    },
    {
      "anonymous": false,
      "inputs": [
        {
          "indexed": false,
          "internalType": "address",
          "name": "bidderAddress",
          "type": "address"
        },
        {
          "indexed": false,
          "internalType": "uint256",
          "name": "TokensPurchased",
          "type": "uint256"
        },
        {
          "indexed": false,
          "internalType": "uint256",
          "name": "refundValue",
          "type": "uint256"
        }
      ],
      "name": "RefundEvent",
      "type": "event"
    },
    {
      "anonymous": false,
      "inputs": [
        {
          "indexed": false,
          "internalType": "uint256",
          "name": "bidderID",
          "type": "uint256"
        },
        {
          "indexed": false,
          "internalType": "address",
          "name": "walletAddress",
          "type": "address"
        },
        {
          "indexed": false,
          "internalType": "uint256",
          "name": "bidvalue",
          "type": "uint256"
        }
      ],
      "name": "addBidderEvent",
      "type": "event"
    },
    {
      "anonymous": false,
      "inputs": [
        {
          "indexed": false,
          "internalType": "uint256",
          "name": "totalBidders",
          "type": "uint256"
        },
        {
          "indexed": false,
          "internalType": "uint256",
          "name": "burntERC20",
          "type": "uint256"
        },
        {
          "indexed": false,
          "internalType": "uint256",
          "name": "totalETHEarned",
          "type": "uint256"
        }
      ],
      "name": "endAuctionEvent",
      "type": "event"
    },
    {
      "anonymous": false,
      "inputs": [
        {
          "indexed": false,
          "internalType": "address",
          "name": "bidderAddres",
          "type": "address"
        },
        {
          "indexed": false,
          "internalType": "uint256",
          "name": "tokensSent",
          "type": "uint256"
        }
      ],
      "name": "sendTokenEvent",
      "type": "event"
    },
    {
      "anonymous": false,
      "inputs": [
        {
          "indexed": false,
          "internalType": "uint256",
          "name": "startTime",
          "type": "uint256"
        },
        {
          "indexed": false,
          "internalType": "address",
          "name": "ERC20Address",
          "type": "address"
        }
      ],
      "name": "startAuctionEvent",
      "type": "event"
    },
    {
      "anonymous": false,
      "inputs": [
        {
          "indexed": false,
          "internalType": "uint256",
          "name": "timeElapsed",
          "type": "uint256"
        },
        {
          "indexed": false,
          "internalType": "uint256",
          "name": "currentprice",
          "type": "uint256"
        }
      ],
      "name": "updateCurrentPriceEvent",
      "type": "event"
    },
    {
      "stateMutability": "payable",
      "type": "fallback"
    },
    {
      "inputs": [],
      "name": "addBidder",
      "outputs": [],
      "stateMutability": "payable",
      "type": "function"
    },
    {
      "inputs": [
        {
          "internalType": "address",
          "name": "",
          "type": "address"
        }
      ],
      "name": "biddersList",
      "outputs": [
        {
          "internalType": "uint256",
          "name": "bidderID",
          "type": "uint256"
        },
        {
          "internalType": "address",
          "name": "walletAddress",
          "type": "address"
        },
        {
          "internalType": "uint256",
          "name": "bidValue",
          "type": "uint256"
        },
        {
          "internalType": "uint256",
          "name": "totalAlgosPurchased",
          "type": "uint256"
        },
        {
          "internalType": "uint256",
          "name": "refundEth",
          "type": "uint256"
        },
        {
          "internalType": "bool",
          "name": "isExist",
          "type": "bool"
        }
      ],
      "stateMutability": "view",
      "type": "function"
    },
    {
      "inputs": [],
      "name": "calculate",
      "outputs": [],
      "stateMutability": "nonpayable",
      "type": "function"
    },
    {
      "inputs": [
        {
          "internalType": "bytes",
          "name": "",
          "type": "bytes"
        }
      ],
      "name": "checkUpkeep",
      "outputs": [
        {
          "internalType": "bool",
          "name": "upkeepNeeded",
          "type": "bool"
        },
        {
          "internalType": "bytes",
          "name": "",
          "type": "bytes"
        }
      ],
      "stateMutability": "nonpayable",
      "type": "function"
    },
    {
      "inputs": [],
      "name": "endAuction",
      "outputs": [],
      "stateMutability": "nonpayable",
      "type": "function"
    },
    {
      "inputs": [
        {
          "internalType": "bytes",
          "name": "",
          "type": "bytes"
        }
      ],
      "name": "performUpkeep",
      "outputs": [],
      "stateMutability": "nonpayable",
      "type": "function"
    },
    {
      "inputs": [
        {
          "internalType": "address",
          "name": "bidder",
          "type": "address"
        }
      ],
      "name": "retrieveBidderAlgos",
      "outputs": [
        {
          "internalType": "uint256",
          "name": "",
          "type": "uint256"
        }
      ],
      "stateMutability": "view",
      "type": "function"
    },
    {
      "inputs": [
        {
          "internalType": "address",
          "name": "bidder",
          "type": "address"
        }
      ],
      "name": "retrieveBidderBidValue",
      "outputs": [
        {
          "internalType": "uint256",
          "name": "",
          "type": "uint256"
        }
      ],
      "stateMutability": "view",
      "type": "function"
    },
    {
      "inputs": [],
      "name": "retrieveContractBalance",
      "outputs": [
        {
          "internalType": "uint256",
          "name": "",
          "type": "uint256"
        }
      ],
      "stateMutability": "view",
      "type": "function"
    },
    {
      "inputs": [],
      "name": "retrieveContractOwner",
      "outputs": [
        {
          "internalType": "address",
          "name": "",
          "type": "address"
        }
      ],
      "stateMutability": "view",
      "type": "function"
    },
    {
      "inputs": [],
      "name": "retrieveCurrentPrice",
      "outputs": [
        {
          "internalType": "int256",
          "name": "",
          "type": "int256"
        }
      ],
      "stateMutability": "view",
      "type": "function"
    },
    {
      "inputs": [
        {
          "internalType": "address",
          "name": "bidder",
          "type": "address"
        }
      ],
      "name": "retrieveRefund",
      "outputs": [
        {
          "internalType": "uint256",
          "name": "",
          "type": "uint256"
        }
      ],
      "stateMutability": "view",
      "type": "function"
    },
    {
      "inputs": [],
      "name": "retrieveReservePrice",
      "outputs": [
        {
          "internalType": "uint256",
          "name": "",
          "type": "uint256"
        }
      ],
      "stateMutability": "view",
      "type": "function"
    },
    {
      "inputs": [],
      "name": "retrieveTotalAlgos",
      "outputs": [
        {
          "internalType": "uint256",
          "name": "",
          "type": "uint256"
        }
      ],
      "stateMutability": "view",
      "type": "function"
    },
    {
      "inputs": [],
      "name": "retrieveTotalBidder",
      "outputs": [
        {
          "internalType": "uint256",
          "name": "",
          "type": "uint256"
        }
      ],
      "stateMutability": "view",
      "type": "function"
    },
    {
      "inputs": [],
      "name": "sendTokens",
      "outputs": [],
      "stateMutability": "nonpayable",
      "type": "function"
    },
    {
      "inputs": [
        {
          "internalType": "address",
          "name": "_token",
          "type": "address"
        }
      ],
      "name": "startAuction",
      "outputs": [],
      "stateMutability": "nonpayable",
      "type": "function"
    },
    {
      "inputs": [],
      "name": "updateCurrentPrice",
      "outputs": [],
      "stateMutability": "nonpayable",
      "type": "function"
    },
    {
      "stateMutability": "payable",
      "type": "receive"
    }
  ],
  "transactionHash": "0x3743cca4310ce20462f9055bc61056cd94dedd612f17e1f4339bb374d2324a62",
  "args": [
    10,
    50,
    200,
    30
  ],
  "numDeployments": 6,
  "solcInputHash": "0a9727fac036ea946ea28650072d3095",
  "bytecode": "0x61012060405260006001553480156200001757600080fd5b50604051620035d9380380620035d983398181016040528101906200003d919062000156565b82841062000082576040517f08c379a000000000000000000000000000000000000000000000000000000000815260040162000079906200024f565b60405180910390fd5b3373ffffffffffffffffffffffffffffffffffffffff1660c08173ffffffffffffffffffffffffffffffffffffffff16815250508360a081815250508160e081815250508260008190555082608081815250508061010081815250506001600860006101000a81548160ff0219169083600181111562000107576200010662000271565b5b021790555050505050620002a0565b600080fd5b6000819050919050565b62000130816200011b565b81146200013c57600080fd5b50565b600081519050620001508162000125565b92915050565b6000806000806080858703121562000173576200017262000116565b5b600062000183878288016200013f565b945050602062000196878288016200013f565b9350506040620001a9878288016200013f565b9250506060620001bc878288016200013f565b91505092959194509250565b600082825260208201905092915050565b7f7265736572766520707269636520697320686967686572207468616e2063757260008201527f72656e7420707269636500000000000000000000000000000000000000000000602082015250565b600062000237602a83620001c8565b91506200024482620001d9565b604082019050919050565b600060208201905081810360008301526200026a8162000228565b9050919050565b7f4e487b7100000000000000000000000000000000000000000000000000000000600052602160045260246000fd5b60805160a05160c05160e05161010051613268620003716000396000610cf20152600081816112fe0152611fa501526000818161041901528181610803015281816108920152818161093f01528181610a0e01528181610da201528181610e7301528181610efe015281816110860152818161110b015281816111330152818161120201528181611f2001528181611fcd0152818161205a01528181612395015281816125f9015261270201526000818161091701528181610fe6015261101201526000610fa901526132686000f3fe60806040526004361061010d5760003560e01c80637ded653f11610095578063ca77ab6511610064578063ca77ab651461037c578063df38530614610393578063e4655bca146103be578063e47112bd146103e9578063fe67a54b146104005761011c565b80637ded653f146102d2578063aa9d9bd6146102fd578063ac5ece6d14610314578063c6dda9451461033f5761011c565b80634075fa0f116100dc5780634075fa0f146101c35780634585e33b146101ec5780636e04ff0d146102155780636e3bc76b146102535780637494c875146102955761011c565b80630b3248081461012657806314df33ac146101515780631f8cdb041461017c5780633bc7682c146101865761011c565b3661011c5761011a610417565b005b610124610417565b005b34801561013257600080fd5b5061013b6107ff565b60405161014891906127ce565b60405180910390f35b34801561015d57600080fd5b5061016661088e565b6040516101739190612802565b60405180910390f35b610184610417565b005b34801561019257600080fd5b506101ad60048036038101906101a8919061288f565b61093b565b6040516101ba9190612802565b60405180910390f35b3480156101cf57600080fd5b506101ea60048036038101906101e5919061288f565b610a0c565b005b3480156101f857600080fd5b50610213600480360381019061020e9190612921565b610bf0565b005b34801561022157600080fd5b5061023c60048036038101906102379190612aaf565b610caf565b60405161024a929190612b92565b60405180910390f35b34801561025f57600080fd5b5061027a6004803603810190610275919061288f565b610d35565b60405161028c96959493929190612bd1565b60405180910390f35b3480156102a157600080fd5b506102bc60048036038101906102b7919061288f565b610d9e565b6040516102c99190612802565b60405180910390f35b3480156102de57600080fd5b506102e7610e6f565b6040516102f49190612802565b60405180910390f35b34801561030957600080fd5b50610312610efc565b005b34801561032057600080fd5b50610329611082565b6040516103369190612c32565b60405180910390f35b34801561034b57600080fd5b506103666004803603810190610361919061288f565b61112f565b6040516103739190612802565b60405180910390f35b34801561038857600080fd5b50610391611200565b005b34801561039f57600080fd5b506103a8611f1c565b6040516103b59190612802565b60405180910390f35b3480156103ca57600080fd5b506103d3611fc9565b6040516103e09190612802565b60405180910390f35b3480156103f557600080fd5b506103fe612058565b005b34801561040c57600080fd5b506104156125f7565b005b7f000000000000000000000000000000000000000000000000000000000000000073ffffffffffffffffffffffffffffffffffffffff163373ffffffffffffffffffffffffffffffffffffffff160361049c576040517fc3fdc7c100000000000000000000000000000000000000000000000000000000815260040160405180910390fd5b600860009054906101000a900460ff1660018111156104be576104bd612c4d565b5b6001808111156104d1576104d0612c4d565b5b03610508576040517f5de7a96600000000000000000000000000000000000000000000000000000000815260040160405180910390fd5b6000341161054b576040517f08c379a000000000000000000000000000000000000000000000000000000000815260040161054290612cd9565b60405180910390fd5b6104b06002544261055c9190612d28565b1061059c576040517f08c379a000000000000000000000000000000000000000000000000000000000815260040161059390612da8565b60405180910390fd5b600760003373ffffffffffffffffffffffffffffffffffffffff1673ffffffffffffffffffffffffffffffffffffffff16815260200190815260200160002060050160009054906101000a900460ff1661079d576000600760003373ffffffffffffffffffffffffffffffffffffffff1673ffffffffffffffffffffffffffffffffffffffff168152602001908152602001600020905060016000815461064290612dc8565b9190508190558160000181905550338160010160006101000a81548173ffffffffffffffffffffffffffffffffffffffff021916908373ffffffffffffffffffffffffffffffffffffffff16021790555034816002018190555060018160050160006101000a81548160ff02191690831515021790555060008160030181905550600081600401819055506006339080600181540180825580915050600190039060005260206000200160009091909190916101000a81548173ffffffffffffffffffffffffffffffffffffffff021916908373ffffffffffffffffffffffffffffffffffffffff1602179055507f6559452b5cf88e12990371c9441273d2dbb464fb7dd9cc4030551b86df924b6281600001548260010160009054906101000a900473ffffffffffffffffffffffffffffffffffffffff16836002015460405161078f93929190612e10565b60405180910390a1506107fd565b6000600760003373ffffffffffffffffffffffffffffffffffffffff1673ffffffffffffffffffffffffffffffffffffffff1681526020019081526020016000209050348160020160008282546107f49190612e47565b92505081905550505b565b60007f000000000000000000000000000000000000000000000000000000000000000073ffffffffffffffffffffffffffffffffffffffff163373ffffffffffffffffffffffffffffffffffffffff1614610886576040517fae4a21bc00000000000000000000000000000000000000000000000000000000815260040160405180910390fd5b600054905090565b60007f000000000000000000000000000000000000000000000000000000000000000073ffffffffffffffffffffffffffffffffffffffff163373ffffffffffffffffffffffffffffffffffffffff1614610915576040517fae4a21bc00000000000000000000000000000000000000000000000000000000815260040160405180910390fd5b7f0000000000000000000000000000000000000000000000000000000000000000905090565b60007f000000000000000000000000000000000000000000000000000000000000000073ffffffffffffffffffffffffffffffffffffffff163373ffffffffffffffffffffffffffffffffffffffff16146109c2576040517fae4a21bc00000000000000000000000000000000000000000000000000000000815260040160405180910390fd5b600760008373ffffffffffffffffffffffffffffffffffffffff1673ffffffffffffffffffffffffffffffffffffffff168152602001908152602001600020600201549050919050565b7f000000000000000000000000000000000000000000000000000000000000000073ffffffffffffffffffffffffffffffffffffffff163373ffffffffffffffffffffffffffffffffffffffff1614610a91576040517fae4a21bc00000000000000000000000000000000000000000000000000000000815260040160405180910390fd5b600860009054906101000a900460ff166001811115610ab357610ab2612c4d565b5b60006001811115610ac757610ac6612c4d565b5b03610afe576040517f6668065e00000000000000000000000000000000000000000000000000000000815260040160405180910390fd5b6000600860006101000a81548160ff02191690836001811115610b2457610b23612c4d565b5b02179055504260028190555080600460006101000a81548173ffffffffffffffffffffffffffffffffffffffff021916908373ffffffffffffffffffffffffffffffffffffffff16021790555080600560006101000a81548173ffffffffffffffffffffffffffffffffffffffff021916908373ffffffffffffffffffffffffffffffffffffffff1602179055507ff22abd93b9682674a6b5ebbb244653f7cc25bfab21953abff8d9e8627883557660025482604051610be5929190612e7b565b60405180910390a150565b6000610c0a60405180602001604052806000815250610caf565b50905080610c7057600860009054906101000a900460ff166001811115610c3457610c33612c4d565b5b6040517f8af44fe0000000000000000000000000000000000000000000000000000000008152600401610c679190612802565b60405180910390fd5b6001600860006101000a81548160ff02191690836001811115610c9657610c95612c4d565b5b02179055508015610caa57610ca96125f7565b5b505050565b600060606000600860009054906101000a900460ff166001811115610cd757610cd6612c4d565b5b60006001811115610ceb57610cea612c4d565b5b14905060007f000000000000000000000000000000000000000000000000000000000000000060025442610d1f9190612d28565b119050818015610d2c5750805b93505050915091565b60076020528060005260406000206000915090508060000154908060010160009054906101000a900473ffffffffffffffffffffffffffffffffffffffff16908060020154908060030154908060040154908060050160009054906101000a900460ff16905086565b60007f000000000000000000000000000000000000000000000000000000000000000073ffffffffffffffffffffffffffffffffffffffff163373ffffffffffffffffffffffffffffffffffffffff1614610e25576040517fae4a21bc00000000000000000000000000000000000000000000000000000000815260040160405180910390fd5b600760008373ffffffffffffffffffffffffffffffffffffffff1673ffffffffffffffffffffffffffffffffffffffff168152602001908152602001600020600301549050919050565b60007f000000000000000000000000000000000000000000000000000000000000000073ffffffffffffffffffffffffffffffffffffffff163373ffffffffffffffffffffffffffffffffffffffff1614610ef6576040517fae4a21bc00000000000000000000000000000000000000000000000000000000815260040160405180910390fd5b47905090565b7f000000000000000000000000000000000000000000000000000000000000000073ffffffffffffffffffffffffffffffffffffffff163373ffffffffffffffffffffffffffffffffffffffff1614610f81576040517fae4a21bc00000000000000000000000000000000000000000000000000000000815260040160405180910390fd5b600a601e60025442610f939190612d28565b610f9d9190612ed3565b610fa79190612f04565b7f0000000000000000000000000000000000000000000000000000000000000000610fd29190612f7c565b6000819055506000805413158061100b57507f000000000000000000000000000000000000000000000000000000000000000060005413155b15611038577f00000000000000000000000000000000000000000000000000000000000000006000819055505b7f7cda8554820ef0a356899263aefa9db86ab6966b7b823eda047b78c3afdfeb8e600254426110679190612d28565b600054604051611078929190612fbf565b60405180910390a1565b60007f000000000000000000000000000000000000000000000000000000000000000073ffffffffffffffffffffffffffffffffffffffff163373ffffffffffffffffffffffffffffffffffffffff1614611109576040517fae4a21bc00000000000000000000000000000000000000000000000000000000815260040160405180910390fd5b7f0000000000000000000000000000000000000000000000000000000000000000905090565b60007f000000000000000000000000000000000000000000000000000000000000000073ffffffffffffffffffffffffffffffffffffffff163373ffffffffffffffffffffffffffffffffffffffff16146111b6576040517fae4a21bc00000000000000000000000000000000000000000000000000000000815260040160405180910390fd5b600760008373ffffffffffffffffffffffffffffffffffffffff1673ffffffffffffffffffffffffffffffffffffffff168152602001908152602001600020600401549050919050565b7f000000000000000000000000000000000000000000000000000000000000000073ffffffffffffffffffffffffffffffffffffffff163373ffffffffffffffffffffffffffffffffffffffff1614611285576040517fae4a21bc00000000000000000000000000000000000000000000000000000000815260040160405180910390fd5b600860009054906101000a900460ff1660018111156112a7576112a6612c4d565b5b600060018111156112bb576112ba612c4d565b5b036112f2576040517f6668065e00000000000000000000000000000000000000000000000000000000815260040160405180910390fd5b6112fa610efc565b60007f0000000000000000000000000000000000000000000000000000000000000000905060005b600680549050811015611f0757600054600760006006848154811061134a57611349612fe8565b5b9060005260206000200160009054906101000a900473ffffffffffffffffffffffffffffffffffffffff1673ffffffffffffffffffffffffffffffffffffffff1673ffffffffffffffffffffffffffffffffffffffff168152602001908152602001600020600201546113bd9190612ed3565b8211156115765760005460076000600684815481106113df576113de612fe8565b5b9060005260206000200160009054906101000a900473ffffffffffffffffffffffffffffffffffffffff1673ffffffffffffffffffffffffffffffffffffffff1673ffffffffffffffffffffffffffffffffffffffff168152602001908152602001600020600201546114529190612ed3565b600760006006848154811061146a57611469612fe8565b5b9060005260206000200160009054906101000a900473ffffffffffffffffffffffffffffffffffffffff1673ffffffffffffffffffffffffffffffffffffffff1673ffffffffffffffffffffffffffffffffffffffff1681526020019081526020016000206003018190555060005460076000600684815481106114f1576114f0612fe8565b5b9060005260206000200160009054906101000a900473ffffffffffffffffffffffffffffffffffffffff1673ffffffffffffffffffffffffffffffffffffffff1673ffffffffffffffffffffffffffffffffffffffff168152602001908152602001600020600201546115649190612ed3565b8261156f9190612d28565b9150611d7b565b6000821180156116135750600054600760006006848154811061159c5761159b612fe8565b5b9060005260206000200160009054906101000a900473ffffffffffffffffffffffffffffffffffffffff1673ffffffffffffffffffffffffffffffffffffffff1673ffffffffffffffffffffffffffffffffffffffff1681526020019081526020016000206002015461160f9190612ed3565b8211155b15611a105781600760006006848154811061163157611630612fe8565b5b9060005260206000200160009054906101000a900473ffffffffffffffffffffffffffffffffffffffff1673ffffffffffffffffffffffffffffffffffffffff1673ffffffffffffffffffffffffffffffffffffffff168152602001908152602001600020600301819055506000915060005460076000600684815481106116bc576116bb612fe8565b5b9060005260206000200160009054906101000a900473ffffffffffffffffffffffffffffffffffffffff1673ffffffffffffffffffffffffffffffffffffffff1673ffffffffffffffffffffffffffffffffffffffff1681526020019081526020016000206003015461172f9190613017565b600760006006848154811061174757611746612fe8565b5b9060005260206000200160009054906101000a900473ffffffffffffffffffffffffffffffffffffffff1673ffffffffffffffffffffffffffffffffffffffff1673ffffffffffffffffffffffffffffffffffffffff168152602001908152602001600020600201546117ba9190612d28565b60076000600684815481106117d2576117d1612fe8565b5b9060005260206000200160009054906101000a900473ffffffffffffffffffffffffffffffffffffffff1673ffffffffffffffffffffffffffffffffffffffff1673ffffffffffffffffffffffffffffffffffffffff168152602001908152602001600020600401819055506000600760006006848154811061185857611857612fe8565b5b9060005260206000200160009054906101000a900473ffffffffffffffffffffffffffffffffffffffff1673ffffffffffffffffffffffffffffffffffffffff1673ffffffffffffffffffffffffffffffffffffffff16815260200190815260200160002060010160009054906101000a900473ffffffffffffffffffffffffffffffffffffffff1673ffffffffffffffffffffffffffffffffffffffff16600760006006858154811061190f5761190e612fe8565b5b9060005260206000200160009054906101000a900473ffffffffffffffffffffffffffffffffffffffff1673ffffffffffffffffffffffffffffffffffffffff1673ffffffffffffffffffffffffffffffffffffffff168152602001908152602001600020600401546040516119849061308a565b60006040518083038185875af1925050503d80600081146119c1576040519150601f19603f3d011682016040523d82523d6000602084013e6119c6565b606091505b5050905080611a0a576040517f08c379a0000000000000000000000000000000000000000000000000000000008152600401611a01906130eb565b60405180910390fd5b50611d7a565b60008211158015611aa1575060006007600060068481548110611a3657611a35612fe8565b5b9060005260206000200160009054906101000a900473ffffffffffffffffffffffffffffffffffffffff1673ffffffffffffffffffffffffffffffffffffffff1673ffffffffffffffffffffffffffffffffffffffff16815260200190815260200160002060030154145b15611d79576007600060068381548110611abe57611abd612fe8565b5b9060005260206000200160009054906101000a900473ffffffffffffffffffffffffffffffffffffffff1673ffffffffffffffffffffffffffffffffffffffff1673ffffffffffffffffffffffffffffffffffffffff168152602001908152602001600020600201546007600060068481548110611b3f57611b3e612fe8565b5b9060005260206000200160009054906101000a900473ffffffffffffffffffffffffffffffffffffffff1673ffffffffffffffffffffffffffffffffffffffff1673ffffffffffffffffffffffffffffffffffffffff1681526020019081526020016000206004018190555060006007600060068481548110611bc557611bc4612fe8565b5b9060005260206000200160009054906101000a900473ffffffffffffffffffffffffffffffffffffffff1673ffffffffffffffffffffffffffffffffffffffff1673ffffffffffffffffffffffffffffffffffffffff16815260200190815260200160002060010160009054906101000a900473ffffffffffffffffffffffffffffffffffffffff1673ffffffffffffffffffffffffffffffffffffffff166007600060068581548110611c7c57611c7b612fe8565b5b9060005260206000200160009054906101000a900473ffffffffffffffffffffffffffffffffffffffff1673ffffffffffffffffffffffffffffffffffffffff1673ffffffffffffffffffffffffffffffffffffffff16815260200190815260200160002060040154604051611cf19061308a565b60006040518083038185875af1925050503d8060008114611d2e576040519150601f19603f3d011682016040523d82523d6000602084013e611d33565b606091505b5050905080611d77576040517f08c379a0000000000000000000000000000000000000000000000000000000008152600401611d6e906130eb565b60405180910390fd5b505b5b5b7fb24b09fd2e8e4d8904c3c26f3e935824e032891520ffda419dec9f086b0e1eea60068281548110611db057611daf612fe8565b5b9060005260206000200160009054906101000a900473ffffffffffffffffffffffffffffffffffffffff166007600060068581548110611df357611df2612fe8565b5b9060005260206000200160009054906101000a900473ffffffffffffffffffffffffffffffffffffffff1673ffffffffffffffffffffffffffffffffffffffff1673ffffffffffffffffffffffffffffffffffffffff168152602001908152602001600020600301546007600060068681548110611e7457611e73612fe8565b5b9060005260206000200160009054906101000a900473ffffffffffffffffffffffffffffffffffffffff1673ffffffffffffffffffffffffffffffffffffffff1673ffffffffffffffffffffffffffffffffffffffff16815260200190815260200160002060040154604051611eec9392919061310b565b60405180910390a18080611eff90612dc8565b915050611322565b506000811115611f1957806003819055505b50565b60007f000000000000000000000000000000000000000000000000000000000000000073ffffffffffffffffffffffffffffffffffffffff163373ffffffffffffffffffffffffffffffffffffffff1614611fa3576040517fae4a21bc00000000000000000000000000000000000000000000000000000000815260040160405180910390fd5b7f0000000000000000000000000000000000000000000000000000000000000000905090565b60007f000000000000000000000000000000000000000000000000000000000000000073ffffffffffffffffffffffffffffffffffffffff163373ffffffffffffffffffffffffffffffffffffffff1614612050576040517fae4a21bc00000000000000000000000000000000000000000000000000000000815260040160405180910390fd5b600154905090565b7f000000000000000000000000000000000000000000000000000000000000000073ffffffffffffffffffffffffffffffffffffffff163373ffffffffffffffffffffffffffffffffffffffff16146120dd576040517fae4a21bc00000000000000000000000000000000000000000000000000000000815260040160405180910390fd5b600860009054906101000a900460ff1660018111156120ff576120fe612c4d565b5b6000600181111561211357612112612c4d565b5b0361214a576040517f6668065e00000000000000000000000000000000000000000000000000000000815260040160405180910390fd5b60005b6006805490508110156125f4576000600760006006848154811061217457612173612fe8565b5b9060005260206000200160009054906101000a900473ffffffffffffffffffffffffffffffffffffffff1673ffffffffffffffffffffffffffffffffffffffff1673ffffffffffffffffffffffffffffffffffffffff1681526020019081526020016000206003015411156125e157600460009054906101000a900473ffffffffffffffffffffffffffffffffffffffff1673ffffffffffffffffffffffffffffffffffffffff1663095ea7b36006838154811061223557612234612fe8565b5b9060005260206000200160009054906101000a900473ffffffffffffffffffffffffffffffffffffffff16670de0b6b3a7640000600760006006878154811061228157612280612fe8565b5b9060005260206000200160009054906101000a900473ffffffffffffffffffffffffffffffffffffffff1673ffffffffffffffffffffffffffffffffffffffff1673ffffffffffffffffffffffffffffffffffffffff168152602001908152602001600020600301546122f49190613017565b6040518363ffffffff1660e01b8152600401612311929190613142565b6020604051808303816000875af1158015612330573d6000803e3d6000fd5b505050506040513d601f19601f820116820180604052508101906123549190613197565b50600460009054906101000a900473ffffffffffffffffffffffffffffffffffffffff1673ffffffffffffffffffffffffffffffffffffffff166323b872dd7f0000000000000000000000000000000000000000000000000000000000000000600684815481106123c8576123c7612fe8565b5b9060005260206000200160009054906101000a900473ffffffffffffffffffffffffffffffffffffffff16670de0b6b3a7640000600760006006888154811061241457612413612fe8565b5b9060005260206000200160009054906101000a900473ffffffffffffffffffffffffffffffffffffffff1673ffffffffffffffffffffffffffffffffffffffff1673ffffffffffffffffffffffffffffffffffffffff168152602001908152602001600020600301546124879190613017565b6040518463ffffffff1660e01b81526004016124a5939291906131c4565b6020604051808303816000875af11580156124c4573d6000803e3d6000fd5b505050506040513d601f19601f820116820180604052508101906124e89190613197565b507f039b13884cbcea684931b2bcff6faab7170693e1bc173e651e14168c890c70806006828154811061251e5761251d612fe8565b5b9060005260206000200160009054906101000a900473ffffffffffffffffffffffffffffffffffffffff16600760006006858154811061256157612560612fe8565b5b9060005260206000200160009054906101000a900473ffffffffffffffffffffffffffffffffffffffff1673ffffffffffffffffffffffffffffffffffffffff1673ffffffffffffffffffffffffffffffffffffffff168152602001908152602001600020600301546040516125d8929190613142565b60405180910390a15b80806125ec90612dc8565b91505061214d565b50565b7f000000000000000000000000000000000000000000000000000000000000000073ffffffffffffffffffffffffffffffffffffffff163373ffffffffffffffffffffffffffffffffffffffff161461267c576040517fae4a21bc00000000000000000000000000000000000000000000000000000000815260040160405180910390fd5b6001600860006101000a81548160ff021916908360018111156126a2576126a1612c4d565b5b02179055506126af611200565b6126b7612058565b6000600354111561277457600460009054906101000a900473ffffffffffffffffffffffffffffffffffffffff1673ffffffffffffffffffffffffffffffffffffffff16639dc29fac7f00000000000000000000000000000000000000000000000000000000000000006003546040518363ffffffff1660e01b8152600401612741929190613142565b600060405180830381600087803b15801561275b57600080fd5b505af115801561276f573d6000803e3d6000fd5b505050505b7f99d9aed25b1415a4a35a1890d2ee6aa1db28f98ba8eff1de3d494a6af9dca772600154600354476040516127ab939291906131fb565b60405180910390a1565b6000819050919050565b6127c8816127b5565b82525050565b60006020820190506127e360008301846127bf565b92915050565b6000819050919050565b6127fc816127e9565b82525050565b600060208201905061281760008301846127f3565b92915050565b6000604051905090565b600080fd5b600080fd5b600073ffffffffffffffffffffffffffffffffffffffff82169050919050565b600061285c82612831565b9050919050565b61286c81612851565b811461287757600080fd5b50565b60008135905061288981612863565b92915050565b6000602082840312156128a5576128a4612827565b5b60006128b38482850161287a565b91505092915050565b600080fd5b600080fd5b600080fd5b60008083601f8401126128e1576128e06128bc565b5b8235905067ffffffffffffffff8111156128fe576128fd6128c1565b5b60208301915083600182028301111561291a576129196128c6565b5b9250929050565b6000806020838503121561293857612937612827565b5b600083013567ffffffffffffffff8111156129565761295561282c565b5b612962858286016128cb565b92509250509250929050565b600080fd5b6000601f19601f8301169050919050565b7f4e487b7100000000000000000000000000000000000000000000000000000000600052604160045260246000fd5b6129bc82612973565b810181811067ffffffffffffffff821117156129db576129da612984565b5b80604052505050565b60006129ee61281d565b90506129fa82826129b3565b919050565b600067ffffffffffffffff821115612a1a57612a19612984565b5b612a2382612973565b9050602081019050919050565b82818337600083830152505050565b6000612a52612a4d846129ff565b6129e4565b905082815260208101848484011115612a6e57612a6d61296e565b5b612a79848285612a30565b509392505050565b600082601f830112612a9657612a956128bc565b5b8135612aa6848260208601612a3f565b91505092915050565b600060208284031215612ac557612ac4612827565b5b600082013567ffffffffffffffff811115612ae357612ae261282c565b5b612aef84828501612a81565b91505092915050565b60008115159050919050565b612b0d81612af8565b82525050565b600081519050919050565b600082825260208201905092915050565b60005b83811015612b4d578082015181840152602081019050612b32565b60008484015250505050565b6000612b6482612b13565b612b6e8185612b1e565b9350612b7e818560208601612b2f565b612b8781612973565b840191505092915050565b6000604082019050612ba76000830185612b04565b8181036020830152612bb98184612b59565b90509392505050565b612bcb81612851565b82525050565b600060c082019050612be660008301896127f3565b612bf36020830188612bc2565b612c0060408301876127f3565b612c0d60608301866127f3565b612c1a60808301856127f3565b612c2760a0830184612b04565b979650505050505050565b6000602082019050612c476000830184612bc2565b92915050565b7f4e487b7100000000000000000000000000000000000000000000000000000000600052602160045260246000fd5b600082825260208201905092915050565b7f62696456616c7565206c657373207468616e2030000000000000000000000000600082015250565b6000612cc3601483612c7c565b9150612cce82612c8d565b602082019050919050565b60006020820190508181036000830152612cf281612cb6565b9050919050565b7f4e487b7100000000000000000000000000000000000000000000000000000000600052601160045260246000fd5b6000612d33826127e9565b9150612d3e836127e9565b9250828203905081811115612d5657612d55612cf9565b5b92915050565b7f74696d6520697320757000000000000000000000000000000000000000000000600082015250565b6000612d92600a83612c7c565b9150612d9d82612d5c565b602082019050919050565b60006020820190508181036000830152612dc181612d85565b9050919050565b6000612dd3826127e9565b91507fffffffffffffffffffffffffffffffffffffffffffffffffffffffffffffffff8203612e0557612e04612cf9565b5b600182019050919050565b6000606082019050612e2560008301866127f3565b612e326020830185612bc2565b612e3f60408301846127f3565b949350505050565b6000612e52826127e9565b9150612e5d836127e9565b9250828201905080821115612e7557612e74612cf9565b5b92915050565b6000604082019050612e9060008301856127f3565b612e9d6020830184612bc2565b9392505050565b7f4e487b7100000000000000000000000000000000000000000000000000000000600052601260045260246000fd5b6000612ede826127e9565b9150612ee9836127e9565b925082612ef957612ef8612ea4565b5b828204905092915050565b6000612f0f826127b5565b9150612f1a836127b5565b9250828202612f28816127b5565b91507f80000000000000000000000000000000000000000000000000000000000000008414600084121615612f6057612f5f612cf9565b5b8282058414831517612f7557612f74612cf9565b5b5092915050565b6000612f87826127b5565b9150612f92836127b5565b9250828203905081811260008412168282136000851215161715612fb957612fb8612cf9565b5b92915050565b6000604082019050612fd460008301856127f3565b612fe160208301846127f3565b9392505050565b7f4e487b7100000000000000000000000000000000000000000000000000000000600052603260045260246000fd5b6000613022826127e9565b915061302d836127e9565b925082820261303b816127e9565b9150828204841483151761305257613051612cf9565b5b5092915050565b600081905092915050565b50565b6000613074600083613059565b915061307f82613064565b600082019050919050565b600061309582613067565b9150819050919050565b7f4661696c656420746f2073656e64206574686572000000000000000000000000600082015250565b60006130d5601483612c7c565b91506130e08261309f565b602082019050919050565b60006020820190508181036000830152613104816130c8565b9050919050565b60006060820190506131206000830186612bc2565b61312d60208301856127f3565b61313a60408301846127f3565b949350505050565b60006040820190506131576000830185612bc2565b61316460208301846127f3565b9392505050565b61317481612af8565b811461317f57600080fd5b50565b6000815190506131918161316b565b92915050565b6000602082840312156131ad576131ac612827565b5b60006131bb84828501613182565b91505092915050565b60006060820190506131d96000830186612bc2565b6131e66020830185612bc2565b6131f360408301846127f3565b949350505050565b600060608201905061321060008301866127f3565b61321d60208301856127f3565b61322a60408301846127f3565b94935050505056fea264697066735822122003c2e341d391d58d3fc3eb5f11893eb207f5cd02a23c4385e349c8842168aa3a64736f6c63430008150033",
  "devdoc": {
    "kind": "dev",
    "methods": {},
    "version": 1
  },
  "userdoc": {
    "events": {
      "startAuctionEvent(uint256,address)": {
        "notice": "Events"
      }
    },
    "kind": "user",
    "methods": {
      "addBidder()": {
        "notice": "public functions "
      },
      "retrieveTotalAlgos()": {
        "notice": "View and Pure Function "
      }
    },
    "version": 1
  },
  "storageLayout": {
    "storage": [
      {
        "astId": 964,
        "contract": "contracts/Dutch_Auction.sol:Dutch_Auction",
        "label": "currentPrice",
        "offset": 0,
        "slot": "0",
        "type": "t_int256"
      },
      {
        "astId": 967,
        "contract": "contracts/Dutch_Auction.sol:Dutch_Auction",
        "label": "totalNumBidders",
        "offset": 0,
        "slot": "1",
        "type": "t_uint256"
      },
      {
        "astId": 977,
        "contract": "contracts/Dutch_Auction.sol:Dutch_Auction",
        "label": "startTime",
        "offset": 0,
        "slot": "2",
        "type": "t_uint256"
      },
      {
        "astId": 982,
        "contract": "contracts/Dutch_Auction.sol:Dutch_Auction",
        "label": "currentUnsoldAlgos",
        "offset": 0,
        "slot": "3",
        "type": "t_uint256"
      },
      {
        "astId": 987,
        "contract": "contracts/Dutch_Auction.sol:Dutch_Auction",
        "label": "DAToken",
        "offset": 0,
        "slot": "4",
        "type": "t_contract(ERC20Token)1988"
      },
      {
        "astId": 989,
        "contract": "contracts/Dutch_Auction.sol:Dutch_Auction",
        "label": "ERC20ContractAddress",
        "offset": 0,
        "slot": "5",
        "type": "t_address"
      },
      {
        "astId": 992,
        "contract": "contracts/Dutch_Auction.sol:Dutch_Auction",
        "label": "biddersAddress",
        "offset": 0,
        "slot": "6",
        "type": "t_array(t_address)dyn_storage"
      },
      {
        "astId": 997,
        "contract": "contracts/Dutch_Auction.sol:Dutch_Auction",
        "label": "biddersList",
        "offset": 0,
        "slot": "7",
        "type": "t_mapping(t_address,t_struct(Bidder)1010_storage)"
      },
      {
        "astId": 1016,
        "contract": "contracts/Dutch_Auction.sol:Dutch_Auction",
        "label": "s_auctionState",
        "offset": 0,
        "slot": "8",
        "type": "t_enum(AuctionState)1013"
      }
    ],
    "types": {
      "t_address": {
        "encoding": "inplace",
        "label": "address",
        "numberOfBytes": "20"
      },
      "t_array(t_address)dyn_storage": {
        "base": "t_address",
        "encoding": "dynamic_array",
        "label": "address[]",
        "numberOfBytes": "32"
      },
      "t_bool": {
        "encoding": "inplace",
        "label": "bool",
        "numberOfBytes": "1"
      },
      "t_contract(ERC20Token)1988": {
        "encoding": "inplace",
        "label": "contract ERC20Token",
        "numberOfBytes": "20"
      },
      "t_enum(AuctionState)1013": {
        "encoding": "inplace",
        "label": "enum Dutch_Auction.AuctionState",
        "numberOfBytes": "1"
      },
      "t_int256": {
        "encoding": "inplace",
        "label": "int256",
        "numberOfBytes": "32"
      },
      "t_mapping(t_address,t_struct(Bidder)1010_storage)": {
        "encoding": "mapping",
        "key": "t_address",
        "label": "mapping(address => struct Dutch_Auction.Bidder)",
        "numberOfBytes": "32",
        "value": "t_struct(Bidder)1010_storage"
      },
      "t_struct(Bidder)1010_storage": {
        "encoding": "inplace",
        "label": "struct Dutch_Auction.Bidder",
        "members": [
          {
            "astId": 999,
            "contract": "contracts/Dutch_Auction.sol:Dutch_Auction",
            "label": "bidderID",
            "offset": 0,
            "slot": "0",
            "type": "t_uint256"
          },
          {
            "astId": 1001,
            "contract": "contracts/Dutch_Auction.sol:Dutch_Auction",
            "label": "walletAddress",
            "offset": 0,
            "slot": "1",
            "type": "t_address"
          },
          {
            "astId": 1003,
            "contract": "contracts/Dutch_Auction.sol:Dutch_Auction",
            "label": "bidValue",
            "offset": 0,
            "slot": "2",
            "type": "t_uint256"
          },
          {
            "astId": 1005,
            "contract": "contracts/Dutch_Auction.sol:Dutch_Auction",
            "label": "totalAlgosPurchased",
            "offset": 0,
            "slot": "3",
            "type": "t_uint256"
          },
          {
            "astId": 1007,
            "contract": "contracts/Dutch_Auction.sol:Dutch_Auction",
            "label": "refundEth",
            "offset": 0,
            "slot": "4",
            "type": "t_uint256"
          },
          {
            "astId": 1009,
            "contract": "contracts/Dutch_Auction.sol:Dutch_Auction",
            "label": "isExist",
            "offset": 0,
            "slot": "5",
            "type": "t_bool"
          }
        ],
        "numberOfBytes": "192"
      },
      "t_uint256": {
        "encoding": "inplace",
        "label": "uint256",
        "numberOfBytes": "32"
      }
    }
  }
}