{
  "address": "0x8464135c8F25Da09e49BC8782676a84730C318bC",
  "abi": [
    {
      "inputs": [
        {
          "internalType": "address payable",
          "name": "_target",
          "type": "address"
        }
      ],
      "stateMutability": "payable",
      "type": "constructor"
    },
    {
      "stateMutability": "payable",
      "type": "fallback"
    },
    {
      "inputs": [],
      "name": "ReentranceAttack1",
      "outputs": [],
      "stateMutability": "nonpayable",
      "type": "function"
    },
    {
      "inputs": [],
      "name": "ReentranceAttack2",
      "outputs": [],
      "stateMutability": "nonpayable",
      "type": "function"
    }
  ],
  "transactionHash": "0x722d8e26825cf87e98bedc0783e9f556f6f0a1fa4ec931ade1cbcf089bf4798a",
  "args": [
    "0x5FbDB2315678afecb367f032d93F642f64180aa3"
  ],
  "numDeployments": 1,
  "solcInputHash": "1b964e4a6ea4ad35425dac8d428d0f1b",
  "bytecode": "0x60806040526040516103b13803806103b18339818101604052810190610025919061010f565b806000806101000a81548173ffffffffffffffffffffffffffffffffffffffff021916908373ffffffffffffffffffffffffffffffffffffffff16021790555080600160006101000a81548173ffffffffffffffffffffffffffffffffffffffff021916908373ffffffffffffffffffffffffffffffffffffffff1602179055505061013c565b600080fd5b600073ffffffffffffffffffffffffffffffffffffffff82169050919050565b60006100dc826100b1565b9050919050565b6100ec816100d1565b81146100f757600080fd5b50565b600081519050610109816100e3565b92915050565b600060208284031215610125576101246100ac565b5b6000610133848285016100fa565b91505092915050565b6102668061014b6000396000f3fe60806040526004361061002d5760003560e01c80630bddd66d146100f3578063fcd36e9c1461010a5761002e565b5b6000600160009054906101000a900473ffffffffffffffffffffffffffffffffffffffff1673ffffffffffffffffffffffffffffffffffffffff163111156100f15760008054906101000a900473ffffffffffffffffffffffffffffffffffffffff1673ffffffffffffffffffffffffffffffffffffffff166312210e8a6040518163ffffffff1660e01b8152600401600060405180830381600087803b1580156100d857600080fd5b505af11580156100ec573d6000803e3d6000fd5b505050505b005b3480156100ff57600080fd5b50610108610121565b005b34801561011657600080fd5b5061011f6101a6565b005b60008054906101000a900473ffffffffffffffffffffffffffffffffffffffff1673ffffffffffffffffffffffffffffffffffffffff16631f8cdb046103e86040518263ffffffff1660e01b81526004016000604051808303818588803b15801561018b57600080fd5b505af115801561019f573d6000803e3d6000fd5b5050505050565b60008054906101000a900473ffffffffffffffffffffffffffffffffffffffff1673ffffffffffffffffffffffffffffffffffffffff16631f8cdb0466038d7ea4c680006040518263ffffffff1660e01b81526004016000604051808303818588803b15801561021557600080fd5b505af1158015610229573d6000803e3d6000fd5b505050505056fea2646970667358221220c4b1b34c442fa030b72849e598ddfef3f6a005cce555c4035a3bd8048ee7b46664736f6c63430008150033",
  "devdoc": {
    "kind": "dev",
    "methods": {},
    "version": 1
  },
  "userdoc": {
    "kind": "user",
    "methods": {},
    "version": 1
  },
  "storageLayout": {
    "storage": [
      {
        "astId": 2132,
        "contract": "contracts/ReEntrancyAttack.sol:ReEntrancyAttack",
        "label": "target",
        "offset": 0,
        "slot": "0",
        "type": "t_contract(Dutch_Auction)2058"
      },
      {
        "astId": 2134,
        "contract": "contracts/ReEntrancyAttack.sol:ReEntrancyAttack",
        "label": "targetA",
        "offset": 0,
        "slot": "1",
        "type": "t_address"
      }
    ],
    "types": {
      "t_address": {
        "encoding": "inplace",
        "label": "address",
        "numberOfBytes": "20"
      },
      "t_contract(Dutch_Auction)2058": {
        "encoding": "inplace",
        "label": "contract Dutch_Auction",
        "numberOfBytes": "20"
      }
    }
  }
}