{
  "_format": "hh-sol-artifact-1",
  "contractName": "Dutch_Auction",
  "sourceName": "contracts/Dutch_Auction.sol",
  "abi": [
    {
      "inputs": [
        {
          "internalType": "uint256",
          "name": "_reservePrice",
          "type": "uint256"
        },
        {
          "internalType": "uint256",
          "name": "_startPrice",
          "type": "uint256"
        }
      ],
      "stateMutability": "nonpayable",
      "type": "constructor"
    },
    {
      "inputs": [],
      "name": "Dutch_Auction__IsOwner",
      "type": "error"
    },
    {
      "inputs": [],
      "name": "Dutch_Auction__NotOpen",
      "type": "error"
    },
    {
      "inputs": [],
      "name": "Dutch_Auction__NotOwner",
      "type": "error"
    },
    {
      "inputs": [],
      "name": "Dutch_Auction__Open",
      "type": "error"
    },
    {
      "anonymous": false,
      "inputs": [
        {
          "indexed": false,
          "internalType": "address",
          "name": "bidderAddress",
          "type": "address"
        },
        {
          "indexed": false,
          "internalType": "uint256",
          "name": "TokensPurchased",
          "type": "uint256"
        },
        {
          "indexed": false,
          "internalType": "uint256",
          "name": "refundValue",
          "type": "uint256"
        }
      ],
      "name": "RefundEvent",
      "type": "event"
    },
    {
      "anonymous": false,
      "inputs": [
        {
          "indexed": false,
          "internalType": "uint256",
          "name": "bidderID",
          "type": "uint256"
        },
        {
          "indexed": false,
          "internalType": "address",
          "name": "walletAddress",
          "type": "address"
        },
        {
          "indexed": false,
          "internalType": "uint256",
          "name": "bidvalue",
          "type": "uint256"
        }
      ],
      "name": "addBidderEvent",
      "type": "event"
    },
    {
      "anonymous": false,
      "inputs": [
        {
          "indexed": false,
          "internalType": "address",
          "name": "bidderAddress",
          "type": "address"
        },
        {
          "indexed": false,
          "internalType": "uint256",
          "name": "TokensPurchased",
          "type": "uint256"
        },
        {
          "indexed": false,
          "internalType": "uint256",
          "name": "refundValue",
          "type": "uint256"
        }
      ],
      "name": "calculateEvent",
      "type": "event"
    },
    {
      "anonymous": false,
      "inputs": [
        {
          "indexed": false,
          "internalType": "uint256",
          "name": "totalBidders",
          "type": "uint256"
        },
        {
          "indexed": false,
          "internalType": "uint256",
          "name": "burntERC20",
          "type": "uint256"
        },
        {
          "indexed": false,
          "internalType": "uint256",
          "name": "totalETHEarned",
          "type": "uint256"
        }
      ],
      "name": "endAuctionEvent",
      "type": "event"
    },
    {
      "anonymous": false,
      "inputs": [
        {
          "indexed": false,
          "internalType": "address",
          "name": "bidderAddress",
          "type": "address"
        },
        {
          "indexed": false,
          "internalType": "uint256",
          "name": "tokensSent",
          "type": "uint256"
        }
      ],
      "name": "sendTokenEvent",
      "type": "event"
    },
    {
      "anonymous": false,
      "inputs": [
        {
          "indexed": false,
          "internalType": "uint256",
          "name": "startTime",
          "type": "uint256"
        },
        {
          "indexed": false,
          "internalType": "address",
          "name": "ERC20Address",
          "type": "address"
        },
        {
          "indexed": false,
          "internalType": "uint256",
          "name": "totalAlgosAvailable",
          "type": "uint256"
        },
        {
          "indexed": false,
          "internalType": "uint256",
          "name": "changePerMin",
          "type": "uint256"
        }
      ],
      "name": "startAuctionEvent",
      "type": "event"
    },
    {
      "anonymous": false,
      "inputs": [
        {
          "indexed": false,
          "internalType": "uint256",
          "name": "timeElapsed",
          "type": "uint256"
        },
        {
          "indexed": false,
          "internalType": "uint256",
          "name": "currentprice",
          "type": "uint256"
        }
      ],
      "name": "updateCurrentPriceEvent",
      "type": "event"
    },
    {
      "stateMutability": "payable",
      "type": "fallback"
    },
    {
      "inputs": [],
      "name": "addBidder",
      "outputs": [],
      "stateMutability": "payable",
      "type": "function"
    },
    {
      "inputs": [
        {
          "internalType": "address",
          "name": "bidder",
          "type": "address"
        }
      ],
      "name": "balanceOfBidder",
      "outputs": [
        {
          "internalType": "uint256",
          "name": "",
          "type": "uint256"
        }
      ],
      "stateMutability": "view",
      "type": "function"
    },
    {
      "inputs": [
        {
          "internalType": "address",
          "name": "",
          "type": "address"
        }
      ],
      "name": "biddersList",
      "outputs": [
        {
          "internalType": "uint256",
          "name": "bidderID",
          "type": "uint256"
        },
        {
          "internalType": "address",
          "name": "walletAddress",
          "type": "address"
        },
        {
          "internalType": "uint256",
          "name": "bidValue",
          "type": "uint256"
        },
        {
          "internalType": "uint256",
          "name": "totalAlgosPurchased",
          "type": "uint256"
        },
        {
          "internalType": "uint256",
          "name": "refundEth",
          "type": "uint256"
        },
        {
          "internalType": "bool",
          "name": "isExist",
          "type": "bool"
        }
      ],
      "stateMutability": "view",
      "type": "function"
    },
    {
      "inputs": [],
      "name": "calculate",
      "outputs": [],
      "stateMutability": "nonpayable",
      "type": "function"
    },
    {
      "inputs": [],
      "name": "endAuction",
      "outputs": [],
      "stateMutability": "nonpayable",
      "type": "function"
    },
    {
      "inputs": [],
      "name": "getAuctionState",
      "outputs": [
        {
          "internalType": "enum Dutch_Auction.AuctionState",
          "name": "",
          "type": "uint8"
        }
      ],
      "stateMutability": "view",
      "type": "function"
    },
    {
      "inputs": [],
      "name": "refundETH",
      "outputs": [],
      "stateMutability": "nonpayable",
      "type": "function"
    },
    {
      "inputs": [
        {
          "internalType": "address",
          "name": "bidder",
          "type": "address"
        }
      ],
      "name": "retrieveBidderAlgos",
      "outputs": [
        {
          "internalType": "uint256",
          "name": "",
          "type": "uint256"
        }
      ],
      "stateMutability": "view",
      "type": "function"
    },
    {
      "inputs": [
        {
          "internalType": "address",
          "name": "bidder",
          "type": "address"
        }
      ],
      "name": "retrieveBidderBidValue",
      "outputs": [
        {
          "internalType": "uint256",
          "name": "",
          "type": "uint256"
        }
      ],
      "stateMutability": "view",
      "type": "function"
    },
    {
      "inputs": [],
      "name": "retrieveContractBalance",
      "outputs": [
        {
          "internalType": "uint256",
          "name": "",
          "type": "uint256"
        }
      ],
      "stateMutability": "view",
      "type": "function"
    },
    {
      "inputs": [],
      "name": "retrieveContractOwner",
      "outputs": [
        {
          "internalType": "address",
          "name": "",
          "type": "address"
        }
      ],
      "stateMutability": "view",
      "type": "function"
    },
    {
      "inputs": [],
      "name": "retrieveCurrentPrice",
      "outputs": [
        {
          "internalType": "int256",
          "name": "",
          "type": "int256"
        }
      ],
      "stateMutability": "view",
      "type": "function"
    },
    {
      "inputs": [
        {
          "internalType": "address",
          "name": "bidder",
          "type": "address"
        }
      ],
      "name": "retrieveRefund",
      "outputs": [
        {
          "internalType": "uint256",
          "name": "",
          "type": "uint256"
        }
      ],
      "stateMutability": "view",
      "type": "function"
    },
    {
      "inputs": [],
      "name": "retrieveReservePrice",
      "outputs": [
        {
          "internalType": "uint256",
          "name": "",
          "type": "uint256"
        }
      ],
      "stateMutability": "view",
      "type": "function"
    },
    {
      "inputs": [],
      "name": "retrieveTotalAlgos",
      "outputs": [
        {
          "internalType": "uint256",
          "name": "",
          "type": "uint256"
        }
      ],
      "stateMutability": "view",
      "type": "function"
    },
    {
      "inputs": [],
      "name": "retrieveTotalBidder",
      "outputs": [
        {
          "internalType": "uint256",
          "name": "",
          "type": "uint256"
        }
      ],
      "stateMutability": "view",
      "type": "function"
    },
    {
      "inputs": [],
      "name": "sendTokens",
      "outputs": [],
      "stateMutability": "nonpayable",
      "type": "function"
    },
    {
      "inputs": [
        {
          "internalType": "uint256",
          "name": "_totalAlgosAvailable",
          "type": "uint256"
        },
        {
          "internalType": "uint256",
          "name": "_changePerMin",
          "type": "uint256"
        }
      ],
      "name": "startAuction",
      "outputs": [
        {
          "internalType": "address",
          "name": "",
          "type": "address"
        }
      ],
      "stateMutability": "nonpayable",
      "type": "function"
    },
    {
      "inputs": [],
      "name": "updateCurrentPrice",
      "outputs": [],
      "stateMutability": "nonpayable",
      "type": "function"
    },
    {
      "stateMutability": "payable",
      "type": "receive"
    }
  ],
  "bytecode": "0x60e060405260006001553480156200001657600080fd5b50604051620053ed380380620053ed83398181016040528101906200003c919062000142565b80821062000081576040517f08c379a0000000000000000000000000000000000000000000000000000000008152600401620000789062000210565b60405180910390fd5b3373ffffffffffffffffffffffffffffffffffffffff1660c08173ffffffffffffffffffffffffffffffffffffffff16815250508160a081815250508060008190555080608081815250506000600a60006101000a81548160ff02191690836001811115620000f557620000f462000232565b5b0217905550505062000261565b600080fd5b6000819050919050565b6200011c8162000107565b81146200012857600080fd5b50565b6000815190506200013c8162000111565b92915050565b600080604083850312156200015c576200015b62000102565b5b60006200016c858286016200012b565b92505060206200017f858286016200012b565b9150509250929050565b600082825260208201905092915050565b7f7265736572766520707269636520697320686967686572207468616e2063757260008201527f72656e7420707269636500000000000000000000000000000000000000000000602082015250565b6000620001f8602a8362000189565b915062000205826200019a565b604082019050919050565b600060208201905081810360008301526200022b81620001e9565b9050919050565b7f4e487b7100000000000000000000000000000000000000000000000000000000600052602160045260246000fd5b60805160a05160c051615108620002e5600039600081816104ce0152818161094001528181610f240152818161125c0152818161132e015281816114cc015281816114f401528181611f3d01528181611fcd0152818161205b015261260c015260008181610e52015281816114270152611454015260006113e701526151086000f3fe608060405260043610620001335760003560e01c80637494c87511620000af578063ca77ab65116200006d578063ca77ab65146200041e578063df3853061462000438578063e4655bca1462000468578063e47112bd1462000498578063fe67a54b14620004b25762000145565b80637494c875146200031c5780637ded653f1462000360578063aa9d9bd61462000390578063ac5ece6d14620003aa578063c6dda94514620003da5762000145565b80631f8cdb0411620000fd5780631f8cdb0414620001fb57806326f5102014620002075780633bc7682c146200024b5780634fee13fc146200028f5780636e3bc76b14620002d35762000145565b806308bfc30014620001515780630b324808146200018157806312210e8a14620001b157806314df33ac14620001cb5762000145565b36620001455762000143620004cc565b005b6200014f620004cc565b005b3480156200015e57600080fd5b50620001696200091e565b6040516200017891906200284f565b60405180910390f35b3480156200018e57600080fd5b506200019962000935565b604051620001a8919062002887565b60405180910390f35b348015620001be57600080fd5b50620001c96200093e565b005b348015620001d857600080fd5b50620001e362000e4e565b604051620001f29190620028bf565b60405180910390f35b62000205620004cc565b005b3480156200021457600080fd5b506200023360048036038101906200022d919062002946565b62000e76565b604051620002429190620028bf565b60405180910390f35b3480156200025857600080fd5b5062000277600480360381019062000271919062002946565b62000f20565b604051620002869190620028bf565b60405180910390f35b3480156200029c57600080fd5b50620002bb6004803603810190620002b59190620029a9565b62000ff2565b604051620002ca919062002a01565b60405180910390f35b348015620002e057600080fd5b50620002ff6004803603810190620002f9919062002946565b620011ef565b604051620003139695949392919062002a3b565b60405180910390f35b3480156200032957600080fd5b5062000348600480360381019062000342919062002946565b62001258565b604051620003579190620028bf565b60405180910390f35b3480156200036d57600080fd5b50620003786200132a565b604051620003879190620028bf565b60405180910390f35b3480156200039d57600080fd5b50620003a8620013b8565b005b348015620003b757600080fd5b50620003c2620014c8565b604051620003d1919062002a01565b60405180910390f35b348015620003e757600080fd5b5062000406600480360381019062000400919062002946565b620014f0565b604051620004159190620028bf565b60405180910390f35b3480156200042b57600080fd5b5062000436620015c2565b005b3480156200044557600080fd5b506200045062001f39565b6040516200045f9190620028bf565b60405180910390f35b3480156200047557600080fd5b506200048062001fc9565b6040516200048f9190620028bf565b60405180910390f35b348015620004a557600080fd5b50620004b062002059565b005b348015620004bf57600080fd5b50620004ca6200260a565b005b7f000000000000000000000000000000000000000000000000000000000000000073ffffffffffffffffffffffffffffffffffffffff163373ffffffffffffffffffffffffffffffffffffffff160362000552576040517fc3fdc7c100000000000000000000000000000000000000000000000000000000815260040160405180910390fd5b600a60009054906101000a900460ff166001811115620005775762000576620027cf565b5b6001808111156200058d576200058c620027cf565b5b03620005c5576040517f5de7a96600000000000000000000000000000000000000000000000000000000815260040160405180910390fd5b600034116200060b576040517f08c379a0000000000000000000000000000000000000000000000000000000008152600401620006029062002b09565b60405180910390fd5b62000615620015c2565b6104b06003544262000628919062002b5a565b106200066b576040517f08c379a0000000000000000000000000000000000000000000000000000000008152600401620006629062002be5565b60405180910390fd5b600060045411620006b3576040517f08c379a0000000000000000000000000000000000000000000000000000000008152600401620006aa9062002c57565b60405180910390fd5b600960003373ffffffffffffffffffffffffffffffffffffffff1673ffffffffffffffffffffffffffffffffffffffff16815260200190815260200160002060050160009054906101000a900460ff16620008ba576000600960003373ffffffffffffffffffffffffffffffffffffffff1673ffffffffffffffffffffffffffffffffffffffff16815260200190815260200160002090506001600081546200075c9062002c79565b9190508190558160000181905550338160010160006101000a81548173ffffffffffffffffffffffffffffffffffffffff021916908373ffffffffffffffffffffffffffffffffffffffff16021790555034816002018190555060018160050160006101000a81548160ff02191690831515021790555060008160030181905550600081600401819055506008339080600181540180825580915050600190039060005260206000200160009091909190916101000a81548173ffffffffffffffffffffffffffffffffffffffff021916908373ffffffffffffffffffffffffffffffffffffffff1602179055507f6559452b5cf88e12990371c9441273d2dbb464fb7dd9cc4030551b86df924b6281600001548260010160009054906101000a900473ffffffffffffffffffffffffffffffffffffffff168360020154604051620008ab9392919062002cc6565b60405180910390a1506200091c565b6000600960003373ffffffffffffffffffffffffffffffffffffffff1673ffffffffffffffffffffffffffffffffffffffff16815260200190815260200160002090503481600201600082825462000913919062002d03565b92505081905550505b565b6000600a60009054906101000a900460ff16905090565b60008054905090565b7f000000000000000000000000000000000000000000000000000000000000000073ffffffffffffffffffffffffffffffffffffffff163373ffffffffffffffffffffffffffffffffffffffff1614620009c4576040517fae4a21bc00000000000000000000000000000000000000000000000000000000815260040160405180910390fd5b600a60009054906101000a900460ff166001811115620009e957620009e8620027cf565b5b6000600181111562000a0057620009ff620027cf565b5b0362000a38576040517f6668065e00000000000000000000000000000000000000000000000000000000815260040160405180910390fd5b60005b60088054905081101562000e4b576000600960006008848154811062000a665762000a6562002d3e565b5b9060005260206000200160009054906101000a900473ffffffffffffffffffffffffffffffffffffffff1673ffffffffffffffffffffffffffffffffffffffff1673ffffffffffffffffffffffffffffffffffffffff16815260200190815260200160002060040154111562000e35576000600960006008848154811062000af35762000af262002d3e565b5b9060005260206000200160009054906101000a900473ffffffffffffffffffffffffffffffffffffffff1673ffffffffffffffffffffffffffffffffffffffff1673ffffffffffffffffffffffffffffffffffffffff16815260200190815260200160002060010160009054906101000a900473ffffffffffffffffffffffffffffffffffffffff1673ffffffffffffffffffffffffffffffffffffffff16600960006008858154811062000bad5762000bac62002d3e565b5b9060005260206000200160009054906101000a900473ffffffffffffffffffffffffffffffffffffffff1673ffffffffffffffffffffffffffffffffffffffff1673ffffffffffffffffffffffffffffffffffffffff1681526020019081526020016000206004015460405162000c249062002da2565b60006040518083038185875af1925050503d806000811462000c63576040519150601f19603f3d011682016040523d82523d6000602084013e62000c68565b606091505b505090508062000caf576040517f08c379a000000000000000000000000000000000000000000000000000000000815260040162000ca69062002e09565b60405180910390fd5b7fb24b09fd2e8e4d8904c3c26f3e935824e032891520ffda419dec9f086b0e1eea6008838154811062000ce75762000ce662002d3e565b5b9060005260206000200160009054906101000a900473ffffffffffffffffffffffffffffffffffffffff16600960006008868154811062000d2d5762000d2c62002d3e565b5b9060005260206000200160009054906101000a900473ffffffffffffffffffffffffffffffffffffffff1673ffffffffffffffffffffffffffffffffffffffff1673ffffffffffffffffffffffffffffffffffffffff16815260200190815260200160002060030154600960006008878154811062000db15762000db062002d3e565b5b9060005260206000200160009054906101000a900473ffffffffffffffffffffffffffffffffffffffff1673ffffffffffffffffffffffffffffffffffffffff1673ffffffffffffffffffffffffffffffffffffffff1681526020019081526020016000206004015460405162000e2b9392919062002e2b565b60405180910390a1505b808062000e429062002c79565b91505062000a3b565b50565b60007f0000000000000000000000000000000000000000000000000000000000000000905090565b6000600660009054906101000a900473ffffffffffffffffffffffffffffffffffffffff1673ffffffffffffffffffffffffffffffffffffffff166370a08231836040518263ffffffff1660e01b815260040162000ed5919062002a01565b602060405180830381865afa15801562000ef3573d6000803e3d6000fd5b505050506040513d601f19601f8201168201806040525081019062000f19919062002e7f565b9050919050565b60007f000000000000000000000000000000000000000000000000000000000000000073ffffffffffffffffffffffffffffffffffffffff163373ffffffffffffffffffffffffffffffffffffffff161462000fa8576040517fae4a21bc00000000000000000000000000000000000000000000000000000000815260040160405180910390fd5b600960008373ffffffffffffffffffffffffffffffffffffffff1673ffffffffffffffffffffffffffffffffffffffff168152602001908152602001600020600201549050919050565b6000600a60009054906101000a900460ff166001811115620010195762001018620027cf565b5b6000600181111562001030576200102f620027cf565b5b0362001068576040517f6668065e00000000000000000000000000000000000000000000000000000000815260040160405180910390fd5b826002819055508160058190555042600381905550600254306040516200108f90620027c1565b6200109c92919062002eb1565b604051809103906000f080158015620010b9573d6000803e3d6000fd5b50600660006101000a81548173ffffffffffffffffffffffffffffffffffffffff021916908373ffffffffffffffffffffffffffffffffffffffff160217905550600660009054906101000a900473ffffffffffffffffffffffffffffffffffffffff16600760006101000a81548173ffffffffffffffffffffffffffffffffffffffff021916908373ffffffffffffffffffffffffffffffffffffffff1602179055507f0f0eb7cc9cde5623ecdc8f18c7fe6bacab47ab80468f73b4d9b3d08ec7284af5600354600760009054906101000a900473ffffffffffffffffffffffffffffffffffffffff16600254600554604051620011bc949392919062002ede565b60405180910390a1600760009054906101000a900473ffffffffffffffffffffffffffffffffffffffff16905092915050565b60096020528060005260406000206000915090508060000154908060010160009054906101000a900473ffffffffffffffffffffffffffffffffffffffff16908060020154908060030154908060040154908060050160009054906101000a900460ff16905086565b60007f000000000000000000000000000000000000000000000000000000000000000073ffffffffffffffffffffffffffffffffffffffff163373ffffffffffffffffffffffffffffffffffffffff1614620012e0576040517fae4a21bc00000000000000000000000000000000000000000000000000000000815260040160405180910390fd5b600960008373ffffffffffffffffffffffffffffffffffffffff1673ffffffffffffffffffffffffffffffffffffffff168152602001908152602001600020600301549050919050565b60007f000000000000000000000000000000000000000000000000000000000000000073ffffffffffffffffffffffffffffffffffffffff163373ffffffffffffffffffffffffffffffffffffffff1614620013b2576040517fae4a21bc00000000000000000000000000000000000000000000000000000000815260040160405180910390fd5b47905090565b600554603c60035442620013cd919062002b5a565b620013d9919062002f5a565b620013e5919062002f92565b7f000000000000000000000000000000000000000000000000000000000000000062001412919062003016565b600081905550600080541315806200144c57507f000000000000000000000000000000000000000000000000000000000000000060005413155b156200147a577f00000000000000000000000000000000000000000000000000000000000000006000819055505b7f7cda8554820ef0a356899263aefa9db86ab6966b7b823eda047b78c3afdfeb8e60035442620014ab919062002b5a565b600054604051620014be92919062003060565b60405180910390a1565b60007f0000000000000000000000000000000000000000000000000000000000000000905090565b60007f000000000000000000000000000000000000000000000000000000000000000073ffffffffffffffffffffffffffffffffffffffff163373ffffffffffffffffffffffffffffffffffffffff161462001578576040517fae4a21bc00000000000000000000000000000000000000000000000000000000815260040160405180910390fd5b600960008373ffffffffffffffffffffffffffffffffffffffff1673ffffffffffffffffffffffffffffffffffffffff168152602001908152602001600020600401549050919050565b620015cc620013b8565b6000600254905060005b60088054905081101562001ee757600054600960006008848154811062001602576200160162002d3e565b5b9060005260206000200160009054906101000a900473ffffffffffffffffffffffffffffffffffffffff1673ffffffffffffffffffffffffffffffffffffffff1673ffffffffffffffffffffffffffffffffffffffff1681526020019081526020016000206002015462001677919062002f5a565b8210620018c95760005460096000600884815481106200169c576200169b62002d3e565b5b9060005260206000200160009054906101000a900473ffffffffffffffffffffffffffffffffffffffff1673ffffffffffffffffffffffffffffffffffffffff1673ffffffffffffffffffffffffffffffffffffffff1681526020019081526020016000206002015462001711919062002f5a565b60096000600884815481106200172c576200172b62002d3e565b5b9060005260206000200160009054906101000a900473ffffffffffffffffffffffffffffffffffffffff1673ffffffffffffffffffffffffffffffffffffffff1673ffffffffffffffffffffffffffffffffffffffff168152602001908152602001600020600301819055506000546009600060088481548110620017b657620017b562002d3e565b5b9060005260206000200160009054906101000a900473ffffffffffffffffffffffffffffffffffffffff1673ffffffffffffffffffffffffffffffffffffffff1673ffffffffffffffffffffffffffffffffffffffff168152602001908152602001600020600201546200182b919062002f5a565b8262001838919062002b5a565b91506000600960006008848154811062001857576200185662002d3e565b5b9060005260206000200160009054906101000a900473ffffffffffffffffffffffffffffffffffffffff1673ffffffffffffffffffffffffffffffffffffffff1673ffffffffffffffffffffffffffffffffffffffff1681526020019081526020016000206004018190555062001d4d565b6000821180156200196b57506000546009600060088481548110620018f357620018f262002d3e565b5b9060005260206000200160009054906101000a900473ffffffffffffffffffffffffffffffffffffffff1673ffffffffffffffffffffffffffffffffffffffff1673ffffffffffffffffffffffffffffffffffffffff1681526020019081526020016000206002015462001968919062002f5a565b82105b1562001bad578160096000600884815481106200198d576200198c62002d3e565b5b9060005260206000200160009054906101000a900473ffffffffffffffffffffffffffffffffffffffff1673ffffffffffffffffffffffffffffffffffffffff1673ffffffffffffffffffffffffffffffffffffffff1681526020019081526020016000206003018190555060009150600054600960006008848154811062001a1b5762001a1a62002d3e565b5b9060005260206000200160009054906101000a900473ffffffffffffffffffffffffffffffffffffffff1673ffffffffffffffffffffffffffffffffffffffff1673ffffffffffffffffffffffffffffffffffffffff1681526020019081526020016000206003015462001a9091906200308d565b600960006008848154811062001aab5762001aaa62002d3e565b5b9060005260206000200160009054906101000a900473ffffffffffffffffffffffffffffffffffffffff1673ffffffffffffffffffffffffffffffffffffffff1673ffffffffffffffffffffffffffffffffffffffff1681526020019081526020016000206002015462001b20919062002b5a565b600960006008848154811062001b3b5762001b3a62002d3e565b5b9060005260206000200160009054906101000a900473ffffffffffffffffffffffffffffffffffffffff1673ffffffffffffffffffffffffffffffffffffffff1673ffffffffffffffffffffffffffffffffffffffff1681526020019081526020016000206004018190555062001d4c565b6000821162001d4b576000600960006008848154811062001bd35762001bd262002d3e565b5b9060005260206000200160009054906101000a900473ffffffffffffffffffffffffffffffffffffffff1673ffffffffffffffffffffffffffffffffffffffff1673ffffffffffffffffffffffffffffffffffffffff16815260200190815260200160002060030181905550600960006008838154811062001c5a5762001c5962002d3e565b5b9060005260206000200160009054906101000a900473ffffffffffffffffffffffffffffffffffffffff1673ffffffffffffffffffffffffffffffffffffffff1673ffffffffffffffffffffffffffffffffffffffff16815260200190815260200160002060020154600960006008848154811062001cde5762001cdd62002d3e565b5b9060005260206000200160009054906101000a900473ffffffffffffffffffffffffffffffffffffffff1673ffffffffffffffffffffffffffffffffffffffff1673ffffffffffffffffffffffffffffffffffffffff168152602001908152602001600020600401819055505b5b5b7fb24b09fd2e8e4d8904c3c26f3e935824e032891520ffda419dec9f086b0e1eea6008828154811062001d855762001d8462002d3e565b5b9060005260206000200160009054906101000a900473ffffffffffffffffffffffffffffffffffffffff16600960006008858154811062001dcb5762001dca62002d3e565b5b9060005260206000200160009054906101000a900473ffffffffffffffffffffffffffffffffffffffff1673ffffffffffffffffffffffffffffffffffffffff1673ffffffffffffffffffffffffffffffffffffffff16815260200190815260200160002060030154600960006008868154811062001e4f5762001e4e62002d3e565b5b9060005260206000200160009054906101000a900473ffffffffffffffffffffffffffffffffffffffff1673ffffffffffffffffffffffffffffffffffffffff1673ffffffffffffffffffffffffffffffffffffffff1681526020019081526020016000206004015460405162001ec99392919062002e2b565b60405180910390a1808062001ede9062002c79565b915050620015d6565b50600081111562001eff578060048190555062001f36565b6001600a60006101000a81548160ff0219169083600181111562001f285762001f27620027cf565b5b021790555060006004819055505b50565b60007f000000000000000000000000000000000000000000000000000000000000000073ffffffffffffffffffffffffffffffffffffffff163373ffffffffffffffffffffffffffffffffffffffff161462001fc1576040517fae4a21bc00000000000000000000000000000000000000000000000000000000815260040160405180910390fd5b600254905090565b60007f000000000000000000000000000000000000000000000000000000000000000073ffffffffffffffffffffffffffffffffffffffff163373ffffffffffffffffffffffffffffffffffffffff161462002051576040517fae4a21bc00000000000000000000000000000000000000000000000000000000815260040160405180910390fd5b600154905090565b7f000000000000000000000000000000000000000000000000000000000000000073ffffffffffffffffffffffffffffffffffffffff163373ffffffffffffffffffffffffffffffffffffffff1614620020df576040517fae4a21bc00000000000000000000000000000000000000000000000000000000815260040160405180910390fd5b600a60009054906101000a900460ff166001811115620021045762002103620027cf565b5b600060018111156200211b576200211a620027cf565b5b0362002153576040517f6668065e00000000000000000000000000000000000000000000000000000000815260040160405180910390fd5b60005b60088054905081101562002607576000600960006008848154811062002181576200218062002d3e565b5b9060005260206000200160009054906101000a900473ffffffffffffffffffffffffffffffffffffffff1673ffffffffffffffffffffffffffffffffffffffff1673ffffffffffffffffffffffffffffffffffffffff168152602001908152602001600020600301541115620025f157600660009054906101000a900473ffffffffffffffffffffffffffffffffffffffff1673ffffffffffffffffffffffffffffffffffffffff1663095ea7b36008838154811062002246576200224562002d3e565b5b9060005260206000200160009054906101000a900473ffffffffffffffffffffffffffffffffffffffff16670de0b6b3a7640000600960006008878154811062002295576200229462002d3e565b5b9060005260206000200160009054906101000a900473ffffffffffffffffffffffffffffffffffffffff1673ffffffffffffffffffffffffffffffffffffffff1673ffffffffffffffffffffffffffffffffffffffff168152602001908152602001600020600301546200230a91906200308d565b6040518363ffffffff1660e01b815260040162002329929190620030d8565b6020604051808303816000875af115801562002349573d6000803e3d6000fd5b505050506040513d601f19601f820116820180604052508101906200236f919062003136565b50600660009054906101000a900473ffffffffffffffffffffffffffffffffffffffff1673ffffffffffffffffffffffffffffffffffffffff166323b872dd3060088481548110620023c657620023c562002d3e565b5b9060005260206000200160009054906101000a900473ffffffffffffffffffffffffffffffffffffffff16670de0b6b3a7640000600960006008888154811062002415576200241462002d3e565b5b9060005260206000200160009054906101000a900473ffffffffffffffffffffffffffffffffffffffff1673ffffffffffffffffffffffffffffffffffffffff1673ffffffffffffffffffffffffffffffffffffffff168152602001908152602001600020600301546200248a91906200308d565b6040518463ffffffff1660e01b8152600401620024aa9392919062003168565b6020604051808303816000875af1158015620024ca573d6000803e3d6000fd5b505050506040513d601f19601f82011682018060405250810190620024f0919062003136565b507f039b13884cbcea684931b2bcff6faab7170693e1bc173e651e14168c890c70806008828154811062002529576200252862002d3e565b5b9060005260206000200160009054906101000a900473ffffffffffffffffffffffffffffffffffffffff1660096000600885815481106200256f576200256e62002d3e565b5b9060005260206000200160009054906101000a900473ffffffffffffffffffffffffffffffffffffffff1673ffffffffffffffffffffffffffffffffffffffff1673ffffffffffffffffffffffffffffffffffffffff16815260200190815260200160002060030154604051620025e8929190620030d8565b60405180910390a15b8080620025fe9062002c79565b91505062002156565b50565b7f000000000000000000000000000000000000000000000000000000000000000073ffffffffffffffffffffffffffffffffffffffff163373ffffffffffffffffffffffffffffffffffffffff161462002690576040517fae4a21bc00000000000000000000000000000000000000000000000000000000815260040160405180910390fd5b6001600a60006101000a81548160ff02191690836001811115620026b957620026b8620027cf565b5b0217905550620026c8620015c2565b620026d262002059565b620026dc6200093e565b600060045411156200277e57600660009054906101000a900473ffffffffffffffffffffffffffffffffffffffff1673ffffffffffffffffffffffffffffffffffffffff16639dc29fac306004546040518363ffffffff1660e01b815260040162002749929190620030d8565b600060405180830381600087803b1580156200276457600080fd5b505af115801562002779573d6000803e3d6000fd5b505050505b7f99d9aed25b1415a4a35a1890d2ee6aa1db28f98ba8eff1de3d494a6af9dca77260015460045447604051620027b793929190620031a5565b60405180910390a1565b611ef080620031e383390190565b7f4e487b7100000000000000000000000000000000000000000000000000000000600052602160045260246000fd5b60028110620028125762002811620027cf565b5b50565b60008190506200282582620027fe565b919050565b6000620028378262002815565b9050919050565b62002849816200282a565b82525050565b60006020820190506200286660008301846200283e565b92915050565b6000819050919050565b62002881816200286c565b82525050565b60006020820190506200289e600083018462002876565b92915050565b6000819050919050565b620028b981620028a4565b82525050565b6000602082019050620028d66000830184620028ae565b92915050565b600080fd5b600073ffffffffffffffffffffffffffffffffffffffff82169050919050565b60006200290e82620028e1565b9050919050565b620029208162002901565b81146200292c57600080fd5b50565b600081359050620029408162002915565b92915050565b6000602082840312156200295f576200295e620028dc565b5b60006200296f848285016200292f565b91505092915050565b6200298381620028a4565b81146200298f57600080fd5b50565b600081359050620029a38162002978565b92915050565b60008060408385031215620029c357620029c2620028dc565b5b6000620029d38582860162002992565b9250506020620029e68582860162002992565b9150509250929050565b620029fb8162002901565b82525050565b600060208201905062002a186000830184620029f0565b92915050565b60008115159050919050565b62002a358162002a1e565b82525050565b600060c08201905062002a526000830189620028ae565b62002a616020830188620029f0565b62002a706040830187620028ae565b62002a7f6060830186620028ae565b62002a8e6080830185620028ae565b62002a9d60a083018462002a2a565b979650505050505050565b600082825260208201905092915050565b7f62696456616c7565206c657373207468616e2030000000000000000000000000600082015250565b600062002af160148362002aa8565b915062002afe8262002ab9565b602082019050919050565b6000602082019050818103600083015262002b248162002ae2565b9050919050565b7f4e487b7100000000000000000000000000000000000000000000000000000000600052601160045260246000fd5b600062002b6782620028a4565b915062002b7483620028a4565b925082820390508181111562002b8f5762002b8e62002b2b565b5b92915050565b7f74696d6520697320757000000000000000000000000000000000000000000000600082015250565b600062002bcd600a8362002aa8565b915062002bda8262002b95565b602082019050919050565b6000602082019050818103600083015262002c008162002bbe565b9050919050565b7f5468657265206973206e6f206d6f726520616c676f73206c6566740000000000600082015250565b600062002c3f601b8362002aa8565b915062002c4c8262002c07565b602082019050919050565b6000602082019050818103600083015262002c728162002c30565b9050919050565b600062002c8682620028a4565b91507fffffffffffffffffffffffffffffffffffffffffffffffffffffffffffffffff820362002cbb5762002cba62002b2b565b5b600182019050919050565b600060608201905062002cdd6000830186620028ae565b62002cec6020830185620029f0565b62002cfb6040830184620028ae565b949350505050565b600062002d1082620028a4565b915062002d1d83620028a4565b925082820190508082111562002d385762002d3762002b2b565b5b92915050565b7f4e487b7100000000000000000000000000000000000000000000000000000000600052603260045260246000fd5b600081905092915050565b50565b600062002d8a60008362002d6d565b915062002d978262002d78565b600082019050919050565b600062002daf8262002d7b565b9150819050919050565b7f4661696c656420746f2073656e64206574686572000000000000000000000000600082015250565b600062002df160148362002aa8565b915062002dfe8262002db9565b602082019050919050565b6000602082019050818103600083015262002e248162002de2565b9050919050565b600060608201905062002e426000830186620029f0565b62002e516020830185620028ae565b62002e606040830184620028ae565b949350505050565b60008151905062002e798162002978565b92915050565b60006020828403121562002e985762002e97620028dc565b5b600062002ea88482850162002e68565b91505092915050565b600060408201905062002ec86000830185620028ae565b62002ed76020830184620029f0565b9392505050565b600060808201905062002ef56000830187620028ae565b62002f046020830186620029f0565b62002f136040830185620028ae565b62002f226060830184620028ae565b95945050505050565b7f4e487b7100000000000000000000000000000000000000000000000000000000600052601260045260246000fd5b600062002f6782620028a4565b915062002f7483620028a4565b92508262002f875762002f8662002f2b565b5b828204905092915050565b600062002f9f826200286c565b915062002fac836200286c565b925082820262002fbc816200286c565b91507f8000000000000000000000000000000000000000000000000000000000000000841460008412161562002ff75762002ff662002b2b565b5b82820584148315176200300f576200300e62002b2b565b5b5092915050565b600062003023826200286c565b915062003030836200286c565b92508282039050818112600084121682821360008512151617156200305a576200305962002b2b565b5b92915050565b6000604082019050620030776000830185620028ae565b620030866020830184620028ae565b9392505050565b60006200309a82620028a4565b9150620030a783620028a4565b9250828202620030b781620028a4565b91508282048414831517620030d157620030d062002b2b565b5b5092915050565b6000604082019050620030ef6000830185620029f0565b620030fe6020830184620028ae565b9392505050565b620031108162002a1e565b81146200311c57600080fd5b50565b600081519050620031308162003105565b92915050565b6000602082840312156200314f576200314e620028dc565b5b60006200315f848285016200311f565b91505092915050565b60006060820190506200317f6000830186620029f0565b6200318e6020830185620029f0565b6200319d6040830184620028ae565b949350505050565b6000606082019050620031bc6000830186620028ae565b620031cb6020830185620028ae565b620031da6040830184620028ae565b94935050505056fe60806040523480156200001157600080fd5b5060405162001ef038038062001ef0833981810160405281019062000037919062000805565b336040518060400160405280600a81526020017f4552433230546f6b656e000000000000000000000000000000000000000000008152506040518060400160405280600281526020017f45540000000000000000000000000000000000000000000000000000000000008152508160039081620000b5919062000abc565b508060049081620000c7919062000abc565b505050600073ffffffffffffffffffffffffffffffffffffffff168173ffffffffffffffffffffffffffffffffffffffff16036200013f5760006040517f1e4fbdf700000000000000000000000000000000000000000000000000000000815260040162000136919062000bb4565b60405180910390fd5b6200015081620001a860201b60201c565b506200017833670de0b6b3a7640000846200016c919062000c00565b6200026e60201b60201c565b6200019f81670de0b6b3a76400008462000193919062000c00565b620002fb60201b60201c565b50505062000cf1565b6000600560009054906101000a900473ffffffffffffffffffffffffffffffffffffffff16905081600560006101000a81548173ffffffffffffffffffffffffffffffffffffffff021916908373ffffffffffffffffffffffffffffffffffffffff1602179055508173ffffffffffffffffffffffffffffffffffffffff168173ffffffffffffffffffffffffffffffffffffffff167f8be0079c531659141344cd1fd0a4f28419497f9722a3daafe3b4186f6b6457e060405160405180910390a35050565b600073ffffffffffffffffffffffffffffffffffffffff168273ffffffffffffffffffffffffffffffffffffffff1603620002e35760006040517fec442f05000000000000000000000000000000000000000000000000000000008152600401620002da919062000bb4565b60405180910390fd5b620002f7600083836200032e60201b60201c565b5050565b6000806200030e6200055e60201b60201c565b9050620003238185856200056660201b60201c565b600191505092915050565b600073ffffffffffffffffffffffffffffffffffffffff168373ffffffffffffffffffffffffffffffffffffffff16036200038457806002600082825462000377919062000c4b565b925050819055506200045a565b60008060008573ffffffffffffffffffffffffffffffffffffffff1673ffffffffffffffffffffffffffffffffffffffff1681526020019081526020016000205490508181101562000413578381836040517fe450d38c0000000000000000000000000000000000000000000000000000000081526004016200040a9392919062000c97565b60405180910390fd5b8181036000808673ffffffffffffffffffffffffffffffffffffffff1673ffffffffffffffffffffffffffffffffffffffff16815260200190815260200160002081905550505b600073ffffffffffffffffffffffffffffffffffffffff168273ffffffffffffffffffffffffffffffffffffffff1603620004a55780600260008282540392505081905550620004f2565b806000808473ffffffffffffffffffffffffffffffffffffffff1673ffffffffffffffffffffffffffffffffffffffff168152602001908152602001600020600082825401925050819055505b8173ffffffffffffffffffffffffffffffffffffffff168373ffffffffffffffffffffffffffffffffffffffff167fddf252ad1be2c89b69c2b068fc378daa952ba7f163c4a11628f55a4df523b3ef8360405162000551919062000cd4565b60405180910390a3505050565b600033905090565b6200057b83838360016200058060201b60201c565b505050565b600073ffffffffffffffffffffffffffffffffffffffff168473ffffffffffffffffffffffffffffffffffffffff1603620005f55760006040517fe602df05000000000000000000000000000000000000000000000000000000008152600401620005ec919062000bb4565b60405180910390fd5b600073ffffffffffffffffffffffffffffffffffffffff168373ffffffffffffffffffffffffffffffffffffffff16036200066a5760006040517f94280d6200000000000000000000000000000000000000000000000000000000815260040162000661919062000bb4565b60405180910390fd5b81600160008673ffffffffffffffffffffffffffffffffffffffff1673ffffffffffffffffffffffffffffffffffffffff16815260200190815260200160002060008573ffffffffffffffffffffffffffffffffffffffff1673ffffffffffffffffffffffffffffffffffffffff1681526020019081526020016000208190555080156200075a578273ffffffffffffffffffffffffffffffffffffffff168473ffffffffffffffffffffffffffffffffffffffff167f8c5be1e5ebec7d5bd14f71427d1e84f3dd0314c0f7b2291e5b200ac8c7c3b9258460405162000751919062000cd4565b60405180910390a35b50505050565b600080fd5b6000819050919050565b6200077a8162000765565b81146200078657600080fd5b50565b6000815190506200079a816200076f565b92915050565b600073ffffffffffffffffffffffffffffffffffffffff82169050919050565b6000620007cd82620007a0565b9050919050565b620007df81620007c0565b8114620007eb57600080fd5b50565b600081519050620007ff81620007d4565b92915050565b600080604083850312156200081f576200081e62000760565b5b60006200082f8582860162000789565b92505060206200084285828601620007ee565b9150509250929050565b600081519050919050565b7f4e487b7100000000000000000000000000000000000000000000000000000000600052604160045260246000fd5b7f4e487b7100000000000000000000000000000000000000000000000000000000600052602260045260246000fd5b60006002820490506001821680620008ce57607f821691505b602082108103620008e457620008e362000886565b5b50919050565b60008190508160005260206000209050919050565b60006020601f8301049050919050565b600082821b905092915050565b6000600883026200094e7fffffffffffffffffffffffffffffffffffffffffffffffffffffffffffffffff826200090f565b6200095a86836200090f565b95508019841693508086168417925050509392505050565b6000819050919050565b60006200099d62000997620009918462000765565b62000972565b62000765565b9050919050565b6000819050919050565b620009b9836200097c565b620009d1620009c882620009a4565b8484546200091c565b825550505050565b600090565b620009e8620009d9565b620009f5818484620009ae565b505050565b5b8181101562000a1d5762000a11600082620009de565b600181019050620009fb565b5050565b601f82111562000a6c5762000a3681620008ea565b62000a4184620008ff565b8101602085101562000a51578190505b62000a6962000a6085620008ff565b830182620009fa565b50505b505050565b600082821c905092915050565b600062000a916000198460080262000a71565b1980831691505092915050565b600062000aac838362000a7e565b9150826002028217905092915050565b62000ac7826200084c565b67ffffffffffffffff81111562000ae35762000ae262000857565b5b62000aef8254620008b5565b62000afc82828562000a21565b600060209050601f83116001811462000b34576000841562000b1f578287015190505b62000b2b858262000a9e565b86555062000b9b565b601f19841662000b4486620008ea565b60005b8281101562000b6e5784890151825560018201915060208501945060208101905062000b47565b8683101562000b8e578489015162000b8a601f89168262000a7e565b8355505b6001600288020188555050505b505050505050565b62000bae81620007c0565b82525050565b600060208201905062000bcb600083018462000ba3565b92915050565b7f4e487b7100000000000000000000000000000000000000000000000000000000600052601160045260246000fd5b600062000c0d8262000765565b915062000c1a8362000765565b925082820262000c2a8162000765565b9150828204841483151762000c445762000c4362000bd1565b5b5092915050565b600062000c588262000765565b915062000c658362000765565b925082820190508082111562000c805762000c7f62000bd1565b5b92915050565b62000c918162000765565b82525050565b600060608201905062000cae600083018662000ba3565b62000cbd602083018562000c86565b62000ccc604083018462000c86565b949350505050565b600060208201905062000ceb600083018462000c86565b92915050565b6111ef8062000d016000396000f3fe608060405234801561001057600080fd5b50600436106100cf5760003560e01c8063715018a61161008c5780639dc29fac116100665780639dc29fac14610204578063a9059cbb14610220578063dd62ed3e14610250578063f2fde38b14610280576100cf565b8063715018a6146101be5780638da5cb5b146101c857806395d89b41146101e6576100cf565b806306fdde03146100d4578063095ea7b3146100f257806318160ddd1461012257806323b872dd14610140578063313ce5671461017057806370a082311461018e575b600080fd5b6100dc61029c565b6040516100e99190610e01565b60405180910390f35b61010c60048036038101906101079190610ebc565b61032e565b6040516101199190610f17565b60405180910390f35b61012a610351565b6040516101379190610f41565b60405180910390f35b61015a60048036038101906101559190610f5c565b61035b565b6040516101679190610f17565b60405180910390f35b61017861038a565b6040516101859190610fcb565b60405180910390f35b6101a860048036038101906101a39190610fe6565b610393565b6040516101b59190610f41565b60405180910390f35b6101c66103db565b005b6101d06103ef565b6040516101dd9190611022565b60405180910390f35b6101ee610419565b6040516101fb9190610e01565b60405180910390f35b61021e60048036038101906102199190610ebc565b6104ab565b005b61023a60048036038101906102359190610ebc565b6104d4565b6040516102479190610f17565b60405180910390f35b61026a6004803603810190610265919061103d565b6104f7565b6040516102779190610f41565b60405180910390f35b61029a60048036038101906102959190610fe6565b61057e565b005b6060600380546102ab906110ac565b80601f01602080910402602001604051908101604052809291908181526020018280546102d7906110ac565b80156103245780601f106102f957610100808354040283529160200191610324565b820191906000526020600020905b81548152906001019060200180831161030757829003601f168201915b5050505050905090565b600080610339610604565b905061034681858561060c565b600191505092915050565b6000600254905090565b600080610366610604565b905061037385828561061e565b61037e8585856106b2565b60019150509392505050565b60006012905090565b60008060008373ffffffffffffffffffffffffffffffffffffffff1673ffffffffffffffffffffffffffffffffffffffff168152602001908152602001600020549050919050565b6103e36107a6565b6103ed600061082d565b565b6000600560009054906101000a900473ffffffffffffffffffffffffffffffffffffffff16905090565b606060048054610428906110ac565b80601f0160208091040260200160405190810160405280929190818152602001828054610454906110ac565b80156104a15780601f10610476576101008083540402835291602001916104a1565b820191906000526020600020905b81548152906001019060200180831161048457829003601f168201915b5050505050905090565b6104b36107a6565b6104d082670de0b6b3a7640000836104cb919061110c565b6108f3565b5050565b6000806104df610604565b90506104ec8185856106b2565b600191505092915050565b6000600160008473ffffffffffffffffffffffffffffffffffffffff1673ffffffffffffffffffffffffffffffffffffffff16815260200190815260200160002060008373ffffffffffffffffffffffffffffffffffffffff1673ffffffffffffffffffffffffffffffffffffffff16815260200190815260200160002054905092915050565b6105866107a6565b600073ffffffffffffffffffffffffffffffffffffffff168173ffffffffffffffffffffffffffffffffffffffff16036105f85760006040517f1e4fbdf70000000000000000000000000000000000000000000000000000000081526004016105ef9190611022565b60405180910390fd5b6106018161082d565b50565b600033905090565b6106198383836001610975565b505050565b600061062a84846104f7565b90507fffffffffffffffffffffffffffffffffffffffffffffffffffffffffffffffff81146106ac578181101561069c578281836040517ffb8f41b20000000000000000000000000000000000000000000000000000000081526004016106939392919061114e565b60405180910390fd5b6106ab84848484036000610975565b5b50505050565b600073ffffffffffffffffffffffffffffffffffffffff168373ffffffffffffffffffffffffffffffffffffffff16036107245760006040517f96c6fd1e00000000000000000000000000000000000000000000000000000000815260040161071b9190611022565b60405180910390fd5b600073ffffffffffffffffffffffffffffffffffffffff168273ffffffffffffffffffffffffffffffffffffffff16036107965760006040517fec442f0500000000000000000000000000000000000000000000000000000000815260040161078d9190611022565b60405180910390fd5b6107a1838383610b4c565b505050565b6107ae610604565b73ffffffffffffffffffffffffffffffffffffffff166107cc6103ef565b73ffffffffffffffffffffffffffffffffffffffff161461082b576107ef610604565b6040517f118cdaa70000000000000000000000000000000000000000000000000000000081526004016108229190611022565b60405180910390fd5b565b6000600560009054906101000a900473ffffffffffffffffffffffffffffffffffffffff16905081600560006101000a81548173ffffffffffffffffffffffffffffffffffffffff021916908373ffffffffffffffffffffffffffffffffffffffff1602179055508173ffffffffffffffffffffffffffffffffffffffff168173ffffffffffffffffffffffffffffffffffffffff167f8be0079c531659141344cd1fd0a4f28419497f9722a3daafe3b4186f6b6457e060405160405180910390a35050565b600073ffffffffffffffffffffffffffffffffffffffff168273ffffffffffffffffffffffffffffffffffffffff16036109655760006040517f96c6fd1e00000000000000000000000000000000000000000000000000000000815260040161095c9190611022565b60405180910390fd5b61097182600083610b4c565b5050565b600073ffffffffffffffffffffffffffffffffffffffff168473ffffffffffffffffffffffffffffffffffffffff16036109e75760006040517fe602df050000000000000000000000000000000000000000000000000000000081526004016109de9190611022565b60405180910390fd5b600073ffffffffffffffffffffffffffffffffffffffff168373ffffffffffffffffffffffffffffffffffffffff1603610a595760006040517f94280d62000000000000000000000000000000000000000000000000000000008152600401610a509190611022565b60405180910390fd5b81600160008673ffffffffffffffffffffffffffffffffffffffff1673ffffffffffffffffffffffffffffffffffffffff16815260200190815260200160002060008573ffffffffffffffffffffffffffffffffffffffff1673ffffffffffffffffffffffffffffffffffffffff168152602001908152602001600020819055508015610b46578273ffffffffffffffffffffffffffffffffffffffff168473ffffffffffffffffffffffffffffffffffffffff167f8c5be1e5ebec7d5bd14f71427d1e84f3dd0314c0f7b2291e5b200ac8c7c3b92584604051610b3d9190610f41565b60405180910390a35b50505050565b600073ffffffffffffffffffffffffffffffffffffffff168373ffffffffffffffffffffffffffffffffffffffff1603610b9e578060026000828254610b929190611185565b92505081905550610c71565b60008060008573ffffffffffffffffffffffffffffffffffffffff1673ffffffffffffffffffffffffffffffffffffffff16815260200190815260200160002054905081811015610c2a578381836040517fe450d38c000000000000000000000000000000000000000000000000000000008152600401610c219392919061114e565b60405180910390fd5b8181036000808673ffffffffffffffffffffffffffffffffffffffff1673ffffffffffffffffffffffffffffffffffffffff16815260200190815260200160002081905550505b600073ffffffffffffffffffffffffffffffffffffffff168273ffffffffffffffffffffffffffffffffffffffff1603610cba5780600260008282540392505081905550610d07565b806000808473ffffffffffffffffffffffffffffffffffffffff1673ffffffffffffffffffffffffffffffffffffffff168152602001908152602001600020600082825401925050819055505b8173ffffffffffffffffffffffffffffffffffffffff168373ffffffffffffffffffffffffffffffffffffffff167fddf252ad1be2c89b69c2b068fc378daa952ba7f163c4a11628f55a4df523b3ef83604051610d649190610f41565b60405180910390a3505050565b600081519050919050565b600082825260208201905092915050565b60005b83811015610dab578082015181840152602081019050610d90565b60008484015250505050565b6000601f19601f8301169050919050565b6000610dd382610d71565b610ddd8185610d7c565b9350610ded818560208601610d8d565b610df681610db7565b840191505092915050565b60006020820190508181036000830152610e1b8184610dc8565b905092915050565b600080fd5b600073ffffffffffffffffffffffffffffffffffffffff82169050919050565b6000610e5382610e28565b9050919050565b610e6381610e48565b8114610e6e57600080fd5b50565b600081359050610e8081610e5a565b92915050565b6000819050919050565b610e9981610e86565b8114610ea457600080fd5b50565b600081359050610eb681610e90565b92915050565b60008060408385031215610ed357610ed2610e23565b5b6000610ee185828601610e71565b9250506020610ef285828601610ea7565b9150509250929050565b60008115159050919050565b610f1181610efc565b82525050565b6000602082019050610f2c6000830184610f08565b92915050565b610f3b81610e86565b82525050565b6000602082019050610f566000830184610f32565b92915050565b600080600060608486031215610f7557610f74610e23565b5b6000610f8386828701610e71565b9350506020610f9486828701610e71565b9250506040610fa586828701610ea7565b9150509250925092565b600060ff82169050919050565b610fc581610faf565b82525050565b6000602082019050610fe06000830184610fbc565b92915050565b600060208284031215610ffc57610ffb610e23565b5b600061100a84828501610e71565b91505092915050565b61101c81610e48565b82525050565b60006020820190506110376000830184611013565b92915050565b6000806040838503121561105457611053610e23565b5b600061106285828601610e71565b925050602061107385828601610e71565b9150509250929050565b7f4e487b7100000000000000000000000000000000000000000000000000000000600052602260045260246000fd5b600060028204905060018216806110c457607f821691505b6020821081036110d7576110d661107d565b5b50919050565b7f4e487b7100000000000000000000000000000000000000000000000000000000600052601160045260246000fd5b600061111782610e86565b915061112283610e86565b925082820261113081610e86565b91508282048414831517611147576111466110dd565b5b5092915050565b60006060820190506111636000830186611013565b6111706020830185610f32565b61117d6040830184610f32565b949350505050565b600061119082610e86565b915061119b83610e86565b92508282019050808211156111b3576111b26110dd565b5b9291505056fea2646970667358221220da64986efe334ff5837b986db8a789595ef8a676806085e4ac809b5c5513312f64736f6c63430008150033a2646970667358221220c55e9390acf6254636a8e8bb6df4ac107fd327861ee134fc338b557201ba3aff64736f6c63430008150033",
  "linkReferences": {},
  "deployedLinkReferences": {}
}